{"abi":[{"type":"function","name":"balanceOf","inputs":[{"name":"","type":"address","internalType":"address"}],"outputs":[{"name":"","type":"uint256","internalType":"uint256"}],"stateMutability":"view"},{"type":"function","name":"mint","inputs":[{"name":"to","type":"address","internalType":"address"},{"name":"amount","type":"uint256","internalType":"uint256"}],"outputs":[],"stateMutability":"nonpayable"},{"type":"function","name":"totalSupply","inputs":[],"outputs":[{"name":"","type":"uint256","internalType":"uint256"}],"stateMutability":"view"}],"bytecode":{"object":"0x60b68060095f395ff361400060405236600d5760b2565b5f3560e01c806340c10f1914603457806370a0823114607557806318160ddd1460995760b2565b503415603e575f5ffd5b5b600154602435810190506001556004355f525f60205260405f2054602435810190506004355f525f60205260405f208181555050005b503415607f575f5ffd5b5b5f6080526004355f525f60205260405f20545f5260205ff35b50341560a3575f5ffd5b5b5f6080526001545f5260205ff35b5f5ffd","linkReferences":{}},"methodIdentifiers":{"balanceOf(address)":"70a08231","mint(address,uint256)":"40c10f19","totalSupply()":"18160ddd"},"id":1}