{"abi":[{"type":"function","name":"data","inputs":[{"name":"","type":"uint256","internalType":"uint256"},{"name":"","type":"uint256","internalType":"uint256"},{"name":"","type":"uint256","internalType":"uint256"}],"outputs":[{"name":"","type":"uint256","internalType":"uint256"}],"stateMutability":"view"},{"type":"function","name":"get","inputs":[{"name":"a","type":"uint256","internalType":"uint256"},{"name":"b","type":"uint256","internalType":"uint256"},{"name":"c","type":"uint256","internalType":"uint256"}],"outputs":[{"name":"","type":"uint256","internalType":"uint256"}],"stateMutability":"view"},{"type":"function","name":"set","inputs":[{"name":"a","type":"uint256","internalType":"uint256"},{"name":"b","type":"uint256","internalType":"uint256"},{"name":"c","type":"uint256","internalType":"uint256"},{"name":"val","type":"uint256","internalType":"uint256"}],"outputs":[],"stateMutability":"nonpayable"}],"bytecode":{"object":"0x60e88060095f395ff361400060405236600d5760e4565b5f3560e01c8063d5374c25146034578063606ce3bf1460705780630541c7071460a85760e4565b503415603e575f5ffd5b5b5f6080526004355f525f60205260405f206024355f5260205260405f206044355f5260205260405f20545f5260205ff35b503415607a575f5ffd5b5b6004355f525f60205260405f206024355f5260205260405f206044355f5260205260405f20606435815550005b50341560b2575f5ffd5b5b5f6080526004355f525f60205260405f206024355f5260205260405f206044355f5260205260405f20545f5260205ff35b5f5ffd","linkReferences":{}},"methodIdentifiers":{"data(uint256,uint256,uint256)":"d5374c25","get(uint256,uint256,uint256)":"0541c707","set(uint256,uint256,uint256,uint256)":"606ce3bf"},"id":5}