{"abi":[{"type":"function","name":"batchSum","inputs":[{"name":"a1","type":"uint256","internalType":"uint256"},{"name":"a2","type":"uint256","internalType":"uint256"},{"name":"a3","type":"uint256","internalType":"uint256"},{"name":"a4","type":"uint256","internalType":"uint256"},{"name":"a5","type":"uint256","internalType":"uint256"},{"name":"a6","type":"uint256","internalType":"uint256"},{"name":"a7","type":"uint256","internalType":"uint256"},{"name":"a8","type":"uint256","internalType":"uint256"},{"name":"a9","type":"uint256","internalType":"uint256"},{"name":"a10","type":"uint256","internalType":"uint256"}],"outputs":[{"name":"","type":"uint256","internalType":"uint256"}],"stateMutability":"pure"},{"type":"function","name":"calculateSwap","inputs":[{"name":"reserve0","type":"uint256","internalType":"uint256"},{"name":"reserve1","type":"uint256","internalType":"uint256"},{"name":"fee","type":"uint256","internalType":"uint256"},{"name":"amountIn","type":"uint256","internalType":"uint256"},{"name":"slippageTolerance","type":"uint256","internalType":"uint256"},{"name":"minOut","type":"uint256","internalType":"uint256"},{"name":"maxOut","type":"uint256","internalType":"uint256"},{"name":"priceLimit","type":"uint256","internalType":"uint256"}],"outputs":[{"name":"amountOut","type":"uint256","internalType":"uint256"},{"name":"priceImpact","type":"uint256","internalType":"uint256"},{"name":"effectiveFee","type":"uint256","internalType":"uint256"}],"stateMutability":"pure"},{"type":"function","name":"chainedArithmetic","inputs":[{"name":"x1","type":"uint256","internalType":"uint256"},{"name":"x2","type":"uint256","internalType":"uint256"},{"name":"x3","type":"uint256","internalType":"uint256"},{"name":"x4","type":"uint256","internalType":"uint256"},{"name":"x5","type":"uint256","internalType":"uint256"},{"name":"x6","type":"uint256","internalType":"uint256"},{"name":"x7","type":"uint256","internalType":"uint256"},{"name":"x8","type":"uint256","internalType":"uint256"}],"outputs":[{"name":"","type":"uint256","internalType":"uint256"}],"stateMutability":"pure"},{"type":"function","name":"simpleAdd","inputs":[{"name":"a","type":"uint256","internalType":"uint256"},{"name":"b","type":"uint256","internalType":"uint256"}],"outputs":[{"name":"","type":"uint256","internalType":"uint256"}],"stateMutability":"pure"},{"type":"function","name":"ultimateStressTest","inputs":[{"name":"a","type":"uint256","internalType":"uint256"},{"name":"b","type":"uint256","internalType":"uint256"},{"name":"c","type":"uint256","internalType":"uint256"},{"name":"d","type":"uint256","internalType":"uint256"},{"name":"e","type":"uint256","internalType":"uint256"},{"name":"f","type":"uint256","internalType":"uint256"},{"name":"g","type":"uint256","internalType":"uint256"},{"name":"h","type":"uint256","internalType":"uint256"},{"name":"i","type":"uint256","internalType":"uint256"},{"name":"j","type":"uint256","internalType":"uint256"},{"name":"k","type":"uint256","internalType":"uint256"},{"name":"l","type":"uint256","internalType":"uint256"},{"name":"m","type":"uint256","internalType":"uint256"},{"name":"n","type":"uint256","internalType":"uint256"},{"name":"o","type":"uint256","internalType":"uint256"},{"name":"p","type":"uint256","internalType":"uint256"}],"outputs":[{"name":"","type":"uint256","internalType":"uint256"}],"stateMutability":"pure"}],"bytecode":{"object":"0x6104fd80600a5f395ff35f3560e01c8063bcba9f8014603f5780632e31aff81461020e578063e572b6a1146103035780634b093229146103f3578063b45fb327146104df576104f9565b5034156049575f5ffd5b5b60643560443501602435016004350160805260e43560c4350160a435016084350160a0526101643561014435016101243501610104350160c0526101e4356101c435016101a43501610184350160e0526024356004350261010052606435604435026101205260a435608435026101405260e43560c43502610160526101243561010435116101243561010435036101043561012435038150505061018052610164356101443511610164356101443503610144356101643503815050506101a0526101a43561018435116101a4356101843503610184356101a43503815050506101c0526101e4356101c435116101e4356101c435036101c4356101e43503815050506101e05260805161010051610180510190016102005260a051610120516101a0510190016102205260c051610140516101c0510190016102405260e051610160516101e05101900161026052610200516102205102610280526102405161026051026102a052610280516102a0516101e4356101c435016101a435016101843501610164350161014435016101243501610104350160e4350160c4350160a435016084350160643501604435016024350160043501900190015f5260205ff35b503415610219575f5ffd5b5b6044356127100360643502608052608051602435900260a052612710600435026080518101905060c05260a05160c05104670de0b6b3a7640000602435026004358104905060e052670de0b6b3a76400005f02606435810490506101005260e051610100511160e05161010051036127108102905060e051810490505f815050506004355f02602435810490506064350360a4355f1015156102bb576102be565b5ffd5b60c4355f1115156102ce576102d1565b5ffd5b6084355f1115156102e1576102e4565b5ffd5b6101005160e435901115156102f8576102fb565b5ffd5b5f5f5260205ff35b50341561030e575f5ffd5b5b602435600435016080526064356044350160a05260a4356084350160c05260e43560c4350160e052610124356101043501610100526024356004350261012052606435604435026101405260a435608435026101605260e43560c43502610180526101243561010435026101a05260805160a05160c05160e05161010051019001900190016101c052610120516101405161016051610180516101a051019001900190016101e0526101c0516101e05161012435610104350160e4350160c4350160a435016084350160643501604435016024350160043501900190015f5260205ff35b5034156103fe575f5ffd5b5b602435600435016080526064356044350160a05260a4356084350160c05260e43560c4350160e05260805160a051026101005260c05160e05102610120526101005161012051016101405261010051610120510261016052610140516064356044350160243501600435019001610180526101605160e43560c4350160a435016084350190016101a052610180516101a051026101c052610180516101a051016101e0526101c0516101e05160805160a05160c05160e0516101005161012051610140516101605101900190019001900190019001900190015f5260205ff35b5034156104ea575f5ffd5b5b602435600435015f5260205ff35b5f5ffd","linkReferences":{}},"methodIdentifiers":{},"id":0}