{"abi":[{"type":"function","name":"allowances","inputs":[{"name":"arg0","type":"address","internalType":"address"},{"name":"arg1","type":"address","internalType":"address"}],"outputs":[{"name":"","type":"uint256","internalType":"uint256"}],"stateMutability":"view"},{"type":"function","name":"getAllowance","inputs":[{"name":"owner","type":"address","internalType":"address"},{"name":"spender","type":"address","internalType":"address"}],"outputs":[{"name":"","type":"uint256","internalType":"uint256"}],"stateMutability":"view"},{"type":"function","name":"getMatrix","inputs":[{"name":"row","type":"uint256","internalType":"uint256"},{"name":"col","type":"uint256","internalType":"uint256"}],"outputs":[{"name":"","type":"uint256","internalType":"uint256"}],"stateMutability":"view"},{"type":"function","name":"hasPermission","inputs":[{"name":"user","type":"address","internalType":"address"},{"name":"resource","type":"address","internalType":"address"},{"name":"action","type":"uint256","internalType":"uint256"}],"outputs":[{"name":"","type":"bool","internalType":"bool"}],"stateMutability":"view"},{"type":"function","name":"increaseAllowance","inputs":[{"name":"owner","type":"address","internalType":"address"},{"name":"spender","type":"address","internalType":"address"},{"name":"addedValue","type":"uint256","internalType":"uint256"}],"outputs":[],"stateMutability":"nonpayable"},{"type":"function","name":"matrix","inputs":[{"name":"arg0","type":"uint256","internalType":"uint256"},{"name":"arg1","type":"uint256","internalType":"uint256"}],"outputs":[{"name":"","type":"uint256","internalType":"uint256"}],"stateMutability":"view"},{"type":"function","name":"permissions","inputs":[{"name":"arg0","type":"address","internalType":"address"},{"name":"arg1","type":"address","internalType":"address"},{"name":"arg2","type":"uint256","internalType":"uint256"}],"outputs":[{"name":"","type":"bool","internalType":"bool"}],"stateMutability":"view"},{"type":"function","name":"setAllowance","inputs":[{"name":"owner","type":"address","internalType":"address"},{"name":"spender","type":"address","internalType":"address"},{"name":"amount","type":"uint256","internalType":"uint256"}],"outputs":[],"stateMutability":"nonpayable"},{"type":"function","name":"setMatrix","inputs":[{"name":"row","type":"uint256","internalType":"uint256"},{"name":"col","type":"uint256","internalType":"uint256"},{"name":"value","type":"uint256","internalType":"uint256"}],"outputs":[],"stateMutability":"nonpayable"},{"type":"function","name":"setPermission","inputs":[{"name":"user","type":"address","internalType":"address"},{"name":"resource","type":"address","internalType":"address"},{"name":"action","type":"uint256","internalType":"uint256"},{"name":"allowed","type":"bool","internalType":"bool"}],"outputs":[],"stateMutability":"nonpayable"}],"bytecode":{"object":"0x61028180600a5f395ff35f3560e01c806355b6ed5c146074578063a5f030741460a0578063d9a38d641460d9578063da46098c146101065780630af4187d146101335780636c43a2ca1461016057806369230e4b146101ad57806332b880d9146101db578063f551f042146102095780638b01813d146102435761027d565b503415607e575f5ffd5b5b6004355f525f60205260405f206024355f5260205260405f20545f5260205ff35b50341560aa575f5ffd5b5b6004355f52600160205260405f206024355f5260205260405f206044355f5260205260405f20545f5260205ff35b50341560e3575f5ffd5b5b6004355f52600260205260405f206024355f5260205260405f20545f5260205ff35b503415610111575f5ffd5b5b6004355f525f60205260405f206024355f5260205260405f20604435815550005b50341561013e575f5ffd5b5b6004355f525f60205260405f206024355f5260205260405f20545f5260205ff35b50341561016b575f5ffd5b5b6004355f525f60205260405f206024355f5260205260405f2054604435810190506004355f525f60205260405f206024355f5260205260405f208181555050005b5034156101b8575f5ffd5b5b6004355f52600260205260405f206024355f5260205260405f20604435815550005b5034156101e6575f5ffd5b5b6004355f52600260205260405f206024355f5260205260405f20545f5260205ff35b503415610214575f5ffd5b5b6004355f52600160205260405f206024355f5260205260405f206044355f5260205260405f20606435815550005b50341561024e575f5ffd5b5b6004355f52600160205260405f206024355f5260205260405f206044355f5260205260405f20545f5260205ff35b5f5ffd","linkReferences":{}},"methodIdentifiers":{},"id":2}