{"abi":[{"type":"function","name":"addressMap","inputs":[{"name":"arg0","type":"address","internalType":"address"}],"outputs":[{"name":"","type":"uint256","internalType":"uint256"}],"stateMutability":"view"},{"type":"function","name":"allowances","inputs":[{"name":"arg0","type":"address","internalType":"address"},{"name":"arg1","type":"address","internalType":"address"}],"outputs":[{"name":"","type":"uint256","internalType":"uint256"}],"stateMutability":"view"},{"type":"function","name":"bytes32Map","inputs":[{"name":"arg0","type":"bytes32","internalType":"bytes32"}],"outputs":[{"name":"","type":"uint256","internalType":"uint256"}],"stateMutability":"view"},{"type":"function","name":"getAddressZero","inputs":[],"outputs":[{"name":"","type":"uint256","internalType":"uint256"}],"stateMutability":"view"},{"type":"function","name":"getAllowance","inputs":[{"name":"owner","type":"address","internalType":"address"},{"name":"spender","type":"address","internalType":"address"}],"outputs":[{"name":"","type":"uint256","internalType":"uint256"}],"stateMutability":"view"},{"type":"function","name":"getAllowanceZeroAddresses","inputs":[],"outputs":[{"name":"","type":"uint256","internalType":"uint256"}],"stateMutability":"view"},{"type":"function","name":"getBytes32Zero","inputs":[],"outputs":[{"name":"","type":"uint256","internalType":"uint256"}],"stateMutability":"view"},{"type":"function","name":"getKey","inputs":[{"name":"k","type":"uint256","internalType":"uint256"}],"outputs":[{"name":"","type":"uint256","internalType":"uint256"}],"stateMutability":"view"},{"type":"function","name":"getMatrixCell","inputs":[{"name":"row","type":"uint256","internalType":"uint256"},{"name":"col","type":"uint256","internalType":"uint256"}],"outputs":[{"name":"","type":"uint256","internalType":"uint256"}],"stateMutability":"view"},{"type":"function","name":"getMatrixCorner","inputs":[{"name":"corner","type":"uint256","internalType":"uint256"}],"outputs":[{"name":"","type":"uint256","internalType":"uint256"}],"stateMutability":"view"},{"type":"function","name":"getMaxKey","inputs":[],"outputs":[{"name":"","type":"uint256","internalType":"uint256"}],"stateMutability":"view"},{"type":"function","name":"getUnsetKey","inputs":[{"name":"k","type":"uint256","internalType":"uint256"}],"outputs":[{"name":"","type":"uint256","internalType":"uint256"}],"stateMutability":"view"},{"type":"function","name":"getUnsetNestedKey","inputs":[{"name":"a","type":"address","internalType":"address"},{"name":"b","type":"address","internalType":"address"}],"outputs":[{"name":"","type":"uint256","internalType":"uint256"}],"stateMutability":"view"},{"type":"function","name":"getZeroKey","inputs":[],"outputs":[{"name":"","type":"uint256","internalType":"uint256"}],"stateMutability":"view"},{"type":"function","name":"incrementKey","inputs":[{"name":"k","type":"uint256","internalType":"uint256"}],"outputs":[],"stateMutability":"nonpayable"},{"type":"function","name":"matrix","inputs":[{"name":"arg0","type":"uint256","internalType":"uint256"},{"name":"arg1","type":"uint256","internalType":"uint256"}],"outputs":[{"name":"","type":"uint256","internalType":"uint256"}],"stateMutability":"view"},{"type":"function","name":"overwriteKey","inputs":[{"name":"k","type":"uint256","internalType":"uint256"},{"name":"v1","type":"uint256","internalType":"uint256"},{"name":"v2","type":"uint256","internalType":"uint256"}],"outputs":[],"stateMutability":"nonpayable"},{"type":"function","name":"setAddressZero","inputs":[{"name":"value","type":"uint256","internalType":"uint256"}],"outputs":[],"stateMutability":"nonpayable"},{"type":"function","name":"setAllowance","inputs":[{"name":"owner","type":"address","internalType":"address"},{"name":"spender","type":"address","internalType":"address"},{"name":"amount","type":"uint256","internalType":"uint256"}],"outputs":[],"stateMutability":"nonpayable"},{"type":"function","name":"setAllowanceZeroAddresses","inputs":[{"name":"amount","type":"uint256","internalType":"uint256"}],"outputs":[],"stateMutability":"nonpayable"},{"type":"function","name":"setBytes32Zero","inputs":[{"name":"value","type":"uint256","internalType":"uint256"}],"outputs":[],"stateMutability":"nonpayable"},{"type":"function","name":"setMatrixCell","inputs":[{"name":"row","type":"uint256","internalType":"uint256"},{"name":"col","type":"uint256","internalType":"uint256"},{"name":"value","type":"uint256","internalType":"uint256"}],"outputs":[],"stateMutability":"nonpayable"},{"type":"function","name":"setMatrixCorners","inputs":[{"name":"value","type":"uint256","internalType":"uint256"}],"outputs":[],"stateMutability":"nonpayable"},{"type":"function","name":"setMaxKey","inputs":[{"name":"value","type":"uint256","internalType":"uint256"}],"outputs":[],"stateMutability":"nonpayable"},{"type":"function","name":"setMultipleKeys","inputs":[{"name":"k1","type":"uint256","internalType":"uint256"},{"name":"v1","type":"uint256","internalType":"uint256"},{"name":"k2","type":"uint256","internalType":"uint256"},{"name":"v2","type":"uint256","internalType":"uint256"}],"outputs":[],"stateMutability":"nonpayable"},{"type":"function","name":"setZeroKey","inputs":[{"name":"value","type":"uint256","internalType":"uint256"}],"outputs":[],"stateMutability":"nonpayable"},{"type":"function","name":"uintMap","inputs":[{"name":"arg0","type":"uint256","internalType":"uint256"}],"outputs":[{"name":"","type":"uint256","internalType":"uint256"}],"stateMutability":"view"}],"bytecode":{"object":"0x61065280600a5f395ff35f3560e01c80631a5931d614610132578063da5633ef146101535780639a94947b1461017557806355b6ed5c14610197578063d9a38d64146101c55780632ac3bb88146101f3578063afa22fea146102125780632a924442146102315780634d420b8d146102515780636561f28014610271578063bc53a79414610291578063474df6fa146102b1578063fb37f3c2146102d15780630440dd5a146102f1578063bb5b27e114610325578063da46098c146103465780630af4187d1461037457806383213ee3146103a257806301b48c78146103cc5780630a1ea307146103f657806387993e231461042457806365d5559e14610452578063a255e9da146104e3578063b3f40a4a1461059757806353176a21146105cb57806389395b7e146105ff5780632b89b27f146106205761064e565b50341561013d575f5ffd5b5b6004355f525f60205260405f20545f5260205ff35b50341561015e575f5ffd5b5b6004355f52600160205260405f20545f5260205ff35b503415610180575f5ffd5b5b6004355f52600260205260405f20545f5260205ff35b5034156101a2575f5ffd5b5b6004355f52600360205260405f206024355f5260205260405f20545f5260205ff35b5034156101d0575f5ffd5b5b6004355f52600460205260405f206024355f5260205260405f20545f5260205ff35b5034156101fe575f5ffd5b5b5f5f525f60205260405f20600435815550005b50341561021d575f5ffd5b5b5f5f525f60205260405f20545f5260205ff35b50341561023c575f5ffd5b5b5f515f525f60205260405f20600435815550005b50341561025c575f5ffd5b5b5f515f525f60205260405f20545f5260205ff35b50341561027c575f5ffd5b5b5f5f52600160205260405f20600435815550005b50341561029c575f5ffd5b5b5f5f52600160205260405f20545f5260205ff35b5034156102bc575f5ffd5b5b5f5f52600260205260405f20600435815550005b5034156102dc575f5ffd5b5b5f5f52600260205260405f20545f5260205ff35b5034156102fc575f5ffd5b5b6004355f525f60205260405f206024358155506044355f525f60205260405f20606435815550005b503415610330575f5ffd5b5b6004355f525f60205260405f20545f5260205ff35b503415610351575f5ffd5b5b6004355f52600360205260405f206024355f5260205260405f20604435815550005b50341561037f575f5ffd5b5b6004355f52600360205260405f206024355f5260205260405f20545f5260205ff35b5034156103ad575f5ffd5b5b5f5f52600360205260405f205f5f5260205260405f20600435815550005b5034156103d7575f5ffd5b5b5f5f52600360205260405f205f5f5260205260405f20545f5260205ff35b503415610401575f5ffd5b5b6004355f52600460205260405f206024355f5260205260405f20604435815550005b50341561042f575f5ffd5b5b6004355f52600460205260405f206024355f5260205260405f20545f5260205ff35b50341561045d575f5ffd5b5b5f5f52600460205260405f205f5f5260205260405f206004358155506001600435015f5f52600460205260405f205f515f5260205260405f2081815550506002600435015f515f52600460205260405f205f5f5260205260405f2081815550506003600435015f515f52600460205260405f205f515f5260205260405f208181555050005b5034156104ee575f5ffd5b5b5f600435146104fd5761051b565b5f5f52600460205260405f205f5f5260205260405f20545f5260205ff35b60016004351461052a57610549565b5f5f52600460205260405f205f515f5260205260405f20545f5260205ff35b60026004351461055857610577565b5f515f52600460205260405f205f5f5260205260405f20545f5260205ff35b5f515f52600460205260405f205f515f5260205260405f20545f5260205ff35b5034156105a2575f5ffd5b5b6004355f525f60205260405f206024358155506004355f525f60205260405f20604435815550005b5034156105d6575f5ffd5b5b6004355f525f60205260405f20546001810190506004355f525f60205260405f208181555050005b50341561060a575f5ffd5b5b6004355f525f60205260405f20545f5260205ff35b50341561062b575f5ffd5b5b6004355f52600360205260405f206024355f5260205260405f20545f5260205ff35b5f5ffd","linkReferences":{}},"methodIdentifiers":{},"id":1}