{"abi":[{"type":"function","name":"addMax","inputs":[],"outputs":[{"name":"","type":"uint256","internalType":"uint256"}],"stateMutability":"pure"},{"type":"function","name":"addZero","inputs":[{"name":"a","type":"uint256","internalType":"uint256"}],"outputs":[{"name":"","type":"uint256","internalType":"uint256"}],"stateMutability":"pure"},{"type":"function","name":"divOne","inputs":[{"name":"a","type":"uint256","internalType":"uint256"}],"outputs":[{"name":"","type":"uint256","internalType":"uint256"}],"stateMutability":"pure"},{"type":"function","name":"identityBool","inputs":[{"name":"b","type":"bool","internalType":"bool"}],"outputs":[{"name":"","type":"bool","internalType":"bool"}],"stateMutability":"pure"},{"type":"function","name":"maxInt","inputs":[],"outputs":[{"name":"","type":"int256","internalType":"int256"}],"stateMutability":"pure"},{"type":"function","name":"maxUint8","inputs":[],"outputs":[{"name":"","type":"uint8","internalType":"uint8"}],"stateMutability":"pure"},{"type":"function","name":"minInt","inputs":[],"outputs":[{"name":"","type":"int256","internalType":"int256"}],"stateMutability":"pure"},{"type":"function","name":"modSame","inputs":[{"name":"a","type":"uint256","internalType":"uint256"}],"outputs":[{"name":"","type":"uint256","internalType":"uint256"}],"stateMutability":"pure"},{"type":"function","name":"mulOne","inputs":[{"name":"a","type":"uint256","internalType":"uint256"}],"outputs":[{"name":"","type":"uint256","internalType":"uint256"}],"stateMutability":"pure"},{"type":"function","name":"mulZero","inputs":[{"name":"a","type":"uint256","internalType":"uint256"}],"outputs":[{"name":"","type":"uint256","internalType":"uint256"}],"stateMutability":"pure"},{"type":"function","name":"negateBool","inputs":[{"name":"b","type":"bool","internalType":"bool"}],"outputs":[{"name":"","type":"bool","internalType":"bool"}],"stateMutability":"pure"},{"type":"function","name":"subSame","inputs":[{"name":"a","type":"uint256","internalType":"uint256"}],"outputs":[{"name":"","type":"uint256","internalType":"uint256"}],"stateMutability":"pure"}],"bytecode":{"object":"0x61021e80600a5f395ff3608060405236600d5761021a565b5f3560e01c8063c50bdb1e146097578063bab054231460ca578063625e36f51460e1578063255c68491460f857806399cea13c14610111578063ee86ee111461012a578063d9b121bb146101425780637a4c2571146101705780637e4e14cc146101a457806324d02974146101d857806345b62d76146101ed578063da3f51bc146102035761021a565b50341560a1575f5ffd5b5b7fffffffffffffffffffffffffffffffffffffffffffffffffffffffffffffffff5f5260205ff35b50341560d4575f5ffd5b5b5f600435015f5260205ff35b50341560eb575f5ffd5b5b5f600435025f5260205ff35b503415610103575f5ffd5b5b6001600435025f5260205ff35b50341561011c575f5ffd5b5b6001600435045f5260205ff35b503415610135575f5ffd5b5b60043580035f5260205ff35b50341561014d575f5ffd5b5b5f6004351461015c57610164565b5f5f5260205ff35b60043580065f5260205ff35b50341561017b575f5ffd5b5b7f7fffffffffffffffffffffffffffffffffffffffffffffffffffffffffffffff5f5260205ff35b5034156101af575f5ffd5b5b7f80000000000000000000000000000000000000000000000000000000000000005f5260205ff35b5034156101e3575f5ffd5b5b60ff5f5260205ff35b5034156101f8575f5ffd5b5b6004355f5260205ff35b50341561020e575f5ffd5b5b600435155f5260205ff35b5f5ffd","linkReferences":{}},"methodIdentifiers":{},"id":0}