{"abi":[{"type":"function","name":"add","inputs":[{"name":"a","type":"uint256","internalType":"uint256"},{"name":"b","type":"uint256","internalType":"uint256"}],"outputs":[{"name":"","type":"uint256","internalType":"uint256"}],"stateMutability":"pure"},{"type":"function","name":"bitwiseAnd","inputs":[{"name":"a","type":"uint256","internalType":"uint256"},{"name":"b","type":"uint256","internalType":"uint256"}],"outputs":[{"name":"","type":"uint256","internalType":"uint256"}],"stateMutability":"pure"},{"type":"function","name":"bitwiseOr","inputs":[{"name":"a","type":"uint256","internalType":"uint256"},{"name":"b","type":"uint256","internalType":"uint256"}],"outputs":[{"name":"","type":"uint256","internalType":"uint256"}],"stateMutability":"pure"},{"type":"function","name":"deepNested","inputs":[{"name":"x","type":"uint256","internalType":"uint256"}],"outputs":[{"name":"","type":"uint256","internalType":"uint256"}],"stateMutability":"pure"},{"type":"function","name":"inner","inputs":[{"name":"x","type":"uint256","internalType":"uint256"}],"outputs":[{"name":"","type":"uint256","internalType":"uint256"}],"stateMutability":"pure"},{"type":"function","name":"mixedBitwise","inputs":[{"name":"a","type":"uint256","internalType":"uint256"},{"name":"b","type":"uint256","internalType":"uint256"}],"outputs":[{"name":"","type":"uint256","internalType":"uint256"}],"stateMutability":"view"},{"type":"function","name":"mul","inputs":[{"name":"a","type":"uint256","internalType":"uint256"},{"name":"b","type":"uint256","internalType":"uint256"}],"outputs":[{"name":"","type":"uint256","internalType":"uint256"}],"stateMutability":"pure"},{"type":"function","name":"nested2","inputs":[{"name":"a","type":"uint256","internalType":"uint256"},{"name":"b","type":"uint256","internalType":"uint256"},{"name":"c","type":"uint256","internalType":"uint256"}],"outputs":[{"name":"","type":"uint256","internalType":"uint256"}],"stateMutability":"pure"},{"type":"function","name":"nested3","inputs":[{"name":"a","type":"uint256","internalType":"uint256"},{"name":"b","type":"uint256","internalType":"uint256"},{"name":"c","type":"uint256","internalType":"uint256"},{"name":"d","type":"uint256","internalType":"uint256"}],"outputs":[{"name":"","type":"uint256","internalType":"uint256"}],"stateMutability":"pure"},{"type":"function","name":"nestedShifts","inputs":[{"name":"x","type":"uint256","internalType":"uint256"}],"outputs":[{"name":"","type":"uint256","internalType":"uint256"}],"stateMutability":"view"},{"type":"function","name":"outer","inputs":[{"name":"x","type":"uint256","internalType":"uint256"}],"outputs":[{"name":"","type":"uint256","internalType":"uint256"}],"stateMutability":"view"},{"type":"function","name":"shiftLeft","inputs":[{"name":"a","type":"uint256","internalType":"uint256"},{"name":"bits","type":"uint256","internalType":"uint256"}],"outputs":[{"name":"","type":"uint256","internalType":"uint256"}],"stateMutability":"pure"},{"type":"function","name":"shiftRight","inputs":[{"name":"a","type":"uint256","internalType":"uint256"},{"name":"bits","type":"uint256","internalType":"uint256"}],"outputs":[{"name":"","type":"uint256","internalType":"uint256"}],"stateMutability":"pure"}],"bytecode":{"object":"0x6080604052348015600e575f5ffd5b50610c048061001c5f395ff3fe608060405234801561000f575f5ffd5b50600436106100cd575f3560e01c806394209e431161008a578063b9b1961311610064578063b9b1961314610281578063c715a02a146102b1578063c8a4ac9c146102e1578063eecfedef14610311576100cd565b806394209e43146101f1578063996a4b0f14610221578063a589d21214610251576100cd565b806301a9b8ed146100d157806314ca20b4146101015780631685fa98146101315780634e220aab14610161578063643a536614610191578063771602f7146101c1575b5f5ffd5b6100eb60048036038101906100e691906107c0565b610341565b6040516100f8919061080d565b60405180910390f35b61011b60048036038101906101169190610826565b61034d565b604051610128919061080d565b60405180910390f35b61014b600480360381019061014691906107c0565b610374565b604051610158919061080d565b60405180910390f35b61017b6004803603810190610176919061088a565b610381565b604051610188919061080d565b60405180910390f35b6101ab60048036038101906101a691906107c0565b61039e565b6040516101b8919061080d565b60405180910390f35b6101db60048036038101906101d691906107c0565b6103aa565b6040516101e8919061080d565b60405180910390f35b61020b600480360381019061020691906108da565b6103bf565b604051610218919061080d565b60405180910390f35b61023b600480360381019061023691906107c0565b6104b6565b604051610248919061080d565b60405180910390f35b61026b600480360381019061026691906107c0565b61062d565b604051610278919061080d565b60405180910390f35b61029b600480360381019061029691906108da565b61063a565b6040516102a8919061080d565b60405180910390f35b6102cb60048036038101906102c691906108da565b610661565b6040516102d8919061080d565b60405180910390f35b6102fb60048036038101906102f691906107c0565b610676565b604051610308919061080d565b60405180910390f35b61032b600480360381019061032691906108da565b61068b565b604051610338919061080d565b60405180910390f35b5f818317905092915050565b5f61036a61035b86866103aa565b61036585856103aa565b6103aa565b9050949350505050565b5f8183901c905092915050565b5f61039561038f8585610676565b836103aa565b90509392505050565b5f818316905092915050565b5f81836103b79190610932565b905092915050565b5f3073ffffffffffffffffffffffffffffffffffffffff1663c715a02a3073ffffffffffffffffffffffffffffffffffffffff1663c715a02a856040518263ffffffff1660e01b8152600401610415919061080d565b602060405180830381865afa158015610430573d5f5f3e3d5ffd5b505050506040513d601f19601f820116820180604052508101906104549190610979565b6040518263ffffffff1660e01b8152600401610470919061080d565b602060405180830381865afa15801561048b573d5f5f3e3d5ffd5b505050506040513d601f19601f820116820180604052508101906104af9190610979565b9050919050565b5f3073ffffffffffffffffffffffffffffffffffffffff166301a9b8ed3073ffffffffffffffffffffffffffffffffffffffff1663643a53668660f06040518363ffffffff1660e01b815260040161050f9291906109e6565b602060405180830381865afa15801561052a573d5f5f3e3d5ffd5b505050506040513d601f19601f8201168201806040525081019061054e9190610979565b3073ffffffffffffffffffffffffffffffffffffffff1663643a536686600f6040518363ffffffff1660e01b815260040161058a929190610a46565b602060405180830381865afa1580156105a5573d5f5f3e3d5ffd5b505050506040513d601f19601f820116820180604052508101906105c99190610979565b6040518363ffffffff1660e01b81526004016105e6929190610a6d565b602060405180830381865afa158015610601573d5f5f3e3d5ffd5b505050506040513d601f19601f820116820180604052508101906106259190610979565b905092915050565b5f8183901b905092915050565b5f61065a61065361064c8460016103aa565b60026103aa565b60036103aa565b9050919050565b5f60028261066f9190610a94565b9050919050565b5f81836106839190610a94565b905092915050565b5f3073ffffffffffffffffffffffffffffffffffffffff16631685fa983073ffffffffffffffffffffffffffffffffffffffff1663a589d212600160086040518363ffffffff1660e01b81526004016106e5929190610b47565b602060405180830381865afa158015610700573d5f5f3e3d5ffd5b505050506040513d601f19601f820116820180604052508101906107249190610979565b60046040518363ffffffff1660e01b8152600401610743929190610ba7565b602060405180830381865afa15801561075e573d5f5f3e3d5ffd5b505050506040513d601f19601f820116820180604052508101906107829190610979565b9050919050565b5f5ffd5b5f819050919050565b61079f8161078d565b81146107a9575f5ffd5b50565b5f813590506107ba81610796565b92915050565b5f5f604083850312156107d6576107d5610789565b5b5f6107e3858286016107ac565b92505060206107f4858286016107ac565b9150509250929050565b6108078161078d565b82525050565b5f6020820190506108205f8301846107fe565b92915050565b5f5f5f5f6080858703121561083e5761083d610789565b5b5f61084b878288016107ac565b945050602061085c878288016107ac565b935050604061086d878288016107ac565b925050606061087e878288016107ac565b91505092959194509250565b5f5f5f606084860312156108a1576108a0610789565b5b5f6108ae868287016107ac565b93505060206108bf868287016107ac565b92505060406108d0868287016107ac565b9150509250925092565b5f602082840312156108ef576108ee610789565b5b5f6108fc848285016107ac565b91505092915050565b7f4e487b71000000000000000000000000000000000000000000000000000000005f52601160045260245ffd5b5f61093c8261078d565b91506109478361078d565b925082820190508082111561095f5761095e610905565b5b92915050565b5f8151905061097381610796565b92915050565b5f6020828403121561098e5761098d610789565b5b5f61099b84828501610965565b91505092915050565b5f819050919050565b5f819050919050565b5f6109d06109cb6109c6846109a4565b6109ad565b61078d565b9050919050565b6109e0816109b6565b82525050565b5f6040820190506109f95f8301856107fe565b610a0660208301846109d7565b9392505050565b5f819050919050565b5f610a30610a2b610a2684610a0d565b6109ad565b61078d565b9050919050565b610a4081610a16565b82525050565b5f604082019050610a595f8301856107fe565b610a666020830184610a37565b9392505050565b5f604082019050610a805f8301856107fe565b610a8d60208301846107fe565b9392505050565b5f610a9e8261078d565b9150610aa98361078d565b9250828202610ab78161078d565b91508282048414831517610ace57610acd610905565b5b5092915050565b5f819050919050565b5f610af8610af3610aee84610ad5565b6109ad565b61078d565b9050919050565b610b0881610ade565b82525050565b5f819050919050565b5f610b31610b2c610b2784610b0e565b6109ad565b61078d565b9050919050565b610b4181610b17565b82525050565b5f604082019050610b5a5f830185610aff565b610b676020830184610b38565b9392505050565b5f819050919050565b5f610b91610b8c610b8784610b6e565b6109ad565b61078d565b9050919050565b610ba181610b77565b82525050565b5f604082019050610bba5f8301856107fe565b610bc76020830184610b98565b939250505056fea2646970667358221220d606944e0d36f1454dc872fd9ca5a005460dcaaa2e87e5b4a6ccb4c63e04aa6164736f6c634300081c0033","linkReferences":{}},"methodIdentifiers":{"add(uint256,uint256)":"771602f7","bitwiseAnd(uint256,uint256)":"643a5366","bitwiseOr(uint256,uint256)":"01a9b8ed","deepNested(uint256)":"b9b19613","inner(uint256)":"c715a02a","mixedBitwise(uint256,uint256)":"996a4b0f","mul(uint256,uint256)":"c8a4ac9c","nested2(uint256,uint256,uint256)":"4e220aab","nested3(uint256,uint256,uint256,uint256)":"14ca20b4","nestedShifts(uint256)":"eecfedef","outer(uint256)":"94209e43","shiftLeft(uint256,uint256)":"a589d212","shiftRight(uint256,uint256)":"1685fa98"},"id":1}