{"abi":[{"type":"function","name":"earlyReturn","inputs":[{"name":"x","type":"uint256","internalType":"uint256"}],"outputs":[{"name":"","type":"uint256","internalType":"uint256"}],"stateMutability":"pure"},{"type":"function","name":"forLoopProduct","inputs":[{"name":"n","type":"uint256","internalType":"uint256"}],"outputs":[{"name":"","type":"uint256","internalType":"uint256"}],"stateMutability":"pure"},{"type":"function","name":"forLoopSum","inputs":[{"name":"n","type":"uint256","internalType":"uint256"}],"outputs":[{"name":"","type":"uint256","internalType":"uint256"}],"stateMutability":"pure"},{"type":"function","name":"forWithBreak","inputs":[{"name":"n","type":"uint256","internalType":"uint256"}],"outputs":[{"name":"","type":"uint256","internalType":"uint256"}],"stateMutability":"pure"},{"type":"function","name":"forWithContinue","inputs":[{"name":"n","type":"uint256","internalType":"uint256"}],"outputs":[{"name":"","type":"uint256","internalType":"uint256"}],"stateMutability":"pure"},{"type":"function","name":"ifElse","inputs":[{"name":"x","type":"uint256","internalType":"uint256"}],"outputs":[{"name":"","type":"uint256","internalType":"uint256"}],"stateMutability":"pure"},{"type":"function","name":"ifElseIf","inputs":[{"name":"x","type":"uint256","internalType":"uint256"}],"outputs":[{"name":"","type":"uint256","internalType":"uint256"}],"stateMutability":"pure"},{"type":"function","name":"nestedForLoop","inputs":[{"name":"rows","type":"uint256","internalType":"uint256"},{"name":"cols","type":"uint256","internalType":"uint256"}],"outputs":[{"name":"","type":"uint256","internalType":"uint256"}],"stateMutability":"pure"},{"type":"function","name":"nestedIf","inputs":[{"name":"x","type":"uint256","internalType":"uint256"},{"name":"y","type":"uint256","internalType":"uint256"}],"outputs":[{"name":"","type":"uint256","internalType":"uint256"}],"stateMutability":"pure"},{"type":"function","name":"nestedLoopBreak","inputs":[{"name":"limit","type":"uint256","internalType":"uint256"}],"outputs":[{"name":"","type":"uint256","internalType":"uint256"}],"stateMutability":"pure"},{"type":"function","name":"nestedTernary","inputs":[{"name":"x","type":"uint256","internalType":"uint256"}],"outputs":[{"name":"","type":"uint256","internalType":"uint256"}],"stateMutability":"pure"},{"type":"function","name":"simpleIf","inputs":[{"name":"x","type":"uint256","internalType":"uint256"}],"outputs":[{"name":"","type":"uint256","internalType":"uint256"}],"stateMutability":"pure"},{"type":"function","name":"singleIteration","inputs":[],"outputs":[{"name":"","type":"uint256","internalType":"uint256"}],"stateMutability":"pure"},{"type":"function","name":"ternary","inputs":[{"name":"x","type":"uint256","internalType":"uint256"}],"outputs":[{"name":"","type":"uint256","internalType":"uint256"}],"stateMutability":"pure"},{"type":"function","name":"whileLoopCountdown","inputs":[{"name":"n","type":"uint256","internalType":"uint256"}],"outputs":[{"name":"","type":"uint256","internalType":"uint256"}],"stateMutability":"pure"},{"type":"function","name":"whileLoopSum","inputs":[{"name":"n","type":"uint256","internalType":"uint256"}],"outputs":[{"name":"","type":"uint256","internalType":"uint256"}],"stateMutability":"pure"},{"type":"function","name":"whileWithBreak","inputs":[{"name":"target","type":"uint256","internalType":"uint256"}],"outputs":[{"name":"","type":"uint256","internalType":"uint256"}],"stateMutability":"pure"},{"type":"function","name":"zeroIterations","inputs":[],"outputs":[{"name":"","type":"uint256","internalType":"uint256"}],"stateMutability":"pure"}],"bytecode":{"object":"0x6080604052348015600e575f5ffd5b50610af28061001c5f395ff3fe608060405234801561000f575f5ffd5b5060043610610114575f3560e01c8063a462fd3d116100a0578063c4e97d1b1161006f578063c4e97d1b14610376578063d410da27146103a6578063d58eea7a146103d6578063e845712614610406578063e92fb14b1461043657610114565b8063a462fd3d146102b6578063afa8b07e146102e6578063b055da2f14610316578063b77fd46e1461034657610114565b806355278c5b116100e757806355278c5b146101c6578063635adfb3146101f657806370602e8a14610226578063950b9954146102565780639a2d8f181461028657610114565b806305aabe67146101185780630718e2f11461013657806338b85e0b14610166578063403ae60f14610196575b5f5ffd5b610120610454565b60405161012d9190610894565b60405180910390f35b610150600480360381019061014b91906108db565b61048a565b60405161015d9190610894565b60405180910390f35b610180600480360381019061017b91906108db565b6104c8565b60405161018d9190610894565b60405180910390f35b6101b060048036038101906101ab91906108db565b610508565b6040516101bd9190610894565b60405180910390f35b6101e060048036038101906101db91906108db565b610535565b6040516101ed9190610894565b60405180910390f35b610210600480360381019061020b91906108db565b610552565b60405161021d9190610894565b60405180910390f35b610240600480360381019061023b91906108db565b61059e565b60405161024d9190610894565b60405180910390f35b610270600480360381019061026b91906108db565b6105ba565b60405161027d9190610894565b60405180910390f35b6102a0600480360381019061029b91906108db565b6105d7565b6040516102ad9190610894565b60405180910390f35b6102d060048036038101906102cb9190610906565b61063c565b6040516102dd9190610894565b60405180910390f35b61030060048036038101906102fb9190610906565b61067e565b60405161030d9190610894565b60405180910390f35b610330600480360381019061032b91906108db565b6106d2565b60405161033d9190610894565b60405180910390f35b610360600480360381019061035b91906108db565b610725565b60405161036d9190610894565b60405180910390f35b610390600480360381019061038b91906108db565b61075c565b60405161039d9190610894565b60405180910390f35b6103c060048036038101906103bb91906108db565b610796565b6040516103cd9190610894565b60405180910390f35b6103f060048036038101906103eb91906108db565b6107e4565b6040516103fd9190610894565b60405180910390f35b610420600480360381019061041b91906108db565b610816565b60405161042d9190610894565b60405180910390f35b61043e610845565b60405161044b9190610894565b60405180910390f35b5f5f5f90505f5f90505b5f811015610482576001826104739190610971565b9150808060010191505061045e565b508091505090565b5f5f5f90505f5f90505b838110156104be5780826104a89190610971565b91506001816104b79190610971565b9050610494565b8192505050919050565b5f5f5f90505f5f90505b60648110156104fe57838110156104fe5780826104ef9190610971565b915080806001019150506104d2565b5080915050919050565b5f6064821161052857600a8211610520576001610523565b60025b61052b565b60035b60ff169050919050565b5f600a8211610545576032610548565b60645b60ff169050919050565b5f5f5f90505f5f90505b83811015610594575f60028261057291906109d1565b03156105875780826105849190610971565b91505b808060010191505061055c565b5080915050919050565b5f600a8211156105b157600190506105b5565b5f90505b919050565b5f600a8211156105cd57600290506105d2565b600190505b919050565b5f5f5f90505f5f90505b600a811015610632575f5f90505b600a81101561061c578483101561061c5760018361060d9190610971565b925080806001019150506105ef565b50838210156106325780806001019150506105e1565b5080915050919050565b5f600a83111561066157600a8211156106585760049050610678565b60039050610678565b600a8211156106735760029050610678565b600190505b92915050565b5f5f5f90505f5f90505b848110156106c7575f5f90505b848110156106b9576001836106aa9190610971565b92508080600101915050610695565b508080600101915050610688565b508091505092915050565b5f5f82036106e4576103e79050610720565b5f5f90505b600a81101561071b5782810361070e576064816107069190610a01565b915050610720565b80806001019150506106e9565b505f90505b919050565b5f5f5f90505f5f90505b838110156107525780826107439190610971565b9150808060010191505061072f565b5080915050919050565b5f5f5f90505b5f83111561078d576001816107779190610971565b90506001836107869190610a42565b9250610762565b80915050919050565b5f5f82036107a6575f90506107df565b5f600190505f600190505b8381116107d95780826107c49190610a01565b915080806107d190610a75565b9150506107b1565b50809150505b919050565b5f5f5f90505b60011561080d578281101561080d576001816108069190610971565b90506107ea565b80915050919050565b5f60648211156108295760039050610840565b600a82111561083b5760029050610840565b600190505b919050565b5f5f5f90505f5f90505b600181101561087457600a826108659190610971565b9150808060010191505061084f565b508091505090565b5f819050919050565b61088e8161087c565b82525050565b5f6020820190506108a75f830184610885565b92915050565b5f5ffd5b6108ba8161087c565b81146108c4575f5ffd5b50565b5f813590506108d5816108b1565b92915050565b5f602082840312156108f0576108ef6108ad565b5b5f6108fd848285016108c7565b91505092915050565b5f5f6040838503121561091c5761091b6108ad565b5b5f610929858286016108c7565b925050602061093a858286016108c7565b9150509250929050565b7f4e487b71000000000000000000000000000000000000000000000000000000005f52601160045260245ffd5b5f61097b8261087c565b91506109868361087c565b925082820190508082111561099e5761099d610944565b5b92915050565b7f4e487b71000000000000000000000000000000000000000000000000000000005f52601260045260245ffd5b5f6109db8261087c565b91506109e68361087c565b9250826109f6576109f56109a4565b5b828206905092915050565b5f610a0b8261087c565b9150610a168361087c565b9250828202610a248161087c565b91508282048414831517610a3b57610a3a610944565b5b5092915050565b5f610a4c8261087c565b9150610a578361087c565b9250828203905081811115610a6f57610a6e610944565b5b92915050565b5f610a7f8261087c565b91507fffffffffffffffffffffffffffffffffffffffffffffffffffffffffffffffff8203610ab157610ab0610944565b5b60018201905091905056fea2646970667358221220cb2f0fa247f38e4592a8658f0fb5206af17f5ab1cae589d32473c6aac8c6670564736f6c634300081c0033","linkReferences":{}},"methodIdentifiers":{"earlyReturn(uint256)":"b055da2f","forLoopProduct(uint256)":"d410da27","forLoopSum(uint256)":"b77fd46e","forWithBreak(uint256)":"38b85e0b","forWithContinue(uint256)":"635adfb3","ifElse(uint256)":"950b9954","ifElseIf(uint256)":"e8457126","nestedForLoop(uint256,uint256)":"afa8b07e","nestedIf(uint256,uint256)":"a462fd3d","nestedLoopBreak(uint256)":"9a2d8f18","nestedTernary(uint256)":"403ae60f","simpleIf(uint256)":"70602e8a","singleIteration()":"e92fb14b","ternary(uint256)":"55278c5b","whileLoopCountdown(uint256)":"c4e97d1b","whileLoopSum(uint256)":"0718e2f1","whileWithBreak(uint256)":"d58eea7a","zeroIterations()":"05aabe67"},"id":1}