{"abi":[{"type":"function","name":"add","inputs":[{"name":"a","type":"uint256","internalType":"uint256"},{"name":"b","type":"uint256","internalType":"uint256"}],"outputs":[{"name":"","type":"uint256","internalType":"uint256"}],"stateMutability":"pure"},{"type":"function","name":"addAssign","inputs":[{"name":"x","type":"uint256","internalType":"uint256"}],"outputs":[],"stateMutability":"nonpayable"},{"type":"function","name":"bitwiseAnd","inputs":[{"name":"a","type":"uint256","internalType":"uint256"},{"name":"b","type":"uint256","internalType":"uint256"}],"outputs":[{"name":"","type":"uint256","internalType":"uint256"}],"stateMutability":"pure"},{"type":"function","name":"bitwiseNot","inputs":[{"name":"a","type":"uint256","internalType":"uint256"}],"outputs":[{"name":"","type":"uint256","internalType":"uint256"}],"stateMutability":"pure"},{"type":"function","name":"bitwiseOr","inputs":[{"name":"a","type":"uint256","internalType":"uint256"},{"name":"b","type":"uint256","internalType":"uint256"}],"outputs":[{"name":"","type":"uint256","internalType":"uint256"}],"stateMutability":"pure"},{"type":"function","name":"bitwiseXor","inputs":[{"name":"a","type":"uint256","internalType":"uint256"},{"name":"b","type":"uint256","internalType":"uint256"}],"outputs":[{"name":"","type":"uint256","internalType":"uint256"}],"stateMutability":"pure"},{"type":"function","name":"complexExpr","inputs":[{"name":"a","type":"uint256","internalType":"uint256"},{"name":"b","type":"uint256","internalType":"uint256"},{"name":"c","type":"uint256","internalType":"uint256"}],"outputs":[{"name":"","type":"uint256","internalType":"uint256"}],"stateMutability":"pure"},{"type":"function","name":"counter","inputs":[],"outputs":[{"name":"","type":"uint256","internalType":"uint256"}],"stateMutability":"view"},{"type":"function","name":"div","inputs":[{"name":"a","type":"uint256","internalType":"uint256"},{"name":"b","type":"uint256","internalType":"uint256"}],"outputs":[{"name":"","type":"uint256","internalType":"uint256"}],"stateMutability":"pure"},{"type":"function","name":"divAssign","inputs":[{"name":"x","type":"uint256","internalType":"uint256"}],"outputs":[],"stateMutability":"nonpayable"},{"type":"function","name":"eq","inputs":[{"name":"a","type":"uint256","internalType":"uint256"},{"name":"b","type":"uint256","internalType":"uint256"}],"outputs":[{"name":"","type":"bool","internalType":"bool"}],"stateMutability":"pure"},{"type":"function","name":"gt","inputs":[{"name":"a","type":"uint256","internalType":"uint256"},{"name":"b","type":"uint256","internalType":"uint256"}],"outputs":[{"name":"","type":"bool","internalType":"bool"}],"stateMutability":"pure"},{"type":"function","name":"gte","inputs":[{"name":"a","type":"uint256","internalType":"uint256"},{"name":"b","type":"uint256","internalType":"uint256"}],"outputs":[{"name":"","type":"bool","internalType":"bool"}],"stateMutability":"pure"},{"type":"function","name":"lt","inputs":[{"name":"a","type":"uint256","internalType":"uint256"},{"name":"b","type":"uint256","internalType":"uint256"}],"outputs":[{"name":"","type":"bool","internalType":"bool"}],"stateMutability":"pure"},{"type":"function","name":"lte","inputs":[{"name":"a","type":"uint256","internalType":"uint256"},{"name":"b","type":"uint256","internalType":"uint256"}],"outputs":[{"name":"","type":"bool","internalType":"bool"}],"stateMutability":"pure"},{"type":"function","name":"mod","inputs":[{"name":"a","type":"uint256","internalType":"uint256"},{"name":"b","type":"uint256","internalType":"uint256"}],"outputs":[{"name":"","type":"uint256","internalType":"uint256"}],"stateMutability":"pure"},{"type":"function","name":"mul","inputs":[{"name":"a","type":"uint256","internalType":"uint256"},{"name":"b","type":"uint256","internalType":"uint256"}],"outputs":[{"name":"","type":"uint256","internalType":"uint256"}],"stateMutability":"pure"},{"type":"function","name":"mulAssign","inputs":[{"name":"x","type":"uint256","internalType":"uint256"}],"outputs":[],"stateMutability":"nonpayable"},{"type":"function","name":"neq","inputs":[{"name":"a","type":"uint256","internalType":"uint256"},{"name":"b","type":"uint256","internalType":"uint256"}],"outputs":[{"name":"","type":"bool","internalType":"bool"}],"stateMutability":"pure"},{"type":"function","name":"postDecrement","inputs":[],"outputs":[{"name":"","type":"uint256","internalType":"uint256"}],"stateMutability":"nonpayable"},{"type":"function","name":"postIncrement","inputs":[],"outputs":[{"name":"","type":"uint256","internalType":"uint256"}],"stateMutability":"nonpayable"},{"type":"function","name":"preDecrement","inputs":[],"outputs":[{"name":"","type":"uint256","internalType":"uint256"}],"stateMutability":"nonpayable"},{"type":"function","name":"preIncrement","inputs":[],"outputs":[{"name":"","type":"uint256","internalType":"uint256"}],"stateMutability":"nonpayable"},{"type":"function","name":"resetCounter","inputs":[],"outputs":[],"stateMutability":"nonpayable"},{"type":"function","name":"resetValue","inputs":[],"outputs":[],"stateMutability":"nonpayable"},{"type":"function","name":"setCounter","inputs":[{"name":"val","type":"uint256","internalType":"uint256"}],"outputs":[],"stateMutability":"nonpayable"},{"type":"function","name":"setValue","inputs":[{"name":"x","type":"uint256","internalType":"uint256"}],"outputs":[],"stateMutability":"nonpayable"},{"type":"function","name":"shiftLeft","inputs":[{"name":"a","type":"uint256","internalType":"uint256"},{"name":"bits","type":"uint256","internalType":"uint256"}],"outputs":[{"name":"","type":"uint256","internalType":"uint256"}],"stateMutability":"pure"},{"type":"function","name":"shiftRight","inputs":[{"name":"a","type":"uint256","internalType":"uint256"},{"name":"bits","type":"uint256","internalType":"uint256"}],"outputs":[{"name":"","type":"uint256","internalType":"uint256"}],"stateMutability":"pure"},{"type":"function","name":"signedAdd","inputs":[{"name":"a","type":"int256","internalType":"int256"},{"name":"b","type":"int256","internalType":"int256"}],"outputs":[{"name":"","type":"int256","internalType":"int256"}],"stateMutability":"pure"},{"type":"function","name":"signedDiv","inputs":[{"name":"a","type":"int256","internalType":"int256"},{"name":"b","type":"int256","internalType":"int256"}],"outputs":[{"name":"","type":"int256","internalType":"int256"}],"stateMutability":"pure"},{"type":"function","name":"signedGt","inputs":[{"name":"a","type":"int256","internalType":"int256"},{"name":"b","type":"int256","internalType":"int256"}],"outputs":[{"name":"","type":"bool","internalType":"bool"}],"stateMutability":"pure"},{"type":"function","name":"signedLt","inputs":[{"name":"a","type":"int256","internalType":"int256"},{"name":"b","type":"int256","internalType":"int256"}],"outputs":[{"name":"","type":"bool","internalType":"bool"}],"stateMutability":"pure"},{"type":"function","name":"signedMul","inputs":[{"name":"a","type":"int256","internalType":"int256"},{"name":"b","type":"int256","internalType":"int256"}],"outputs":[{"name":"","type":"int256","internalType":"int256"}],"stateMutability":"pure"},{"type":"function","name":"signedSub","inputs":[{"name":"a","type":"int256","internalType":"int256"},{"name":"b","type":"int256","internalType":"int256"}],"outputs":[{"name":"","type":"int256","internalType":"int256"}],"stateMutability":"pure"},{"type":"function","name":"sub","inputs":[{"name":"a","type":"uint256","internalType":"uint256"},{"name":"b","type":"uint256","internalType":"uint256"}],"outputs":[{"name":"","type":"uint256","internalType":"uint256"}],"stateMutability":"pure"},{"type":"function","name":"subAssign","inputs":[{"name":"x","type":"uint256","internalType":"uint256"}],"outputs":[],"stateMutability":"nonpayable"},{"type":"function","name":"value","inputs":[],"outputs":[{"name":"","type":"uint256","internalType":"uint256"}],"stateMutability":"view"}],"bytecode":{"object":"0x61062880600a5f395ff361400060405236600e57610624565b5f3560e01c8063771602f7146101ba578063b67d77c5146101d8578063c8a4ac9c146101f6578063a391c15b14610214578063f43f523a146102325780633cf0007714610250578063f1e7f1f61461026e578063048236d71461028c578063673ff885146102aa578063118fc88c146102c857806321e5749b146102e6578063ea6515c414610304578063b47733291461032357806332148d73146103425780637c6ed9ef14610360578063ced12c9f1461037f5780639fd2b2e71461039d578063643a5366146103bb57806301a9b8ed146103d95780635d48bcb4146103f75780637602448b14610415578063a589d212146104305780631685fa981461044e578063af01c8901461046c57806361bc221a1461049f5780635b59b0c8146104b8578063016e4842146104e2578063f470e84b1461050657806323625f8c14610530578063dbdf7fce146105545780638bb5d9c3146105655780633fa4f24514610578578063df390b1414610592578063f0774d2d146105ad578063aa006cc2146105c8578063517cffa6146105e357806316e9fe81146105fe578063552410771461061057610624565b5034156101c5575f5ffd5b5b5f608052602435600435015f5260205ff35b5034156101e3575f5ffd5b5b5f608052602435600435035f5260205ff35b503415610201575f5ffd5b5b5f608052602435600435025f5260205ff35b50341561021f575f5ffd5b5b5f608052602435600435045f5260205ff35b50341561023d575f5ffd5b5b5f608052602435600435065f5260205ff35b50341561025b575f5ffd5b5b5f608052602435600435015f5260205ff35b503415610279575f5ffd5b5b5f608052602435600435035f5260205ff35b503415610297575f5ffd5b5b5f608052602435600435025f5260205ff35b5034156102b5575f5ffd5b5b5f608052602435600435055f5260205ff35b5034156102d3575f5ffd5b5b5f608052602435600435105f5260205ff35b5034156102f1575f5ffd5b5b5f608052602435600435115f5260205ff35b50341561030f575f5ffd5b5b5f60805260243560043511155f5260205ff35b50341561032e575f5ffd5b5b5f60805260243560043510155f5260205ff35b50341561034d575f5ffd5b5b5f608052602435600435145f5260205ff35b50341561036b575f5ffd5b5b5f60805260243560043514155f5260205ff35b50341561038a575f5ffd5b5b5f608052602435600435125f5260205ff35b5034156103a8575f5ffd5b5b5f608052602435600435135f5260205ff35b5034156103c6575f5ffd5b5b5f608052602435600435165f5260205ff35b5034156103e4575f5ffd5b5b5f608052602435600435175f5260205ff35b503415610402575f5ffd5b5b5f608052602435600435185f5260205ff35b503415610420575f5ffd5b5b5f608052600435195f5260205ff35b50341561043b575f5ffd5b5b5f6080526004356024351b5f5260205ff35b503415610459575f5ffd5b5b5f6080526004356024351c5f5260205ff35b503415610477575f5ffd5b5b5f608052602435600435016044358102905060016024350160043504810390505f5260205ff35b5034156104aa575f5ffd5b5b5f6080525f545f5260205ff35b5034156104c3575f5ffd5b5b5f6080525f5460018101905080611000525f55611000515f5260205ff35b5034156104ed575f5ffd5b5b5f6080525f546001818061100052015f555f5260205ff35b503415610511575f5ffd5b5b5f6080525f5460018103905080611000525f55611000515f5260205ff35b50341561053b575f5ffd5b5b5f6080525f546001818061100052035f555f5260205ff35b50341561055f575f5ffd5b5b5f5f55005b503415610570575f5ffd5b5b6004355f55005b503415610583575f5ffd5b5b5f6080526001545f5260205ff35b50341561059d575f5ffd5b5b60015460043581019050600155005b5034156105b8575f5ffd5b5b60015460043581039050600155005b5034156105d3575f5ffd5b5b60015460043581029050600155005b5034156105ee575f5ffd5b5b60015460043581049050600155005b503415610609575f5ffd5b5b5f600155005b50341561061b575f5ffd5b5b600435600155005b5f5ffd","linkReferences":{}},"methodIdentifiers":{"add(uint256,uint256)":"771602f7","addAssign(uint256)":"df390b14","bitwiseAnd(uint256,uint256)":"643a5366","bitwiseNot(uint256)":"7602448b","bitwiseOr(uint256,uint256)":"01a9b8ed","bitwiseXor(uint256,uint256)":"5d48bcb4","complexExpr(uint256,uint256,uint256)":"af01c890","counter()":"61bc221a","div(uint256,uint256)":"a391c15b","divAssign(uint256)":"517cffa6","eq(uint256,uint256)":"32148d73","gt(uint256,uint256)":"21e5749b","gte(uint256,uint256)":"b4773329","lt(uint256,uint256)":"118fc88c","lte(uint256,uint256)":"ea6515c4","mod(uint256,uint256)":"f43f523a","mul(uint256,uint256)":"c8a4ac9c","mulAssign(uint256)":"aa006cc2","neq(uint256,uint256)":"7c6ed9ef","postDecrement()":"23625f8c","postIncrement()":"016e4842","preDecrement()":"f470e84b","preIncrement()":"5b59b0c8","resetCounter()":"dbdf7fce","resetValue()":"16e9fe81","setCounter(uint256)":"8bb5d9c3","setValue(uint256)":"55241077","shiftLeft(uint256,uint256)":"a589d212","shiftRight(uint256,uint256)":"1685fa98","signedAdd(int256,int256)":"3cf00077","signedDiv(int256,int256)":"673ff885","signedGt(int256,int256)":"9fd2b2e7","signedLt(int256,int256)":"ced12c9f","signedMul(int256,int256)":"048236d7","signedSub(int256,int256)":"f1e7f1f6","sub(uint256,uint256)":"b67d77c5","subAssign(uint256)":"f0774d2d","value()":"3fa4f245"},"id":0}