{"abi":[{"type":"function","name":"get","inputs":[{"name":"index","type":"uint256","internalType":"uint256"}],"outputs":[{"name":"","type":"uint256","internalType":"uint256"}],"stateMutability":"view"},{"type":"function","name":"length","inputs":[],"outputs":[{"name":"","type":"uint256","internalType":"uint256"}],"stateMutability":"view"},{"type":"function","name":"pop","inputs":[],"outputs":[],"stateMutability":"nonpayable"},{"type":"function","name":"push","inputs":[{"name":"value","type":"uint256","internalType":"uint256"}],"outputs":[],"stateMutability":"nonpayable"},{"type":"function","name":"pushMultiple","inputs":[{"name":"a","type":"uint256","internalType":"uint256"},{"name":"b","type":"uint256","internalType":"uint256"},{"name":"c","type":"uint256","internalType":"uint256"}],"outputs":[],"stateMutability":"nonpayable"},{"type":"function","name":"values","inputs":[{"name":"","type":"uint256","internalType":"uint256"}],"outputs":[{"name":"","type":"uint256","internalType":"uint256"}],"stateMutability":"view"}],"bytecode":{"object":"0x61018280600a5f395ff361400060405236600e5761017e565b5f3560e01c80635e383d21146055578063959ac48414607a578063a4ece52c1460a85780631f7b6d321460d05780639507d39a1460e85780639d9b71401461010d5761017e565b503415605f575f5ffd5b5b5f6080525f5f5260205f2060043581019050545f5260205ff35b5034156084575f5ffd5b5b5f545f5f5260205f20818061100052810190506004358155506001810190505f55005b50341560b2575f5ffd5b5b5f546001810390505f555f5f5260205f205f54810190505f815550005b50341560da575f5ffd5b5b5f6080525f545f5260205ff35b50341560f2575f5ffd5b5b5f6080525f5f5260205f2060043581019050545f5260205ff35b503415610118575f5ffd5b5b5f545f5f5260205f20818061100052810190506004358155506001810190505f555f545f5f5260205f20818061102052810190506024358155506001810190505f555f545f5f5260205f20818061104052810190506044358155506001810190505f55005b5f5ffd","linkReferences":{}},"methodIdentifiers":{"get(uint256)":"9507d39a","length()":"1f7b6d32","pop()":"a4ece52c","push(uint256)":"959ac484","pushMultiple(uint256,uint256,uint256)":"9d9b7140","values(uint256)":"5e383d21"},"id":0}