{"abi":[{"type":"function","name":"callVia","inputs":[{"name":"callee","type":"address","internalType":"address"}],"outputs":[{"name":"","type":"uint256","internalType":"uint256"},{"name":"","type":"uint256","internalType":"uint256"}],"stateMutability":"view"},{"type":"function","name":"getThree","inputs":[],"outputs":[{"name":"","type":"uint256","internalType":"uint256"},{"name":"","type":"uint256","internalType":"uint256"},{"name":"","type":"uint256","internalType":"uint256"}],"stateMutability":"pure"},{"type":"function","name":"getTwo","inputs":[],"outputs":[{"name":"","type":"uint256","internalType":"uint256"},{"name":"","type":"uint256","internalType":"uint256"}],"stateMutability":"pure"},{"type":"function","name":"simpleReturn","inputs":[],"outputs":[{"name":"","type":"uint256","internalType":"uint256"},{"name":"","type":"uint256","internalType":"uint256"}],"stateMutability":"pure"},{"type":"function","name":"testPartialCapture","inputs":[],"outputs":[{"name":"","type":"uint256","internalType":"uint256"}],"stateMutability":"view"},{"type":"function","name":"testSimpleReturn","inputs":[],"outputs":[{"name":"","type":"uint256","internalType":"uint256"},{"name":"","type":"uint256","internalType":"uint256"}],"stateMutability":"view"},{"type":"function","name":"testThree","inputs":[],"outputs":[{"name":"","type":"uint256","internalType":"uint256"},{"name":"","type":"uint256","internalType":"uint256"},{"name":"","type":"uint256","internalType":"uint256"}],"stateMutability":"view"},{"type":"function","name":"testTwo","inputs":[],"outputs":[{"name":"","type":"uint256","internalType":"uint256"},{"name":"","type":"uint256","internalType":"uint256"}],"stateMutability":"view"}],"bytecode":{"object":"0x6080604052348015600e575f5ffd5b5061064c8061001c5f395ff3fe608060405234801561000f575f5ffd5b5060043610610086575f3560e01c8063bda07e9d11610059578063bda07e9d1461011a578063e54e66ba14610139578063ed1cf0e214610157578063ee7841231461017657610086565b80630e2f5fb31461008a57806347461257146100aa5780635f7845ba146100c95780639bbe8044146100fa575b5f5ffd5b610092610195565b6040516100a193929190610460565b60405180910390f35b6100b26101a9565b6040516100c0929190610495565b60405180910390f35b6100e360048036038101906100de919061051a565b610229565b6040516100f1929190610495565b60405180910390f35b6101026102aa565b60405161011193929190610460565b60405180910390f35b610122610334565b604051610130929190610495565b60405180910390f35b6101416103b4565b60405161014e9190610545565b60405180910390f35b61015f61042c565b60405161016d929190610495565b60405180910390f35b61017e61043a565b60405161018c929190610495565b60405180910390f35b5f5f5f600a6014601e925092509250909192565b5f5f5f5f3073ffffffffffffffffffffffffffffffffffffffff1663ed1cf0e26040518163ffffffff1660e01b81526004016040805180830381865afa1580156101f5573d5f5f3e3d5ffd5b505050506040513d601f19601f820116820180604052508101906102199190610588565b9150915081819350935050509091565b5f5f5f5f8473ffffffffffffffffffffffffffffffffffffffff1663ee7841236040518163ffffffff1660e01b81526004016040805180830381865afa158015610275573d5f5f3e3d5ffd5b505050506040513d601f19601f820116820180604052508101906102999190610588565b915091508181935093505050915091565b5f5f5f5f5f5f3073ffffffffffffffffffffffffffffffffffffffff16630e2f5fb36040518163ffffffff1660e01b8152600401606060405180830381865afa1580156102f9573d5f5f3e3d5ffd5b505050506040513d601f19601f8201168201806040525081019061031d91906105c6565b925092509250828282955095509550505050909192565b5f5f5f5f3073ffffffffffffffffffffffffffffffffffffffff1663ee7841236040518163ffffffff1660e01b81526004016040805180830381865afa158015610380573d5f5f3e3d5ffd5b505050506040513d601f19601f820116820180604052508101906103a49190610588565b9150915081819350935050509091565b5f5f3073ffffffffffffffffffffffffffffffffffffffff1663ee7841236040518163ffffffff1660e01b81526004016040805180830381865afa1580156103fe573d5f5f3e3d5ffd5b505050506040513d601f19601f820116820180604052508101906104229190610588565b9150508091505090565b5f5f606f60de915091509091565b5f5f60016002915091509091565b5f819050919050565b61045a81610448565b82525050565b5f6060820190506104735f830186610451565b6104806020830185610451565b61048d6040830184610451565b949350505050565b5f6040820190506104a85f830185610451565b6104b56020830184610451565b9392505050565b5f5ffd5b5f73ffffffffffffffffffffffffffffffffffffffff82169050919050565b5f6104e9826104c0565b9050919050565b6104f9816104df565b8114610503575f5ffd5b50565b5f81359050610514816104f0565b92915050565b5f6020828403121561052f5761052e6104bc565b5b5f61053c84828501610506565b91505092915050565b5f6020820190506105585f830184610451565b92915050565b61056781610448565b8114610571575f5ffd5b50565b5f815190506105828161055e565b92915050565b5f5f6040838503121561059e5761059d6104bc565b5b5f6105ab85828601610574565b92505060206105bc85828601610574565b9150509250929050565b5f5f5f606084860312156105dd576105dc6104bc565b5b5f6105ea86828701610574565b93505060206105fb86828701610574565b925050604061060c86828701610574565b915050925092509256fea2646970667358221220dfdc791a319a0b2a0bc8e63fe3d0a61d3ef960a28c3a3728a772f35e716887b364736f6c634300081c0033","linkReferences":{}},"methodIdentifiers":{"callVia(address)":"5f7845ba","getThree()":"0e2f5fb3","getTwo()":"ee784123","simpleReturn()":"ed1cf0e2","testPartialCapture()":"e54e66ba","testSimpleReturn()":"47461257","testThree()":"9bbe8044","testTwo()":"bda07e9d"},"id":0}