{"abi":[{"type":"function","name":"callIncrement","inputs":[{"name":"counter","type":"address","internalType":"address"}],"outputs":[],"stateMutability":"nonpayable"},{"type":"function","name":"getCount","inputs":[{"name":"counter","type":"address","internalType":"address"}],"outputs":[{"name":"","type":"uint256","internalType":"uint256"}],"stateMutability":"view"}],"bytecode":{"object":"0x6080604052348015600e575f5ffd5b5061029c8061001c5f395ff3fe608060405234801561000f575f5ffd5b5060043610610034575f3560e01c806329e5b417146100385780634f0cd27b14610054575b5f5ffd5b610052600480360381019061004d91906101b5565b610084565b005b61006e600480360381019061006991906101b5565b6100e2565b60405161007b91906101f8565b60405180910390f35b8073ffffffffffffffffffffffffffffffffffffffff1663d09de08a6040518163ffffffff1660e01b81526004015f604051808303815f87803b1580156100c9575f5ffd5b505af11580156100db573d5f5f3e3d5ffd5b5050505050565b5f8173ffffffffffffffffffffffffffffffffffffffff166306661abd6040518163ffffffff1660e01b8152600401602060405180830381865afa15801561012c573d5f5f3e3d5ffd5b505050506040513d601f19601f82011682018060405250810190610150919061023b565b9050919050565b5f5ffd5b5f73ffffffffffffffffffffffffffffffffffffffff82169050919050565b5f6101848261015b565b9050919050565b6101948161017a565b811461019e575f5ffd5b50565b5f813590506101af8161018b565b92915050565b5f602082840312156101ca576101c9610157565b5b5f6101d7848285016101a1565b91505092915050565b5f819050919050565b6101f2816101e0565b82525050565b5f60208201905061020b5f8301846101e9565b92915050565b61021a816101e0565b8114610224575f5ffd5b50565b5f8151905061023581610211565b92915050565b5f602082840312156102505761024f610157565b5b5f61025d84828501610227565b9150509291505056fea26469706673582212203490c172eb444edcfb13aff2940300241ae21ce0d3fb333076c968cb0bf5dbf464736f6c634300081e0033","linkReferences":{}},"methodIdentifiers":{"callIncrement(address)":"29e5b417","getCount(address)":"4f0cd27b"},"id":0}