{"abi":[{"type":"function","name":"count","inputs":[],"outputs":[{"name":"","type":"uint256","internalType":"uint256"}],"stateMutability":"view"},{"type":"function","name":"increment","inputs":[],"outputs":[],"stateMutability":"nonpayable"}],"bytecode":{"object":"0x6080604052348015600e575f5ffd5b5061012f8061001c5f395ff3fe6080604052348015600e575f5ffd5b50600436106030575f3560e01c806306661abd146034578063d09de08a14604e575b5f5ffd5b603a6056565b604051604591906089565b60405180910390f35b6054605b565b005b5f5481565b60015f5f828254606a919060cd565b92505081905550565b5f819050919050565b6083816073565b82525050565b5f602082019050609a5f830184607c565b92915050565b7f4e487b71000000000000000000000000000000000000000000000000000000005f52601160045260245ffd5b5f60d5826073565b915060de836073565b925082820190508082111560f35760f260a0565b5b9291505056fea2646970667358221220db7b923cf61df43ac4d6ddadb59f748f0cdab49379558752db13ec1f79a9603564736f6c63430008210033","linkReferences":{}},"methodIdentifiers":{"count()":"06661abd","increment()":"d09de08a"},"id":0}