{"abi":[{"type":"function","name":"childValue","inputs":[],"outputs":[{"name":"","type":"uint256","internalType":"uint256"}],"stateMutability":"view"},{"type":"function","name":"parentValue","inputs":[],"outputs":[{"name":"","type":"uint256","internalType":"uint256"}],"stateMutability":"view"},{"type":"function","name":"setBoth","inputs":[{"name":"p","type":"uint256","internalType":"uint256"},{"name":"c","type":"uint256","internalType":"uint256"}],"outputs":[],"stateMutability":"nonpayable"},{"type":"function","name":"setChild","inputs":[{"name":"v","type":"uint256","internalType":"uint256"}],"outputs":[],"stateMutability":"nonpayable"},{"type":"function","name":"setParent","inputs":[{"name":"v","type":"uint256","internalType":"uint256"}],"outputs":[],"stateMutability":"nonpayable"}],"bytecode":{"object":"0x6080604052348015600e575f5ffd5b506102168061001c5f395ff3fe608060405234801561000f575f5ffd5b5060043610610055575f3560e01c80632520646214610059578063257002f01461007757806339c82a751461009357806392cf1ef5146100b15780639d100dd5146100cd575b5f5ffd5b6100616100e9565b60405161006e9190610130565b60405180910390f35b610091600480360381019061008c9190610177565b6100ee565b005b61009b6100f7565b6040516100a89190610130565b60405180910390f35b6100cb60048036038101906100c691906101a2565b6100fd565b005b6100e760048036038101906100e29190610177565b61010e565b005b5f5481565b805f8190555050565b60015481565b815f81905550806001819055505050565b8060018190555050565b5f819050919050565b61012a81610118565b82525050565b5f6020820190506101435f830184610121565b92915050565b5f5ffd5b61015681610118565b8114610160575f5ffd5b50565b5f813590506101718161014d565b92915050565b5f6020828403121561018c5761018b610149565b5b5f61019984828501610163565b91505092915050565b5f5f604083850312156101b8576101b7610149565b5b5f6101c585828601610163565b92505060206101d685828601610163565b915050925092905056fea264697066735822122088fa85af804ef44a2c59582d6c57f1a6f449ee8eb19ad6c411733d22cf723c5e64736f6c634300081c0033","linkReferences":{}},"methodIdentifiers":{"childValue()":"39c82a75","parentValue()":"25206462","setBoth(uint256,uint256)":"92cf1ef5","setChild(uint256)":"9d100dd5","setParent(uint256)":"257002f0"},"id":0}