{"abi":[{"type":"function","name":"parentValue","inputs":[],"outputs":[{"name":"","type":"uint256","internalType":"uint256"}],"stateMutability":"view"},{"type":"function","name":"setParent","inputs":[{"name":"v","type":"uint256","internalType":"uint256"}],"outputs":[],"stateMutability":"nonpayable"}],"bytecode":{"object":"0x6080604052348015600e575f5ffd5b506101268061001c5f395ff3fe6080604052348015600e575f5ffd5b50600436106030575f3560e01c806325206462146034578063257002f014604e575b5f5ffd5b603a6066565b60405160459190608a565b60405180910390f35b606460048036038101906060919060ca565b606b565b005b5f5481565b805f8190555050565b5f819050919050565b6084816074565b82525050565b5f602082019050609b5f830184607d565b92915050565b5f5ffd5b60ac816074565b811460b5575f5ffd5b50565b5f8135905060c48160a5565b92915050565b5f6020828403121560dc5760db60a1565b5b5f60e78482850160b8565b9150509291505056fea2646970667358221220463b3466f99f8cda33287b2620dc54f1491b2bdc867ec64c64fae9a0b1f513d964736f6c634300081c0033","linkReferences":{}},"methodIdentifiers":{"parentValue()":"25206462","setParent(uint256)":"257002f0"},"id":0}