{"abi":[{"type":"function","name":"balance","inputs":[],"outputs":[{"name":"","type":"uint256","internalType":"uint256"}],"stateMutability":"view"},{"type":"function","name":"deposit","inputs":[],"outputs":[],"stateMutability":"payable"},{"type":"function","name":"getBalance","inputs":[],"outputs":[{"name":"","type":"uint256","internalType":"uint256"}],"stateMutability":"view"},{"type":"function","name":"withdraw","inputs":[],"outputs":[],"stateMutability":"nonpayable"}],"bytecode":{"object":"0x608f8060095f395ff361400060405236600d57608b565b5f3560e01c8063b69ef8a814603e578063d0e30db014605657806312065fe01460635780633ccfd60b14607b57608b565b5034156048575f5ffd5b5b5f6080525f545f5260205ff35b505b5f5434810190505f55005b503415606d575f5ffd5b5b5f6080525f545f5260205ff35b5034156085575f5ffd5b5b5f5f55005b5f5ffd","linkReferences":{}},"methodIdentifiers":{"balance()":"b69ef8a8","deposit()":"d0e30db0","getBalance()":"12065fe0","withdraw()":"3ccfd60b"},"id":3}