{"abi":[{"type":"function","name":"extremeLocals","inputs":[{"name":"a","type":"uint256","internalType":"uint256"},{"name":"b","type":"uint256","internalType":"uint256"},{"name":"c","type":"uint256","internalType":"uint256"},{"name":"d","type":"uint256","internalType":"uint256"},{"name":"e","type":"uint256","internalType":"uint256"},{"name":"f","type":"uint256","internalType":"uint256"},{"name":"g","type":"uint256","internalType":"uint256"},{"name":"h","type":"uint256","internalType":"uint256"},{"name":"i","type":"uint256","internalType":"uint256"},{"name":"j","type":"uint256","internalType":"uint256"},{"name":"k","type":"uint256","internalType":"uint256"},{"name":"l","type":"uint256","internalType":"uint256"}],"outputs":[{"name":"","type":"uint256","internalType":"uint256"}],"stateMutability":"pure"},{"type":"function","name":"manyLocals","inputs":[{"name":"a","type":"uint256","internalType":"uint256"},{"name":"b","type":"uint256","internalType":"uint256"},{"name":"c","type":"uint256","internalType":"uint256"},{"name":"d","type":"uint256","internalType":"uint256"},{"name":"e","type":"uint256","internalType":"uint256"},{"name":"f","type":"uint256","internalType":"uint256"},{"name":"g","type":"uint256","internalType":"uint256"},{"name":"h","type":"uint256","internalType":"uint256"}],"outputs":[{"name":"","type":"uint256","internalType":"uint256"}],"stateMutability":"pure"}],"bytecode":{"object":"0x61026080600a5f395ff361400060405236600e5761025c565b5f3560e01c8063e8562f3714602d57806341cd78ab1461011a5761025c565b5034156037575f5ffd5b5b5f608052602435600435016064356044350160a4356084350160e43560c435018280611000528480611020520181806110405283806110605201806110805281806110a0520160043581806110c0520160243581806110e05201604435818061110052016064358180611120520160843581806111405201898b0199509950878901975097508587019550955083850193509350611080518301925081830191509150818101905090508181019050905081810190509050818101905090508181019050905060a4358101905060c4358101905060e435810190505f5260205ff35b503415610125575f5ffd5b5b5f608052602435600435026064356044350260a4356084350260e43560c43502610124356101043502610164356101443502848061100052868061102052018380611040528580611060520182806110805284806110a0520181806110c05283806110e05201806111005281806111205201600435818061114052016024358101905060443581019050606435810190506084358180611160520160a4358101905060c4358101905060e4358101905061010435818061118052016101243581019050610144358101905061016435810190508b8d019b509b50898b01995099508789019750975085870195509550838501935093508183019150915081810190509050818101905090506111005181019050818101905090508181019050905081810190509050818101905090505f5260205ff35b5f5ffd","linkReferences":{}},"methodIdentifiers":{"extremeLocals(uint256,uint256,uint256,uint256,uint256,uint256,uint256,uint256,uint256,uint256,uint256,uint256)":"41cd78ab","manyLocals(uint256,uint256,uint256,uint256,uint256,uint256,uint256,uint256)":"e8562f37"},"id":1}