{"abi":[{"type":"function","name":"getValue","inputs":[],"outputs":[{"name":"","type":"uint256","internalType":"uint256"}],"stateMutability":"view"},{"type":"function","name":"locked","inputs":[],"outputs":[{"name":"","type":"bool","internalType":"bool"}],"stateMutability":"view"},{"type":"function","name":"owner","inputs":[],"outputs":[{"name":"","type":"address","internalType":"address"}],"stateMutability":"view"},{"type":"function","name":"setValue","inputs":[{"name":"v","type":"uint256","internalType":"uint256"}],"outputs":[],"stateMutability":"nonpayable"},{"type":"function","name":"setValueNonReentrant","inputs":[{"name":"v","type":"uint256","internalType":"uint256"}],"outputs":[],"stateMutability":"nonpayable"},{"type":"function","name":"value","inputs":[],"outputs":[{"name":"","type":"uint256","internalType":"uint256"}],"stateMutability":"view"}],"bytecode":{"object":"0x60806040525b335f556101448060135f395ff3608060405236600d57610140565b5f3560e01c80638da5cb5b1460565780633fa4f24514606a578063cf30901214607f578063552410771461010257806348fc9b4314610116578063209652551461012a57610140565b5034156060575f5ffd5b5b5f545f5260205ff35b5034156074575f5ffd5b5b6001545f5260205ff35b5034156089575f5ffd5b5b6002545f5260205ff35b3415609d575f5ffd5b5b335f55005b341560ac575f5ffd5b5b335f54811490501560bc5760bf565b5ffd5b005b341560ca575f5ffd5b5b600254151560d75760da565b5ffd5b60016002555f600255005b341560ee575f5ffd5b5b5f600435111560fd57610100565b5ffd5b005b50341561010d575f5ffd5b5b600435600155005b503415610121575f5ffd5b5b600435600155005b503415610135575f5ffd5b5b6001545f5260205ff35b5f5ffd","linkReferences":{}},"methodIdentifiers":{},"id":0}