{"abi":[{"type":"function","name":"anotherValue","inputs":[],"outputs":[{"name":"","type":"uint256","internalType":"uint256"}],"stateMutability":"view"},{"type":"function","name":"getAnotherValue","inputs":[],"outputs":[{"name":"","type":"uint256","internalType":"uint256"}],"stateMutability":"view"},{"type":"function","name":"getValue","inputs":[],"outputs":[{"name":"","type":"uint256","internalType":"uint256"}],"stateMutability":"view"},{"type":"function","name":"owner","inputs":[],"outputs":[{"name":"","type":"address","internalType":"address"}],"stateMutability":"view"},{"type":"function","name":"value","inputs":[],"outputs":[{"name":"","type":"uint256","internalType":"uint256"}],"stateMutability":"view"}],"bytecode":{"object":"0x6080604052602a5f55606460015561123460025f6101000a81548173ffffffffffffffffffffffffffffffffffffffff021916908373ffffffffffffffffffffffffffffffffffffffff1602179055503480156059575f5ffd5b506101ef806100675f395ff3fe608060405234801561000f575f5ffd5b5060043610610055575f3560e01c8063209652551461005957806325d805cf146100775780633fa4f2451461009557806368620bd0146100b35780638da5cb5b146100d1575b5f5ffd5b6100616100ef565b60405161006e9190610148565b60405180910390f35b61007f6100f7565b60405161008c9190610148565b60405180910390f35b61009d610100565b6040516100aa9190610148565b60405180910390f35b6100bb610105565b6040516100c89190610148565b60405180910390f35b6100d961010b565b6040516100e691906101a0565b60405180910390f35b5f5f54905090565b5f600154905090565b5f5481565b60015481565b60025f9054906101000a900473ffffffffffffffffffffffffffffffffffffffff1681565b5f819050919050565b61014281610130565b82525050565b5f60208201905061015b5f830184610139565b92915050565b5f73ffffffffffffffffffffffffffffffffffffffff82169050919050565b5f61018a82610161565b9050919050565b61019a81610180565b82525050565b5f6020820190506101b35f830184610191565b9291505056fea2646970667358221220f4cf1e0e64aed4ad39ba52c96a826a9cc67bbf7dcdc31903113f5f2c42f827c764736f6c634300081c0033","linkReferences":{}},"methodIdentifiers":{"anotherValue()":"68620bd0","getAnotherValue()":"25d805cf","getValue()":"20965255","owner()":"8da5cb5b","value()":"3fa4f245"},"id":4}