{"abi":[{"type":"function","name":"add","inputs":[{"name":"a","type":"uint256","internalType":"uint256"},{"name":"b","type":"uint256","internalType":"uint256"}],"outputs":[{"name":"","type":"uint256","internalType":"uint256"}],"stateMutability":"pure"},{"type":"function","name":"addAssign","inputs":[{"name":"x","type":"uint256","internalType":"uint256"}],"outputs":[],"stateMutability":"nonpayable"},{"type":"function","name":"bitwiseAnd","inputs":[{"name":"a","type":"uint256","internalType":"uint256"},{"name":"b","type":"uint256","internalType":"uint256"}],"outputs":[{"name":"","type":"uint256","internalType":"uint256"}],"stateMutability":"pure"},{"type":"function","name":"bitwiseNot","inputs":[{"name":"a","type":"uint256","internalType":"uint256"}],"outputs":[{"name":"","type":"uint256","internalType":"uint256"}],"stateMutability":"pure"},{"type":"function","name":"bitwiseOr","inputs":[{"name":"a","type":"uint256","internalType":"uint256"},{"name":"b","type":"uint256","internalType":"uint256"}],"outputs":[{"name":"","type":"uint256","internalType":"uint256"}],"stateMutability":"pure"},{"type":"function","name":"bitwiseXor","inputs":[{"name":"a","type":"uint256","internalType":"uint256"},{"name":"b","type":"uint256","internalType":"uint256"}],"outputs":[{"name":"","type":"uint256","internalType":"uint256"}],"stateMutability":"pure"},{"type":"function","name":"complexExpr","inputs":[{"name":"a","type":"uint256","internalType":"uint256"},{"name":"b","type":"uint256","internalType":"uint256"},{"name":"c","type":"uint256","internalType":"uint256"}],"outputs":[{"name":"","type":"uint256","internalType":"uint256"}],"stateMutability":"pure"},{"type":"function","name":"counter","inputs":[],"outputs":[{"name":"","type":"uint256","internalType":"uint256"}],"stateMutability":"view"},{"type":"function","name":"div","inputs":[{"name":"a","type":"uint256","internalType":"uint256"},{"name":"b","type":"uint256","internalType":"uint256"}],"outputs":[{"name":"","type":"uint256","internalType":"uint256"}],"stateMutability":"pure"},{"type":"function","name":"divAssign","inputs":[{"name":"x","type":"uint256","internalType":"uint256"}],"outputs":[],"stateMutability":"nonpayable"},{"type":"function","name":"eq","inputs":[{"name":"a","type":"uint256","internalType":"uint256"},{"name":"b","type":"uint256","internalType":"uint256"}],"outputs":[{"name":"","type":"bool","internalType":"bool"}],"stateMutability":"pure"},{"type":"function","name":"gt","inputs":[{"name":"a","type":"uint256","internalType":"uint256"},{"name":"b","type":"uint256","internalType":"uint256"}],"outputs":[{"name":"","type":"bool","internalType":"bool"}],"stateMutability":"pure"},{"type":"function","name":"gte","inputs":[{"name":"a","type":"uint256","internalType":"uint256"},{"name":"b","type":"uint256","internalType":"uint256"}],"outputs":[{"name":"","type":"bool","internalType":"bool"}],"stateMutability":"pure"},{"type":"function","name":"lt","inputs":[{"name":"a","type":"uint256","internalType":"uint256"},{"name":"b","type":"uint256","internalType":"uint256"}],"outputs":[{"name":"","type":"bool","internalType":"bool"}],"stateMutability":"pure"},{"type":"function","name":"lte","inputs":[{"name":"a","type":"uint256","internalType":"uint256"},{"name":"b","type":"uint256","internalType":"uint256"}],"outputs":[{"name":"","type":"bool","internalType":"bool"}],"stateMutability":"pure"},{"type":"function","name":"mod","inputs":[{"name":"a","type":"uint256","internalType":"uint256"},{"name":"b","type":"uint256","internalType":"uint256"}],"outputs":[{"name":"","type":"uint256","internalType":"uint256"}],"stateMutability":"pure"},{"type":"function","name":"mul","inputs":[{"name":"a","type":"uint256","internalType":"uint256"},{"name":"b","type":"uint256","internalType":"uint256"}],"outputs":[{"name":"","type":"uint256","internalType":"uint256"}],"stateMutability":"pure"},{"type":"function","name":"mulAssign","inputs":[{"name":"x","type":"uint256","internalType":"uint256"}],"outputs":[],"stateMutability":"nonpayable"},{"type":"function","name":"neq","inputs":[{"name":"a","type":"uint256","internalType":"uint256"},{"name":"b","type":"uint256","internalType":"uint256"}],"outputs":[{"name":"","type":"bool","internalType":"bool"}],"stateMutability":"pure"},{"type":"function","name":"postDecrement","inputs":[],"outputs":[{"name":"","type":"uint256","internalType":"uint256"}],"stateMutability":"nonpayable"},{"type":"function","name":"postIncrement","inputs":[],"outputs":[{"name":"","type":"uint256","internalType":"uint256"}],"stateMutability":"nonpayable"},{"type":"function","name":"preDecrement","inputs":[],"outputs":[{"name":"","type":"uint256","internalType":"uint256"}],"stateMutability":"nonpayable"},{"type":"function","name":"preIncrement","inputs":[],"outputs":[{"name":"","type":"uint256","internalType":"uint256"}],"stateMutability":"nonpayable"},{"type":"function","name":"resetCounter","inputs":[],"outputs":[],"stateMutability":"nonpayable"},{"type":"function","name":"resetValue","inputs":[],"outputs":[],"stateMutability":"nonpayable"},{"type":"function","name":"setCounter","inputs":[{"name":"val","type":"uint256","internalType":"uint256"}],"outputs":[],"stateMutability":"nonpayable"},{"type":"function","name":"setValue","inputs":[{"name":"x","type":"uint256","internalType":"uint256"}],"outputs":[],"stateMutability":"nonpayable"},{"type":"function","name":"shiftLeft","inputs":[{"name":"a","type":"uint256","internalType":"uint256"},{"name":"bits","type":"uint256","internalType":"uint256"}],"outputs":[{"name":"","type":"uint256","internalType":"uint256"}],"stateMutability":"pure"},{"type":"function","name":"shiftRight","inputs":[{"name":"a","type":"uint256","internalType":"uint256"},{"name":"bits","type":"uint256","internalType":"uint256"}],"outputs":[{"name":"","type":"uint256","internalType":"uint256"}],"stateMutability":"pure"},{"type":"function","name":"signedAdd","inputs":[{"name":"a","type":"int256","internalType":"int256"},{"name":"b","type":"int256","internalType":"int256"}],"outputs":[{"name":"","type":"int256","internalType":"int256"}],"stateMutability":"pure"},{"type":"function","name":"signedDiv","inputs":[{"name":"a","type":"int256","internalType":"int256"},{"name":"b","type":"int256","internalType":"int256"}],"outputs":[{"name":"","type":"int256","internalType":"int256"}],"stateMutability":"pure"},{"type":"function","name":"signedGt","inputs":[{"name":"a","type":"int256","internalType":"int256"},{"name":"b","type":"int256","internalType":"int256"}],"outputs":[{"name":"","type":"bool","internalType":"bool"}],"stateMutability":"pure"},{"type":"function","name":"signedLt","inputs":[{"name":"a","type":"int256","internalType":"int256"},{"name":"b","type":"int256","internalType":"int256"}],"outputs":[{"name":"","type":"bool","internalType":"bool"}],"stateMutability":"pure"},{"type":"function","name":"signedMul","inputs":[{"name":"a","type":"int256","internalType":"int256"},{"name":"b","type":"int256","internalType":"int256"}],"outputs":[{"name":"","type":"int256","internalType":"int256"}],"stateMutability":"pure"},{"type":"function","name":"signedSub","inputs":[{"name":"a","type":"int256","internalType":"int256"},{"name":"b","type":"int256","internalType":"int256"}],"outputs":[{"name":"","type":"int256","internalType":"int256"}],"stateMutability":"pure"},{"type":"function","name":"sub","inputs":[{"name":"a","type":"uint256","internalType":"uint256"},{"name":"b","type":"uint256","internalType":"uint256"}],"outputs":[{"name":"","type":"uint256","internalType":"uint256"}],"stateMutability":"pure"},{"type":"function","name":"subAssign","inputs":[{"name":"x","type":"uint256","internalType":"uint256"}],"outputs":[],"stateMutability":"nonpayable"},{"type":"function","name":"value","inputs":[],"outputs":[{"name":"","type":"uint256","internalType":"uint256"}],"stateMutability":"view"}],"bytecode":{"object":"0x6080604052348015600e575f5ffd5b5061101a8061001c5f395ff3fe608060405234801561000f575f5ffd5b5060043610610230575f3560e01c8063771602f71161012e578063b67d77c5116100b6578063ea6515c41161007a578063ea6515c41461075a578063f0774d2d1461078a578063f1e7f1f6146107a6578063f43f523a146107d6578063f470e84b1461080657610230565b8063b67d77c5146106a4578063c8a4ac9c146106d4578063ced12c9f14610704578063dbdf7fce14610734578063df390b141461073e57610230565b8063a391c15b116100fd578063a391c15b146105c8578063a589d212146105f8578063aa006cc214610628578063af01c89014610644578063b47733291461067457610230565b8063771602f71461051c5780637c6ed9ef1461054c5780638bb5d9c31461057c5780639fd2b2e71461059857610230565b80633cf00077116101bc5780635d48bcb4116101805780635d48bcb41461043e57806361bc221a1461046e578063643a53661461048c578063673ff885146104bc5780637602448b146104ec57610230565b80633cf000771461039a5780633fa4f245146103ca578063517cffa6146103e857806355241077146104045780635b59b0c81461042057610230565b80631685fa98116102035780631685fa98146102e257806316e9fe811461031257806321e5749b1461031c57806323625f8c1461034c57806332148d731461036a57610230565b8063016e48421461023457806301a9b8ed14610252578063048236d714610282578063118fc88c146102b2575b5f5ffd5b61023c610824565b6040516102499190610aea565b60405180910390f35b61026c60048036038101906102679190610b31565b61083f565b6040516102799190610aea565b60405180910390f35b61029c60048036038101906102979190610ba2565b61084b565b6040516102a99190610bef565b60405180910390f35b6102cc60048036038101906102c79190610b31565b610860565b6040516102d99190610c22565b60405180910390f35b6102fc60048036038101906102f79190610b31565b61086c565b6040516103099190610aea565b60405180910390f35b61031a610879565b005b61033660048036038101906103319190610b31565b610882565b6040516103439190610c22565b60405180910390f35b61035461088e565b6040516103619190610aea565b60405180910390f35b610384600480360381019061037f9190610b31565b6108a9565b6040516103919190610c22565b60405180910390f35b6103b460048036038101906103af9190610ba2565b6108b5565b6040516103c19190610bef565b60405180910390f35b6103d26108ca565b6040516103df9190610aea565b60405180910390f35b61040260048036038101906103fd9190610c3b565b6108d0565b005b61041e60048036038101906104199190610c3b565b6108eb565b005b6104286108f5565b6040516104359190610aea565b60405180910390f35b61045860048036038101906104539190610b31565b61090e565b6040516104659190610aea565b60405180910390f35b61047661091a565b6040516104839190610aea565b60405180910390f35b6104a660048036038101906104a19190610b31565b61091f565b6040516104b39190610aea565b60405180910390f35b6104d660048036038101906104d19190610ba2565b61092b565b6040516104e39190610bef565b60405180910390f35b61050660048036038101906105019190610c3b565b610940565b6040516105139190610aea565b60405180910390f35b61053660048036038101906105319190610b31565b61094a565b6040516105439190610aea565b60405180910390f35b61056660048036038101906105619190610b31565b61095f565b6040516105739190610c22565b60405180910390f35b61059660048036038101906105919190610c3b565b61096c565b005b6105b260048036038101906105ad9190610ba2565b610975565b6040516105bf9190610c22565b60405180910390f35b6105e260048036038101906105dd9190610b31565b610981565b6040516105ef9190610aea565b60405180910390f35b610612600480360381019061060d9190610b31565b610996565b60405161061f9190610aea565b60405180910390f35b610642600480360381019061063d9190610c3b565b6109a3565b005b61065e60048036038101906106599190610c66565b6109be565b60405161066b9190610aea565b60405180910390f35b61068e60048036038101906106899190610b31565b610a01565b60405161069b9190610c22565b60405180910390f35b6106be60048036038101906106b99190610b31565b610a0e565b6040516106cb9190610aea565b60405180910390f35b6106ee60048036038101906106e99190610b31565b610a23565b6040516106fb9190610aea565b60405180910390f35b61071e60048036038101906107199190610ba2565b610a38565b60405161072b9190610c22565b60405180910390f35b61073c610a44565b005b61075860048036038101906107539190610c3b565b610a4c565b005b610774600480360381019061076f9190610b31565b610a67565b6040516107819190610c22565b60405180910390f35b6107a4600480360381019061079f9190610c3b565b610a74565b005b6107c060048036038101906107bb9190610ba2565b610a8f565b6040516107cd9190610bef565b60405180910390f35b6107f060048036038101906107eb9190610b31565b610aa4565b6040516107fd9190610aea565b60405180910390f35b61080e610ab9565b60405161081b9190610aea565b60405180910390f35b5f5f5f81548092919061083690610ce3565b91905055905090565b5f818317905092915050565b5f81836108589190610d2a565b905092915050565b5f818310905092915050565b5f8183901c905092915050565b5f600181905550565b5f818311905092915050565b5f5f5f8154809291906108a090610da0565b91905055905090565b5f818314905092915050565b5f81836108c29190610dc7565b905092915050565b60015481565b8060015f8282546108e19190610e35565b9250508190555050565b8060018190555050565b5f5f5f815461090390610ce3565b919050819055905090565b5f818318905092915050565b5f5481565b5f818316905092915050565b5f81836109389190610e65565b905092915050565b5f81199050919050565b5f81836109579190610ecd565b905092915050565b5f81831415905092915050565b805f8190555050565b5f818313905092915050565b5f818361098e9190610e35565b905092915050565b5f8183901b905092915050565b8060015f8282546109b49190610f00565b9250508190555050565b5f6001836109cc9190610ecd565b846109d79190610e35565b8284866109e49190610ecd565b6109ee9190610f00565b6109f89190610f41565b90509392505050565b5f81831015905092915050565b5f8183610a1b9190610f41565b905092915050565b5f8183610a309190610f00565b905092915050565b5f818312905092915050565b5f5f81905550565b8060015f828254610a5d9190610ecd565b9250508190555050565b5f81831115905092915050565b8060015f828254610a859190610f41565b9250508190555050565b5f8183610a9c9190610f74565b905092915050565b5f8183610ab19190610fb4565b905092915050565b5f5f5f8154610ac790610da0565b919050819055905090565b5f819050919050565b610ae481610ad2565b82525050565b5f602082019050610afd5f830184610adb565b92915050565b5f5ffd5b610b1081610ad2565b8114610b1a575f5ffd5b50565b5f81359050610b2b81610b07565b92915050565b5f5f60408385031215610b4757610b46610b03565b5b5f610b5485828601610b1d565b9250506020610b6585828601610b1d565b9150509250929050565b5f819050919050565b610b8181610b6f565b8114610b8b575f5ffd5b50565b5f81359050610b9c81610b78565b92915050565b5f5f60408385031215610bb857610bb7610b03565b5b5f610bc585828601610b8e565b9250506020610bd685828601610b8e565b9150509250929050565b610be981610b6f565b82525050565b5f602082019050610c025f830184610be0565b92915050565b5f8115159050919050565b610c1c81610c08565b82525050565b5f602082019050610c355f830184610c13565b92915050565b5f60208284031215610c5057610c4f610b03565b5b5f610c5d84828501610b1d565b91505092915050565b5f5f5f60608486031215610c7d57610c7c610b03565b5b5f610c8a86828701610b1d565b9350506020610c9b86828701610b1d565b9250506040610cac86828701610b1d565b9150509250925092565b7f4e487b71000000000000000000000000000000000000000000000000000000005f52601160045260245ffd5b5f610ced82610ad2565b91507fffffffffffffffffffffffffffffffffffffffffffffffffffffffffffffffff8203610d1f57610d1e610cb6565b5b600182019050919050565b5f610d3482610b6f565b9150610d3f83610b6f565b9250828202610d4d81610b6f565b91507f800000000000000000000000000000000000000000000000000000000000000084145f84121615610d8457610d83610cb6565b5b8282058414831517610d9957610d98610cb6565b5b5092915050565b5f610daa82610ad2565b91505f8203610dbc57610dbb610cb6565b5b600182039050919050565b5f610dd182610b6f565b9150610ddc83610b6f565b92508282019050828112155f8312168382125f841215161715610e0257610e01610cb6565b5b92915050565b7f4e487b71000000000000000000000000000000000000000000000000000000005f52601260045260245ffd5b5f610e3f82610ad2565b9150610e4a83610ad2565b925082610e5a57610e59610e08565b5b828204905092915050565b5f610e6f82610b6f565b9150610e7a83610b6f565b925082610e8a57610e89610e08565b5b60015f0383147f800000000000000000000000000000000000000000000000000000000000000083141615610ec257610ec1610cb6565b5b828205905092915050565b5f610ed782610ad2565b9150610ee283610ad2565b9250828201905080821115610efa57610ef9610cb6565b5b92915050565b5f610f0a82610ad2565b9150610f1583610ad2565b9250828202610f2381610ad2565b91508282048414831517610f3a57610f39610cb6565b5b5092915050565b5f610f4b82610ad2565b9150610f5683610ad2565b9250828203905081811115610f6e57610f6d610cb6565b5b92915050565b5f610f7e82610b6f565b9150610f8983610b6f565b925082820390508181125f8412168282135f851215161715610fae57610fad610cb6565b5b92915050565b5f610fbe82610ad2565b9150610fc983610ad2565b925082610fd957610fd8610e08565b5b82820690509291505056fea264697066735822122014eee69963e1d29fc251dd6657823f941bb47f60f6280776a3b2da2c4e0311c964736f6c634300081c0033","linkReferences":{}},"methodIdentifiers":{"add(uint256,uint256)":"771602f7","addAssign(uint256)":"df390b14","bitwiseAnd(uint256,uint256)":"643a5366","bitwiseNot(uint256)":"7602448b","bitwiseOr(uint256,uint256)":"01a9b8ed","bitwiseXor(uint256,uint256)":"5d48bcb4","complexExpr(uint256,uint256,uint256)":"af01c890","counter()":"61bc221a","div(uint256,uint256)":"a391c15b","divAssign(uint256)":"517cffa6","eq(uint256,uint256)":"32148d73","gt(uint256,uint256)":"21e5749b","gte(uint256,uint256)":"b4773329","lt(uint256,uint256)":"118fc88c","lte(uint256,uint256)":"ea6515c4","mod(uint256,uint256)":"f43f523a","mul(uint256,uint256)":"c8a4ac9c","mulAssign(uint256)":"aa006cc2","neq(uint256,uint256)":"7c6ed9ef","postDecrement()":"23625f8c","postIncrement()":"016e4842","preDecrement()":"f470e84b","preIncrement()":"5b59b0c8","resetCounter()":"dbdf7fce","resetValue()":"16e9fe81","setCounter(uint256)":"8bb5d9c3","setValue(uint256)":"55241077","shiftLeft(uint256,uint256)":"a589d212","shiftRight(uint256,uint256)":"1685fa98","signedAdd(int256,int256)":"3cf00077","signedDiv(int256,int256)":"673ff885","signedGt(int256,int256)":"9fd2b2e7","signedLt(int256,int256)":"ced12c9f","signedMul(int256,int256)":"048236d7","signedSub(int256,int256)":"f1e7f1f6","sub(uint256,uint256)":"b67d77c5","subAssign(uint256)":"f0774d2d","value()":"3fa4f245"},"id":0}