{"abi":[{"type":"function","name":"compareStatus","inputs":[{"name":"a","type":"unknown","internalType":"unknown"},{"name":"b","type":"unknown","internalType":"unknown"}],"outputs":[{"name":"","type":"bool","internalType":"bool"}],"stateMutability":"pure"},{"type":"function","name":"currentSize","inputs":[],"outputs":[{"name":"","type":"unknown","internalType":"unknown"}],"stateMutability":"view"},{"type":"function","name":"currentStatus","inputs":[],"outputs":[{"name":"","type":"unknown","internalType":"unknown"}],"stateMutability":"view"},{"type":"function","name":"getStatus","inputs":[],"outputs":[{"name":"","type":"unknown","internalType":"unknown"}],"stateMutability":"view"},{"type":"function","name":"isActive","inputs":[],"outputs":[{"name":"","type":"bool","internalType":"bool"}],"stateMutability":"view"},{"type":"function","name":"setSize","inputs":[{"name":"s","type":"unknown","internalType":"unknown"}],"outputs":[],"stateMutability":"nonpayable"},{"type":"function","name":"setStatus","inputs":[{"name":"s","type":"unknown","internalType":"unknown"}],"outputs":[],"stateMutability":"nonpayable"},{"type":"function","name":"statusToUint","inputs":[{"name":"s","type":"unknown","internalType":"unknown"}],"outputs":[{"name":"","type":"uint256","internalType":"uint256"}],"stateMutability":"pure"},{"type":"function","name":"uintToStatus","inputs":[{"name":"n","type":"uint256","internalType":"uint256"}],"outputs":[{"name":"","type":"unknown","internalType":"unknown"}],"stateMutability":"pure"}],"bytecode":{"object":"0x61013880600a5f395ff3608060405236600d57610134565b5f3560e01c8063ef8a9235146073578063bda1504b1460875780632e49d78b14609c5780634e69d5601460ae57806322f3e2d41460c257806399400a5a1460dc578063b77f4b291460ef5780638d1a1c3c1461010857806345bcc4131461011e57610134565b503415607d575f5ffd5b5b5f545f5260205ff35b5034156091575f5ffd5b5b6001545f5260205ff35b50341560a6575f5ffd5b5b6004355f55005b50341560b8575f5ffd5b5b5f545f5260205ff35b50341560cc575f5ffd5b5b5f546001811490505f5260205ff35b50341560e6575f5ffd5b5b600435600155005b50341560f9575f5ffd5b5b602435600435145f5260205ff35b503415610113575f5ffd5b5b6004355f5260205ff35b503415610129575f5ffd5b5b6004355f5260205ff35b5f5ffd","linkReferences":{}},"methodIdentifiers":{},"id":0}