{"abi":[{"type":"function","name":"extremeLocals","inputs":[{"name":"a","type":"uint256","internalType":"uint256"},{"name":"b","type":"uint256","internalType":"uint256"},{"name":"c","type":"uint256","internalType":"uint256"},{"name":"d","type":"uint256","internalType":"uint256"},{"name":"e","type":"uint256","internalType":"uint256"},{"name":"f","type":"uint256","internalType":"uint256"},{"name":"g","type":"uint256","internalType":"uint256"},{"name":"h","type":"uint256","internalType":"uint256"},{"name":"i","type":"uint256","internalType":"uint256"},{"name":"j","type":"uint256","internalType":"uint256"},{"name":"k","type":"uint256","internalType":"uint256"},{"name":"l","type":"uint256","internalType":"uint256"}],"outputs":[{"name":"","type":"uint256","internalType":"uint256"}],"stateMutability":"pure"},{"type":"function","name":"manyLocals","inputs":[{"name":"a","type":"uint256","internalType":"uint256"},{"name":"b","type":"uint256","internalType":"uint256"},{"name":"c","type":"uint256","internalType":"uint256"},{"name":"d","type":"uint256","internalType":"uint256"},{"name":"e","type":"uint256","internalType":"uint256"},{"name":"f","type":"uint256","internalType":"uint256"},{"name":"g","type":"uint256","internalType":"uint256"},{"name":"h","type":"uint256","internalType":"uint256"}],"outputs":[{"name":"","type":"uint256","internalType":"uint256"}],"stateMutability":"pure"}],"bytecode":{"object":"0x61023d80600a5f395ff35f3560e01c8063e8562f3714601e57806341cd78ab1461010b57610239565b5034156028575f5ffd5b5b602435600435016080526064356044350160a05260a4356084350160c05260e43560c4350160e05260805160a051016101005260c05160e05101610120526101005161012051016101405261014051600435900161016052610160516024359001610180526101805160443590016101a0526101a05160643590016101c0526101c05160843590016101e05260805160a05160c05160e05161010051610120516101405161016051610180516101a0516101c0516101e05160e43560c4350160a435019001900190019001900190019001900190019001900190015f5260205ff35b503415610116575f5ffd5b5b602435600435026080526064356044350260a05260a4356084350260c05260e43560c4350260e052610124356101043502610100526101643561014435026101205260805160a051016101405260c05160e0510161016052610100516101205101610180526101405161016051016101a052610180516101a051016101c0526101c05160643560443501602435016004350190016101e0526101e05160e43560c4350160a4350160843501900161020052610200516101643561014435016101243501610104350190016102205260805160a05160c05160e05161010051610120516101405161016051610180516101a0516101c0516101e0516102005161022051019001900190019001900190019001900190019001900190015f5260205ff35b5f5ffd","linkReferences":{}},"methodIdentifiers":{},"id":1}