{"abi":[{"type":"function","name":"add","inputs":[{"name":"a","type":"uint256","internalType":"uint256"},{"name":"b","type":"uint256","internalType":"uint256"}],"outputs":[{"name":"","type":"uint256","internalType":"uint256"}],"stateMutability":"pure"},{"type":"function","name":"bitwiseAnd","inputs":[{"name":"a","type":"uint256","internalType":"uint256"},{"name":"b","type":"uint256","internalType":"uint256"}],"outputs":[{"name":"","type":"uint256","internalType":"uint256"}],"stateMutability":"pure"},{"type":"function","name":"bitwiseOr","inputs":[{"name":"a","type":"uint256","internalType":"uint256"},{"name":"b","type":"uint256","internalType":"uint256"}],"outputs":[{"name":"","type":"uint256","internalType":"uint256"}],"stateMutability":"pure"},{"type":"function","name":"deepNested","inputs":[{"name":"x","type":"uint256","internalType":"uint256"}],"outputs":[{"name":"","type":"uint256","internalType":"uint256"}],"stateMutability":"pure"},{"type":"function","name":"inner","inputs":[{"name":"x","type":"uint256","internalType":"uint256"}],"outputs":[{"name":"","type":"uint256","internalType":"uint256"}],"stateMutability":"pure"},{"type":"function","name":"mixedBitwise","inputs":[{"name":"a","type":"uint256","internalType":"uint256"},{"name":"b","type":"uint256","internalType":"uint256"}],"outputs":[{"name":"","type":"uint256","internalType":"uint256"}],"stateMutability":"view"},{"type":"function","name":"mul","inputs":[{"name":"a","type":"uint256","internalType":"uint256"},{"name":"b","type":"uint256","internalType":"uint256"}],"outputs":[{"name":"","type":"uint256","internalType":"uint256"}],"stateMutability":"pure"},{"type":"function","name":"nested2","inputs":[{"name":"a","type":"uint256","internalType":"uint256"},{"name":"b","type":"uint256","internalType":"uint256"},{"name":"c","type":"uint256","internalType":"uint256"}],"outputs":[{"name":"","type":"uint256","internalType":"uint256"}],"stateMutability":"pure"},{"type":"function","name":"nested3","inputs":[{"name":"a","type":"uint256","internalType":"uint256"},{"name":"b","type":"uint256","internalType":"uint256"},{"name":"c","type":"uint256","internalType":"uint256"},{"name":"d","type":"uint256","internalType":"uint256"}],"outputs":[{"name":"","type":"uint256","internalType":"uint256"}],"stateMutability":"pure"},{"type":"function","name":"nestedShifts","inputs":[{"name":"x","type":"uint256","internalType":"uint256"}],"outputs":[{"name":"","type":"uint256","internalType":"uint256"}],"stateMutability":"view"},{"type":"function","name":"outer","inputs":[{"name":"x","type":"uint256","internalType":"uint256"}],"outputs":[{"name":"","type":"uint256","internalType":"uint256"}],"stateMutability":"view"},{"type":"function","name":"shiftLeft","inputs":[{"name":"a","type":"uint256","internalType":"uint256"},{"name":"bits","type":"uint256","internalType":"uint256"}],"outputs":[{"name":"","type":"uint256","internalType":"uint256"}],"stateMutability":"pure"},{"type":"function","name":"shiftRight","inputs":[{"name":"a","type":"uint256","internalType":"uint256"},{"name":"bits","type":"uint256","internalType":"uint256"}],"outputs":[{"name":"","type":"uint256","internalType":"uint256"}],"stateMutability":"pure"}],"bytecode":{"object":"0x61051d80600a5f395ff361400060405236600e57610519565b5f3560e01c8063771602f71460a4578063c8a4ac9c1460c15780634e220aab1460de57806314ca20b414610102578063b9b196131461012b578063c715a02a1461015457806394209e4314610171578063643a53661461024557806301a9b8ed14610263578063996a4b0f14610281578063a589d212146103e85780631685fa9814610406578063eecfedef1461042457610519565b50341560ae575f5ffd5b5b5f608052602435600435015f5260205ff35b50341560cb575f5ffd5b5b5f608052602435600435025f5260205ff35b50341560e8575f5ffd5b5b5f60805260243560043502604435810190505f5260205ff35b50341561010d575f5ffd5b5b5f6080526024356004350160643560443501810190505f5260205ff35b503415610136575f5ffd5b5b5f6080526001600435016002810190506003810190505f5260205ff35b50341561015f575f5ffd5b5b5f6080526002600435025f5260205ff35b50341561017c575f5ffd5b5b5f608052305f5260405180611000526020527fc715a02a0000000000000000000000000000000000000000000000000000000061100051806110005252600461100051016004358152505f515a60205160205f60246020515f5f515af1505050505f51305f5260405180611020526020527fc715a02a00000000000000000000000000000000000000000000000000000000611020518061102052526004611020510181815250505f515a60205160205f60246020515f5f515af1505050505f515f5260205ff35b503415610250575f5ffd5b5b5f608052602435600435165f5260205ff35b50341561026e575f5ffd5b5b5f608052602435600435175f5260205ff35b50341561028c575f5ffd5b5b5f608052305f5260405180611000526020527f643a536600000000000000000000000000000000000000000000000000000000611000518061100052526004611000518061100052016004358152506024611000510160f08152505f515a60205160205f60446020515f5f515af1505050505f51305f5260405180611020526020527f643a5366000000000000000000000000000000000000000000000000000000006110205180611020525260046110205180611020520160243581525060246110205101600f8152505f515a60205160205f60446020515f5f515af1505050505f51305f5260405180611040526020527f01a9b8ed00000000000000000000000000000000000000000000000000000000611040518061104052526004611040518061104052018281525090506024611040510181815250505f515a60205160205f60446020515f5f515af1505050505f515f5260205ff35b5034156103f3575f5ffd5b5b5f6080526004356024351b5f5260205ff35b503415610411575f5ffd5b5b5f6080526004356024351c5f5260205ff35b50341561042f575f5ffd5b5b5f608052305f5260405180611000526020527fa589d212000000000000000000000000000000000000000000000000000000006110005180611000525260046110005180611000520160018152506024611000510160088152505f515a60205160205f60446020515f5f515af1505050505f51305f5260405180611020526020527f1685fa98000000000000000000000000000000000000000000000000000000006110205180611020525260046110205180611020520181815250506024611020510160048152505f515a60205160205f60446020515f5f515af1505050505f515f5260205ff35b5f5ffd","linkReferences":{}},"methodIdentifiers":{"add(uint256,uint256)":"771602f7","bitwiseAnd(uint256,uint256)":"643a5366","bitwiseOr(uint256,uint256)":"01a9b8ed","deepNested(uint256)":"b9b19613","inner(uint256)":"c715a02a","mixedBitwise(uint256,uint256)":"996a4b0f","mul(uint256,uint256)":"c8a4ac9c","nested2(uint256,uint256,uint256)":"4e220aab","nested3(uint256,uint256,uint256,uint256)":"14ca20b4","nestedShifts(uint256)":"eecfedef","outer(uint256)":"94209e43","shiftLeft(uint256,uint256)":"a589d212","shiftRight(uint256,uint256)":"1685fa98"},"id":1}