{"abi":[{"type":"function","name":"emitSimple","inputs":[{"name":"val","type":"uint256","internalType":"uint256"}],"outputs":[],"stateMutability":"nonpayable"},{"type":"function","name":"emitTransfer","inputs":[{"name":"from","type":"address","internalType":"address"},{"name":"to","type":"address","internalType":"address"},{"name":"value","type":"uint256","internalType":"uint256"}],"outputs":[],"stateMutability":"nonpayable"},{"type":"event","name":"Approval","inputs":[{"name":"owner","type":"address","indexed":true,"internalType":"address"},{"name":"spender","type":"address","indexed":true,"internalType":"address"},{"name":"value","type":"uint256","indexed":false,"internalType":"uint256"}],"anonymous":false},{"type":"event","name":"SimpleEvent","inputs":[{"name":"value","type":"uint256","indexed":false,"internalType":"uint256"}],"anonymous":false},{"type":"event","name":"Transfer","inputs":[{"name":"from","type":"address","indexed":true,"internalType":"address"},{"name":"to","type":"address","indexed":true,"internalType":"address"},{"name":"value","type":"uint256","indexed":false,"internalType":"uint256"}],"anonymous":false}],"bytecode":{"object":"0x6080604052348015600e575f5ffd5b5061027e8061001c5f395ff3fe608060405234801561000f575f5ffd5b5060043610610034575f3560e01c806323de665114610038578063d0ee85c814610054575b5f5ffd5b610052600480360381019061004d91906101a5565b610070565b005b61006e600480360381019061006991906101f5565b6100da565b005b8173ffffffffffffffffffffffffffffffffffffffff168373ffffffffffffffffffffffffffffffffffffffff167fddf252ad1be2c89b69c2b068fc378daa952ba7f163c4a11628f55a4df523b3ef836040516100cd919061022f565b60405180910390a3505050565b7f12d199749b3f4c44df8d9386c63d725b7756ec47204f3aa0bf05ea832f89effb81604051610109919061022f565b60405180910390a150565b5f5ffd5b5f73ffffffffffffffffffffffffffffffffffffffff82169050919050565b5f61014182610118565b9050919050565b61015181610137565b811461015b575f5ffd5b50565b5f8135905061016c81610148565b92915050565b5f819050919050565b61018481610172565b811461018e575f5ffd5b50565b5f8135905061019f8161017b565b92915050565b5f5f5f606084860312156101bc576101bb610114565b5b5f6101c98682870161015e565b93505060206101da8682870161015e565b92505060406101eb86828701610191565b9150509250925092565b5f6020828403121561020a57610209610114565b5b5f61021784828501610191565b91505092915050565b61022981610172565b82525050565b5f6020820190506102425f830184610220565b9291505056fea2646970667358221220df346197f35c0c26640453dd9b6b0e987f244bc86826d6deb4daf41b384cfa6b64736f6c634300081c0033","linkReferences":{}},"methodIdentifiers":{"emitSimple(uint256)":"d0ee85c8","emitTransfer(address,address,uint256)":"23de6651"},"id":0}