{"abi":[{"type":"function","name":"decodeMultiple","inputs":[{"name":"data","type":"bytes","internalType":"bytes"}],"outputs":[{"name":"","type":"uint256","internalType":"uint256"},{"name":"","type":"uint256","internalType":"uint256"}],"stateMutability":"pure"},{"type":"function","name":"decodeUint","inputs":[{"name":"data","type":"bytes","internalType":"bytes"}],"outputs":[{"name":"","type":"uint256","internalType":"uint256"}],"stateMutability":"pure"},{"type":"function","name":"encodeMultiple","inputs":[{"name":"a","type":"uint256","internalType":"uint256"},{"name":"b","type":"uint256","internalType":"uint256"},{"name":"c","type":"uint256","internalType":"uint256"}],"outputs":[{"name":"","type":"bytes","internalType":"bytes"}],"stateMutability":"pure"},{"type":"function","name":"encodePacked","inputs":[{"name":"a","type":"uint256","internalType":"uint256"},{"name":"b","type":"uint256","internalType":"uint256"}],"outputs":[{"name":"","type":"bytes","internalType":"bytes"}],"stateMutability":"pure"},{"type":"function","name":"encodeUint","inputs":[{"name":"a","type":"uint256","internalType":"uint256"}],"outputs":[{"name":"","type":"bytes","internalType":"bytes"}],"stateMutability":"pure"},{"type":"function","name":"roundtrip","inputs":[{"name":"a","type":"uint256","internalType":"uint256"}],"outputs":[{"name":"","type":"uint256","internalType":"uint256"}],"stateMutability":"pure"}],"bytecode":{"object":"0x60eb8060095f395ff3608060405236600c5760e7565b5f3560e01c8063d30c0a641460515780633fa97c1a146066578063107a12541460845780636ff247011460a85780632f6222fc1460bb57806333cddcf61460ce5760e7565b503415605b575f5ffd5b5b6004355f5260205ff35b5034156070575f5ffd5b5b6004355f526024356020525f5f5260205ff35b503415608e575f5ffd5b5b6004355f526024356020526044356040525f5f5260205ff35b50341560b2575f5ffd5b5b5f5f5260205ff35b50341560c5575f5ffd5b5b5f5f5260205ff35b50341560d8575f5ffd5b5b60043560a0525f5f5260205ff35b5f5ffd","linkReferences":{}},"methodIdentifiers":{},"id":0}