{"abi":[{"type":"function","name":"balanceOf","inputs":[{"name":"","type":"address","internalType":"address"}],"outputs":[{"name":"","type":"uint256","internalType":"uint256"}],"stateMutability":"view"},{"type":"function","name":"mint","inputs":[{"name":"to","type":"address","internalType":"address"},{"name":"amount","type":"uint256","internalType":"uint256"}],"outputs":[],"stateMutability":"nonpayable"},{"type":"function","name":"totalSupply","inputs":[],"outputs":[{"name":"","type":"uint256","internalType":"uint256"}],"stateMutability":"view"}],"bytecode":{"object":"0x6080604052348015600e575f5ffd5b506102f28061001c5f395ff3fe608060405234801561000f575f5ffd5b506004361061003f575f3560e01c806318160ddd1461004357806340c10f191461006157806370a082311461007d575b5f5ffd5b61004b6100ad565b6040516100589190610152565b60405180910390f35b61007b600480360381019061007691906101f3565b6100b3565b005b61009760048036038101906100929190610231565b6100c1565b6040516100a49190610152565b60405180910390f35b60015481565b6100bd82826100d5565b5050565b5f602052805f5260405f205f915090505481565b8060015f8282546100e69190610289565b92505081905550805f5f8473ffffffffffffffffffffffffffffffffffffffff1673ffffffffffffffffffffffffffffffffffffffff1681526020019081526020015f205f82825401925050819055505050565b5f819050919050565b61014c8161013a565b82525050565b5f6020820190506101655f830184610143565b92915050565b5f5ffd5b5f73ffffffffffffffffffffffffffffffffffffffff82169050919050565b5f6101988261016f565b9050919050565b6101a88161018e565b81146101b2575f5ffd5b50565b5f813590506101c38161019f565b92915050565b6101d28161013a565b81146101dc575f5ffd5b50565b5f813590506101ed816101c9565b92915050565b5f5f604083850312156102095761020861016b565b5b5f610216858286016101b5565b9250506020610227858286016101df565b9150509250929050565b5f602082840312156102465761024561016b565b5b5f610253848285016101b5565b91505092915050565b7f4e487b71000000000000000000000000000000000000000000000000000000005f52601160045260245ffd5b5f6102938261013a565b915061029e8361013a565b92508282019050808211156102b6576102b561025c565b5b9291505056fea264697066735822122058aed0de83c358ef2e425653e0959b0920efe670425fe2d161712b8ed66b9a7f64736f6c634300081c0033","linkReferences":{}},"methodIdentifiers":{"balanceOf(address)":"70a08231","mint(address,uint256)":"40c10f19","totalSupply()":"18160ddd"},"id":1}