{"abi":[{"type":"function","name":"callTarget","inputs":[{"name":"target","type":"address","internalType":"address"},{"name":"v","type":"uint256","internalType":"uint256"}],"outputs":[{"name":"","type":"bool","internalType":"bool"}],"stateMutability":"nonpayable"},{"type":"function","name":"delegateCallTarget","inputs":[{"name":"target","type":"address","internalType":"address"},{"name":"v","type":"uint256","internalType":"uint256"}],"outputs":[{"name":"","type":"bool","internalType":"bool"}],"stateMutability":"nonpayable"},{"type":"function","name":"staticCallTarget","inputs":[{"name":"target","type":"address","internalType":"address"}],"outputs":[{"name":"","type":"uint256","internalType":"uint256"}],"stateMutability":"view"},{"type":"function","name":"value","inputs":[],"outputs":[{"name":"","type":"uint256","internalType":"uint256"}],"stateMutability":"view"}],"bytecode":{"object":"0x61014980600a5f395ff3608060405236600d57610145565b5f3560e01c80633fa4f24514603f57806348bce0641460535780639fa2ed2e1460a1578063409385141460f757610145565b5034156049575f5ffd5b5b5f545f5260205ff35b503415605d575f5ffd5b5b7f73657456616c75652875696e74323536290000000000000000000000000000005f526024356020525a5f5f5f5f5f60043586f1905060a05260a0515f5260205ff35b50341560ab575f5ffd5b5b5a5f5f7f67657456616c75652829000000000000000000000000000000000000000000005f60043585fa905060a05260205160c05260a0511560ec5760ef565b5ffd5b5f5f5260205ff35b503415610102575f5ffd5b5b7f73657456616c75652875696e74323536290000000000000000000000000000005f526024356020525a5f5f5f5f60043585f4905060a05260a0515f5260205ff35b5f5ffd","linkReferences":{}},"methodIdentifiers":{},"id":0}