{"abi":[{"type":"function","name":"add","inputs":[{"name":"a","type":"uint256","internalType":"uint256"},{"name":"b","type":"uint256","internalType":"uint256"}],"outputs":[{"name":"","type":"uint256","internalType":"uint256"}],"stateMutability":"pure"},{"type":"function","name":"getValue","inputs":[],"outputs":[{"name":"","type":"uint256","internalType":"uint256"}],"stateMutability":"view"},{"type":"function","name":"setValue","inputs":[{"name":"v","type":"uint256","internalType":"uint256"}],"outputs":[],"stateMutability":"nonpayable"},{"type":"function","name":"value","inputs":[],"outputs":[{"name":"","type":"uint256","internalType":"uint256"}],"stateMutability":"view"}],"bytecode":{"object":"0x60948060095f395ff3608060405236600c576090565b5f3560e01c80633fa4f24514603d5780635524107714605157806320965255146063578063771602f7146077576090565b5034156047575f5ffd5b5b5f545f5260205ff35b503415605b575f5ffd5b5b6004355f55005b503415606d575f5ffd5b5b5f545f5260205ff35b5034156081575f5ffd5b5b602435600435015f5260205ff35b5f5ffd","linkReferences":{}},"methodIdentifiers":{},"id":0}