{"abi":[{"type":"function","name":"callAdd","inputs":[{"name":"callee","type":"address","internalType":"address"},{"name":"a","type":"uint256","internalType":"uint256"},{"name":"b","type":"uint256","internalType":"uint256"}],"outputs":[{"name":"","type":"uint256","internalType":"uint256"}],"stateMutability":"view"},{"type":"function","name":"callMultiply","inputs":[{"name":"callee","type":"address","internalType":"address"},{"name":"a","type":"uint256","internalType":"uint256"},{"name":"b","type":"uint256","internalType":"uint256"}],"outputs":[{"name":"","type":"uint256","internalType":"uint256"}],"stateMutability":"view"},{"type":"function","name":"chainedCalls","inputs":[{"name":"callee","type":"address","internalType":"address"},{"name":"x","type":"uint256","internalType":"uint256"}],"outputs":[{"name":"","type":"uint256","internalType":"uint256"}],"stateMutability":"view"},{"type":"function","name":"multipleCallsWithAssert","inputs":[{"name":"callee","type":"address","internalType":"address"},{"name":"x","type":"uint256","internalType":"uint256"}],"outputs":[{"name":"","type":"uint256","internalType":"uint256"}],"stateMutability":"view"},{"type":"function","name":"threeCallsWithAssert","inputs":[{"name":"callee","type":"address","internalType":"address"},{"name":"x","type":"uint256","internalType":"uint256"}],"outputs":[{"name":"","type":"uint256","internalType":"uint256"}],"stateMutability":"view"}],"bytecode":{"object":"0x61057880600a5f395ff361400060405236600e57610574565b5f3560e01c806380b0d62c14604d57806374f610091460d657806372e2d8f11461015f578063c4140647146102595780637e7fc8bb1461039157610574565b5034156057575f5ffd5b5b5f6080526004355f5260405180611000526020527f771602f70000000000000000000000000000000000000000000000000000000061100051806110005252600461100051806110005201602435815250602461100051016044358152505f515a60205160205f60446020515f5f515af1505050505f515f5260205ff35b50341560e0575f5ffd5b5b5f6080526004355f5260405180611000526020527f165c4a160000000000000000000000000000000000000000000000000000000061100051806110005252600461100051806110005201602435815250602461100051016044358152505f515a60205160205f60446020515f5f515af1505050505f515f5260205ff35b50341561016a575f5ffd5b5b5f6080526004355f5260405180611000526020527f771602f7000000000000000000000000000000000000000000000000000000006110005180611000525260046110005180611000520160243581525060246110005101600a8152505f515a60205160205f60446020515f5f515af1505050505f516004355f5260405180611020526020527f165c4a16000000000000000000000000000000000000000000000000000000006110205180611020525260046110205180611020520181815250506024611020510160028152505f515a60205160205f60446020515f5f515af1505050505f515f5260205ff35b503415610264575f5ffd5b5b5f6080526004355f5260405180611040526020527f771602f700000000000000000000000000000000000000000000000000000000611040518061104052526004611040518061104052016024358152506024611040510160018152505f515a60205160205f60446020515f5f515af1505050505f5180611000526004355f5260405180611060526020527f771602f700000000000000000000000000000000000000000000000000000000611060518061106052526004611060518061106052016024358152506024611060510160018152505f515a60205160205f60446020515f5f515af1505050505f51806110205281611000528061102052806110205281806110005214158161100052905061037e57610381565b5ffd5b6110205161100051015f5260205ff35b50341561039c575f5ffd5b5b5f6080526004355f5260405180611060526020527f771602f70000000000000000000000000000000000000000000000000000000061106051806110605252600461106051806110605201602435815250602461106051015f8152505f515a60205160205f60446020515f5f515af1505050505f5180611000526004355f5260405180611080526020527f771602f70000000000000000000000000000000000000000000000000000000061108051806110805252600461108051806110805201602435815250602461108051015f8152505f515a60205160205f60446020515f5f515af1505050505f5180611020526004355f52604051806110a0526020527f771602f7000000000000000000000000000000000000000000000000000000006110a051806110a0525260046110a051806110a0520160243581525060246110a051015f8152505f515a60205160205f60446020515f5f515af1505050505f5180611040528261100052816110205281806110205283806110005214158361100052826110205281611040529050905090506105395761053c565b5ffd5b61104051806110405261102051806110205214156105595761055c565b5ffd5b61102051611000510161104051810190505f5260205ff35b5f5ffd","linkReferences":{}},"methodIdentifiers":{"callAdd(address,uint256,uint256)":"80b0d62c","callMultiply(address,uint256,uint256)":"74f61009","chainedCalls(address,uint256)":"72e2d8f1","multipleCallsWithAssert(address,uint256)":"c4140647","threeCallsWithAssert(address,uint256)":"7e7fc8bb"},"id":0}