{"abi":[{"type":"function","name":"add","inputs":[{"name":"a","type":"uint256","internalType":"uint256"},{"name":"b","type":"uint256","internalType":"uint256"}],"outputs":[{"name":"","type":"uint256","internalType":"uint256"}],"stateMutability":"pure"},{"type":"function","name":"multiply","inputs":[{"name":"a","type":"uint256","internalType":"uint256"},{"name":"b","type":"uint256","internalType":"uint256"}],"outputs":[{"name":"","type":"uint256","internalType":"uint256"}],"stateMutability":"pure"}],"bytecode":{"object":"0x60688060095f395ff361400060405236600d576064565b5f3560e01c8063771602f714602a578063165c4a16146047576064565b5034156034575f5ffd5b5b5f608052602435600435015f5260205ff35b5034156051575f5ffd5b5b5f608052602435600435025f5260205ff35b5f5ffd","linkReferences":{}},"methodIdentifiers":{"add(uint256,uint256)":"771602f7","multiply(uint256,uint256)":"165c4a16"},"id":0}