{"abi":[{"type":"function","name":"divideByLocal","inputs":[],"outputs":[{"name":"a","type":"uint256","internalType":"uint256"},{"name":"b","type":"uint256","internalType":"uint256"}],"stateMutability":"nonpayable"},{"type":"function","name":"localAsFirst","inputs":[],"outputs":[{"name":"a","type":"uint256","internalType":"uint256"},{"name":"b","type":"uint256","internalType":"uint256"}],"stateMutability":"nonpayable"},{"type":"function","name":"moduloByLocal","inputs":[],"outputs":[{"name":"a","type":"uint256","internalType":"uint256"},{"name":"b","type":"uint256","internalType":"uint256"}],"stateMutability":"nonpayable"},{"type":"function","name":"setX","inputs":[{"name":"val","type":"uint256","internalType":"uint256"}],"outputs":[],"stateMutability":"nonpayable"},{"type":"function","name":"subtractFromLocal","inputs":[],"outputs":[{"name":"a","type":"uint256","internalType":"uint256"},{"name":"b","type":"uint256","internalType":"uint256"}],"stateMutability":"nonpayable"},{"type":"function","name":"x","inputs":[],"outputs":[{"name":"","type":"uint256","internalType":"uint256"}],"stateMutability":"view"}],"bytecode":{"object":"0x6080604052348015600e575f5ffd5b506103dd8061001c5f395ff3fe608060405234801561000f575f5ffd5b5060043610610060575f3560e01c80630c55699c146100645780634018d9aa14610082578063471914921461009e5780636c9748f6146100bd578063b668793e146100dc578063ea54118d146100fb575b5f5ffd5b61006c61011a565b60405161007991906101ee565b60405180910390f35b61009c60048036038101906100979190610235565b61011f565b005b6100a6610128565b6040516100b4929190610260565b60405180910390f35b6100c5610154565b6040516100d3929190610260565b60405180910390f35b6100e461017e565b6040516100f2929190610260565b60405180910390f35b6101036101aa565b604051610111929190610260565b60405180910390f35b5f5481565b805f8190555050565b5f5f5f5f549050806103e861013d91906102b4565b9250806107d061014d91906102b4565b9150509091565b5f5f5f5f5490506001816101689190610311565b92506002816101779190610311565b9150509091565b5f5f5f5f549050806103e86101939190610344565b9250806107d06101a39190610344565b9150509091565b5f5f5f5f549050806103e86101bf9190610374565b9250806101f46101cf9190610374565b9150509091565b5f819050919050565b6101e8816101d6565b82525050565b5f6020820190506102015f8301846101df565b92915050565b5f5ffd5b610214816101d6565b811461021e575f5ffd5b50565b5f8135905061022f8161020b565b92915050565b5f6020828403121561024a57610249610207565b5b5f61025784828501610221565b91505092915050565b5f6040820190506102735f8301856101df565b61028060208301846101df565b9392505050565b7f4e487b71000000000000000000000000000000000000000000000000000000005f52601260045260245ffd5b5f6102be826101d6565b91506102c9836101d6565b9250826102d9576102d8610287565b5b828206905092915050565b7f4e487b71000000000000000000000000000000000000000000000000000000005f52601160045260245ffd5b5f61031b826101d6565b9150610326836101d6565b925082820190508082111561033e5761033d6102e4565b5b92915050565b5f61034e826101d6565b9150610359836101d6565b92508261036957610368610287565b5b828204905092915050565b5f61037e826101d6565b9150610389836101d6565b92508282039050818111156103a1576103a06102e4565b5b9291505056fea2646970667358221220d9030a34fecdbbf23355f45ba0022d5b80900646c9bedea6832becbb75ae265d64736f6c634300081c0033","linkReferences":{}},"methodIdentifiers":{"divideByLocal()":"b668793e","localAsFirst()":"6c9748f6","moduloByLocal()":"47191492","setX(uint256)":"4018d9aa","subtractFromLocal()":"ea54118d","x()":"0c55699c"},"id":2}