{"abi":[{"type":"function","name":"divideChecked","inputs":[{"name":"a","type":"uint256","internalType":"uint256"},{"name":"b","type":"uint256","internalType":"uint256"}],"outputs":[{"name":"","type":"uint256","internalType":"uint256"}],"stateMutability":"pure"},{"type":"function","name":"requireTrue","inputs":[{"name":"cond","type":"bool","internalType":"bool"}],"outputs":[],"stateMutability":"pure"},{"type":"function","name":"requireWithMessage","inputs":[{"name":"cond","type":"bool","internalType":"bool"}],"outputs":[],"stateMutability":"pure"},{"type":"function","name":"revertAlways","inputs":[],"outputs":[],"stateMutability":"pure"},{"type":"function","name":"revertWithMessage","inputs":[],"outputs":[],"stateMutability":"pure"}],"bytecode":{"object":"0x60cc8060095f395ff361400060405236600d5760c8565b5f3560e01c806367ebb3ef146048578063c19972f1146063578063975af67a14607e578063185c38a414608c578063201b8bd214609a5760c8565b5034156052575f5ffd5b5b60043515605e576061565b5ffd5b005b503415606d575f5ffd5b5b60043515607957607c565b5ffd5b005b5034156088575f5ffd5b5b5ffd5b5034156096575f5ffd5b5b5ffd5b50341560a4575f5ffd5b5b5f6080525f60243514151560b75760ba565b5ffd5b602435600435045f5260205ff35b5f5ffd","linkReferences":{}},"methodIdentifiers":{"divideChecked(uint256,uint256)":"201b8bd2","requireTrue(bool)":"67ebb3ef","requireWithMessage(bool)":"c19972f1","revertAlways()":"975af67a","revertWithMessage()":"185c38a4"},"id":2}