{"abi":[{"type":"function","name":"childValue","inputs":[],"outputs":[{"name":"","type":"uint256","internalType":"uint256"}],"stateMutability":"view"},{"type":"function","name":"parentValue","inputs":[],"outputs":[{"name":"","type":"uint256","internalType":"uint256"}],"stateMutability":"view"},{"type":"function","name":"setBoth","inputs":[{"name":"p","type":"uint256","internalType":"uint256"},{"name":"c","type":"uint256","internalType":"uint256"}],"outputs":[],"stateMutability":"nonpayable"},{"type":"function","name":"setChild","inputs":[{"name":"v","type":"uint256","internalType":"uint256"}],"outputs":[],"stateMutability":"nonpayable"},{"type":"function","name":"setParent","inputs":[{"name":"v","type":"uint256","internalType":"uint256"}],"outputs":[],"stateMutability":"nonpayable"}],"bytecode":{"object":"0x60ba8060095f395ff361400060405236600d5760b6565b5f3560e01c806339c82a751460485780639d100dd514606157806392cf1ef51460745780632520646214608c578063257002f01460a45760b6565b5034156052575f5ffd5b5b5f6080526001545f5260205ff35b503415606b575f5ffd5b5b600435600155005b503415607e575f5ffd5b5b6004355f55602435600155005b5034156096575f5ffd5b5b5f6080525f545f5260205ff35b50341560ae575f5ffd5b5b6004355f55005b5f5ffd","linkReferences":{}},"methodIdentifiers":{"childValue()":"39c82a75","parentValue()":"25206462","setBoth(uint256,uint256)":"92cf1ef5","setChild(uint256)":"9d100dd5","setParent(uint256)":"257002f0"},"id":0}