{"abi":[{"type":"function","name":"anotherValue","inputs":[],"outputs":[{"name":"","type":"uint256","internalType":"uint256"}],"stateMutability":"view"},{"type":"function","name":"getAnotherValue","inputs":[],"outputs":[{"name":"","type":"uint256","internalType":"uint256"}],"stateMutability":"view"},{"type":"function","name":"getValue","inputs":[],"outputs":[{"name":"","type":"uint256","internalType":"uint256"}],"stateMutability":"view"},{"type":"function","name":"owner","inputs":[],"outputs":[{"name":"","type":"address","internalType":"address"}],"stateMutability":"view"},{"type":"function","name":"value","inputs":[],"outputs":[{"name":"","type":"uint256","internalType":"uint256"}],"stateMutability":"view"}],"bytecode":{"object":"0x5b602a5f55606460015561123460025560c18060195f395ff35f3560e01c80633fa4f24514605657806368620bd014606a5780638da5cb5b14607f5780632096525514609457806325d805cf1460a85760bd565b5034156044575f5ffd5b5b602a5f556064600155611234600255005b5034156060575f5ffd5b5b5f545f5260205ff35b5034156074575f5ffd5b5b6001545f5260205ff35b5034156089575f5ffd5b5b6002545f5260205ff35b503415609e575f5ffd5b5b5f545f5260205ff35b50341560b2575f5ffd5b5b6001545f5260205ff35b5f5ffd","linkReferences":{}},"methodIdentifiers":{},"id":4}