{"abi":[{"type":"function","name":"chainedOps","inputs":[{"name":"a","type":"uint256","internalType":"uint256"},{"name":"b","type":"uint256","internalType":"uint256"},{"name":"c","type":"uint256","internalType":"uint256"}],"outputs":[{"name":"","type":"uint256","internalType":"uint256"}],"stateMutability":"pure"},{"type":"function","name":"safeAddDirect","inputs":[{"name":"a","type":"uint256","internalType":"uint256"},{"name":"b","type":"uint256","internalType":"uint256"}],"outputs":[{"name":"","type":"uint256","internalType":"uint256"}],"stateMutability":"pure"},{"type":"function","name":"safeMulDirect","inputs":[{"name":"a","type":"uint256","internalType":"uint256"},{"name":"b","type":"uint256","internalType":"uint256"}],"outputs":[{"name":"","type":"uint256","internalType":"uint256"}],"stateMutability":"pure"},{"type":"function","name":"safeSubDirect","inputs":[{"name":"a","type":"uint256","internalType":"uint256"},{"name":"b","type":"uint256","internalType":"uint256"}],"outputs":[{"name":"","type":"uint256","internalType":"uint256"}],"stateMutability":"pure"}],"bytecode":{"object":"0x6080604052348015600e575f5ffd5b5061039f8061001c5f395ff3fe608060405234801561000f575f5ffd5b506004361061004a575f3560e01c8063079e29551461004e57806356c14fde1461007e578063abb209ae146100ae578063fa3c9d39146100de575b5f5ffd5b610068600480360381019061006391906101df565b61010e565b604051610075919061022c565b60405180910390f35b610098600480360381019061009391906101df565b610121565b6040516100a5919061022c565b60405180910390f35b6100c860048036038101906100c391906101df565b610134565b6040516100d5919061022c565b60405180910390f35b6100f860048036038101906100f39190610245565b610147565b604051610105919061022c565b60405180910390f35b5f6101198383610169565b905092915050565b5f61012c838361017e565b905092915050565b5f61013f8383610193565b905092915050565b5f5f6101538585610193565b905061015f8184610169565b9150509392505050565b5f818361017691906102c2565b905092915050565b5f818361018b9190610303565b905092915050565b5f81836101a09190610336565b905092915050565b5f5ffd5b5f819050919050565b6101be816101ac565b81146101c8575f5ffd5b50565b5f813590506101d9816101b5565b92915050565b5f5f604083850312156101f5576101f46101a8565b5b5f610202858286016101cb565b9250506020610213858286016101cb565b9150509250929050565b610226816101ac565b82525050565b5f60208201905061023f5f83018461021d565b92915050565b5f5f5f6060848603121561025c5761025b6101a8565b5b5f610269868287016101cb565b935050602061027a868287016101cb565b925050604061028b868287016101cb565b9150509250925092565b7f4e487b71000000000000000000000000000000000000000000000000000000005f52601160045260245ffd5b5f6102cc826101ac565b91506102d7836101ac565b92508282026102e5816101ac565b915082820484148315176102fc576102fb610295565b5b5092915050565b5f61030d826101ac565b9150610318836101ac565b92508282039050818111156103305761032f610295565b5b92915050565b5f610340826101ac565b915061034b836101ac565b925082820190508082111561036357610362610295565b5b9291505056fea26469706673582212209d10b262e7eebf9c628bfceceb28bdd3fd7ab44b7f5ac42efb868322aeeddc6964736f6c634300081c0033","linkReferences":{}},"methodIdentifiers":{"chainedOps(uint256,uint256,uint256)":"fa3c9d39","safeAddDirect(uint256,uint256)":"abb209ae","safeMulDirect(uint256,uint256)":"079e2955","safeSubDirect(uint256,uint256)":"56c14fde"},"id":1}