{"abi":[{"type":"function","name":"chainedOps","inputs":[{"name":"a","type":"uint256","internalType":"uint256"},{"name":"b","type":"uint256","internalType":"uint256"},{"name":"c","type":"uint256","internalType":"uint256"}],"outputs":[{"name":"","type":"uint256","internalType":"uint256"}],"stateMutability":"pure"},{"type":"function","name":"safeAddDirect","inputs":[{"name":"a","type":"uint256","internalType":"uint256"},{"name":"b","type":"uint256","internalType":"uint256"}],"outputs":[{"name":"","type":"uint256","internalType":"uint256"}],"stateMutability":"pure"},{"type":"function","name":"safeMulDirect","inputs":[{"name":"a","type":"uint256","internalType":"uint256"},{"name":"b","type":"uint256","internalType":"uint256"}],"outputs":[{"name":"","type":"uint256","internalType":"uint256"}],"stateMutability":"pure"},{"type":"function","name":"safeSubDirect","inputs":[{"name":"a","type":"uint256","internalType":"uint256"},{"name":"b","type":"uint256","internalType":"uint256"}],"outputs":[{"name":"","type":"uint256","internalType":"uint256"}],"stateMutability":"pure"}],"bytecode":{"object":"0x60bd8060095f395ff361400060405236600d5760b9565b5f3560e01c8063abb209ae14603e57806356c14fde14605b578063079e2955146078578063fa3c9d391460955760b9565b5034156048575f5ffd5b5b5f608052602435600435015f5260205ff35b5034156065575f5ffd5b5b5f608052602435600435035f5260205ff35b5034156082575f5ffd5b5b5f608052602435600435025f5260205ff35b503415609f575f5ffd5b5b5f60805260243560043501604435810290505f5260205ff35b5f5ffd","linkReferences":{}},"methodIdentifiers":{"chainedOps(uint256,uint256,uint256)":"fa3c9d39","safeAddDirect(uint256,uint256)":"abb209ae","safeMulDirect(uint256,uint256)":"079e2955","safeSubDirect(uint256,uint256)":"56c14fde"},"id":1}