{"abi":[{"type":"function","name":"count","inputs":[],"outputs":[{"name":"","type":"uint256","internalType":"uint256"}],"stateMutability":"view"},{"type":"function","name":"getCount","inputs":[],"outputs":[{"name":"","type":"uint256","internalType":"uint256"}],"stateMutability":"view"},{"type":"function","name":"increment","inputs":[],"outputs":[],"stateMutability":"nonpayable"}],"bytecode":{"object":"0x6080604052348015600e575f5ffd5b506101728061001c5f395ff3fe608060405234801561000f575f5ffd5b506004361061003f575f3560e01c806306661abd14610043578063a87d942c14610061578063d09de08a1461007f575b5f5ffd5b61004b610089565b60405161005891906100c3565b60405180910390f35b61006961008e565b60405161007691906100c3565b60405180910390f35b610087610096565b005b5f5481565b5f5f54905090565b60015f546100a49190610109565b5f81905550565b5f819050919050565b6100bd816100ab565b82525050565b5f6020820190506100d65f8301846100b4565b92915050565b7f4e487b71000000000000000000000000000000000000000000000000000000005f52601160045260245ffd5b5f610113826100ab565b915061011e836100ab565b9250828201905080821115610136576101356100dc565b5b9291505056fea2646970667358221220ea8242f354c7dfb7a043fa2d44dc4d9176d2605a96a5b4b73f993d83fd9bc25e64736f6c634300081c0033","linkReferences":{}},"methodIdentifiers":{"count()":"06661abd","getCount()":"a87d942c","increment()":"d09de08a"},"id":1}