{"abi":[{"type":"function","name":"fallbackCalls","inputs":[],"outputs":[{"name":"","type":"uint256","internalType":"uint256"}],"stateMutability":"view"},{"type":"function","name":"getBalance","inputs":[],"outputs":[{"name":"","type":"uint256","internalType":"uint256"}],"stateMutability":"view"},{"type":"function","name":"receiveCalls","inputs":[],"outputs":[{"name":"","type":"uint256","internalType":"uint256"}],"stateMutability":"view"},{"type":"function","name":"totalReceived","inputs":[],"outputs":[{"name":"","type":"uint256","internalType":"uint256"}],"stateMutability":"view"}],"bytecode":{"object":"0x60cc8060095f395ff3608060405236600c57607c565b5f3560e01c8063dd6100a914603e5780636dbdf9db146052578063a3c2c46214606757806312065fe01460b457506097565b5034156048575f5ffd5b5b5f545f5260205ff35b503415605c575f5ffd5b5b6001545f5260205ff35b5034156071575f5ffd5b5b6002545f5260205ff35b5b5f546001810190505f553460025481810190509050600255005b5b6001546001810190506001553460025481810190509050600255005b50341560be575f5ffd5b5b30315f5260205ff35b5f5ffd","linkReferences":{}},"methodIdentifiers":{},"id":0}