{"abi":[{"type":"constructor","inputs":[{"name":"_value","type":"uint256","internalType":"uint256"},{"name":"_owner","type":"address","internalType":"address"}],"stateMutability":"nonpayable"},{"type":"function","name":"getOwner","inputs":[],"outputs":[{"name":"","type":"address","internalType":"address"}],"stateMutability":"view"},{"type":"function","name":"getValue","inputs":[],"outputs":[{"name":"","type":"uint256","internalType":"uint256"}],"stateMutability":"view"},{"type":"function","name":"owner","inputs":[],"outputs":[{"name":"","type":"address","internalType":"address"}],"stateMutability":"view"},{"type":"function","name":"value","inputs":[],"outputs":[{"name":"","type":"uint256","internalType":"uint256"}],"stateMutability":"view"}],"bytecode":{"object":"0x61400060405260c8380360c86080395b6080515f5560a05160015560a48060245f395ff361400060405236600d5760a0565b5f3560e01c80633fa4f24514603e5780638da5cb5b1460565780632096525514606f578063893d20e81460875760a0565b5034156048575f5ffd5b5b5f6080525f545f5260205ff35b5034156060575f5ffd5b5b5f6080526001545f5260205ff35b5034156079575f5ffd5b5b5f6080525f545f5260205ff35b5034156091575f5ffd5b5b5f6080526001545f5260205ff35b5f5ffd","linkReferences":{}},"methodIdentifiers":{"getOwner()":"893d20e8","getValue()":"20965255","owner()":"8da5cb5b","value()":"3fa4f245"},"id":0}