{"abi":[{"type":"function","name":"compareHashes","inputs":[{"name":"a","type":"uint256","internalType":"uint256"},{"name":"b","type":"uint256","internalType":"uint256"}],"outputs":[{"name":"","type":"bool","internalType":"bool"}],"stateMutability":"pure"},{"type":"function","name":"hashBytes","inputs":[{"name":"data","type":"bytes","internalType":"bytes"}],"outputs":[{"name":"","type":"bytes32","internalType":"bytes32"}],"stateMutability":"pure"},{"type":"function","name":"hashPacked","inputs":[{"name":"a","type":"uint256","internalType":"uint256"},{"name":"b","type":"uint256","internalType":"uint256"}],"outputs":[{"name":"","type":"bytes32","internalType":"bytes32"}],"stateMutability":"pure"},{"type":"function","name":"hashTwo","inputs":[{"name":"a","type":"uint256","internalType":"uint256"},{"name":"b","type":"uint256","internalType":"uint256"}],"outputs":[{"name":"","type":"bytes32","internalType":"bytes32"}],"stateMutability":"pure"},{"type":"function","name":"hashUint","inputs":[{"name":"a","type":"uint256","internalType":"uint256"}],"outputs":[{"name":"","type":"bytes32","internalType":"bytes32"}],"stateMutability":"pure"}],"bytecode":{"object":"0x60fd8060095f395ff3608060405236600c5760f9565b5f3560e01c80631c3d4edd146047578063652c2eca146062578063b218e42e146086578063bbf615f81460aa5780638f9087f51460de5760f9565b5034156051575f5ffd5b5b6004355f5260205f205f5260205ff35b503415606c575f5ffd5b5b6004355f526024356020525f5f5260205f205f5260205ff35b5034156090575f5ffd5b5b6004355f526024356020525f5f5260205f205f5260205ff35b50341560b4575f5ffd5b5b6004355f5260205f2060a0526024355f5260205f2060c05260a05160c051811490505f5260205ff35b50341560e8575f5ffd5b5b6004355f5260205f205f5260205ff35b5f5ffd","linkReferences":{}},"methodIdentifiers":{},"id":0}