{"abi":[{"type":"constructor","inputs":[{"name":"_value","type":"uint256","internalType":"uint256"},{"name":"_owner","type":"address","internalType":"address"}],"stateMutability":"nonpayable"},{"type":"function","name":"getOwner","inputs":[],"outputs":[{"name":"","type":"address","internalType":"address"}],"stateMutability":"view"},{"type":"function","name":"getValue","inputs":[],"outputs":[{"name":"","type":"uint256","internalType":"uint256"}],"stateMutability":"view"},{"type":"function","name":"owner","inputs":[],"outputs":[{"name":"","type":"address","internalType":"address"}],"stateMutability":"view"},{"type":"function","name":"value","inputs":[],"outputs":[{"name":"","type":"uint256","internalType":"uint256"}],"stateMutability":"view"}],"bytecode":{"object":"0x608060405234801561000f575f5ffd5b506040516103393803806103398339818101604052810190610031919061010f565b815f819055508060015f6101000a81548173ffffffffffffffffffffffffffffffffffffffff021916908373ffffffffffffffffffffffffffffffffffffffff160217905550505061014d565b5f5ffd5b5f819050919050565b61009481610082565b811461009e575f5ffd5b50565b5f815190506100af8161008b565b92915050565b5f73ffffffffffffffffffffffffffffffffffffffff82169050919050565b5f6100de826100b5565b9050919050565b6100ee816100d4565b81146100f8575f5ffd5b50565b5f81519050610109816100e5565b92915050565b5f5f604083850312156101255761012461007e565b5b5f610132858286016100a1565b9250506020610143858286016100fb565b9150509250929050565b6101df8061015a5f395ff3fe608060405234801561000f575f5ffd5b506004361061004a575f3560e01c8063209652551461004e5780633fa4f2451461006c578063893d20e81461008a5780638da5cb5b146100a8575b5f5ffd5b6100566100c6565b6040516100639190610138565b60405180910390f35b6100746100ce565b6040516100819190610138565b60405180910390f35b6100926100d3565b60405161009f9190610190565b60405180910390f35b6100b06100fb565b6040516100bd9190610190565b60405180910390f35b5f5f54905090565b5f5481565b5f60015f9054906101000a900473ffffffffffffffffffffffffffffffffffffffff16905090565b60015f9054906101000a900473ffffffffffffffffffffffffffffffffffffffff1681565b5f819050919050565b61013281610120565b82525050565b5f60208201905061014b5f830184610129565b92915050565b5f73ffffffffffffffffffffffffffffffffffffffff82169050919050565b5f61017a82610151565b9050919050565b61018a81610170565b82525050565b5f6020820190506101a35f830184610181565b9291505056fea2646970667358221220818f9561119fd2878d1748894bf48b367a9acf9289ffbeb0451da07402df96b264736f6c634300081c0033","linkReferences":{}},"methodIdentifiers":{"getOwner()":"893d20e8","getValue()":"20965255","owner()":"8da5cb5b","value()":"3fa4f245"},"id":0}