{"abi":[{"type":"function","name":"get","inputs":[{"name":"index","type":"uint256","internalType":"uint256"}],"outputs":[{"name":"","type":"uint256","internalType":"uint256"}],"stateMutability":"view"},{"type":"function","name":"length","inputs":[],"outputs":[{"name":"","type":"uint256","internalType":"uint256"}],"stateMutability":"view"},{"type":"function","name":"pop","inputs":[],"outputs":[],"stateMutability":"nonpayable"},{"type":"function","name":"push","inputs":[{"name":"value","type":"uint256","internalType":"uint256"}],"outputs":[],"stateMutability":"nonpayable"},{"type":"function","name":"pushMultiple","inputs":[{"name":"a","type":"uint256","internalType":"uint256"},{"name":"b","type":"uint256","internalType":"uint256"},{"name":"c","type":"uint256","internalType":"uint256"}],"outputs":[],"stateMutability":"nonpayable"},{"type":"function","name":"values","inputs":[{"name":"arg0","type":"uint256","internalType":"uint256"}],"outputs":[{"name":"","type":"uint256","internalType":"uint256"}],"stateMutability":"view"}],"bytecode":{"object":"0x61015180600a5f395ff35f3560e01c80635e383d21146045578063959ac484146066578063a4ece52c14608f5780631f7b6d321460b75780639507d39a1460cb5780639d9b71401460ec5761014d565b503415604f575f5ffd5b5b5f5f5260205f2060043581019050545f5260205ff35b5034156070575f5ffd5b5b5f545f5f5260205f2081810190506004358155506001810190505f55005b5034156099575f5ffd5b5b5f546001810390505f555f5f5260205f205f54810190505f815550005b50341560c1575f5ffd5b5b5f545f5260205ff35b50341560d5575f5ffd5b5b5f5f5260205f2060043581019050545f5260205ff35b50341560f6575f5ffd5b5b5f545f5f5260205f2081810190506004358155506001810190505f555f545f5f5260205f2081810190506024358155506001810190505f555f545f5f5260205f2081810190506044358155506001810190505f55005b5f5ffd","linkReferences":{}},"methodIdentifiers":{},"id":0}