{"abi":[{"type":"function","name":"balance","inputs":[],"outputs":[{"name":"","type":"uint256","internalType":"uint256"}],"stateMutability":"view"},{"type":"function","name":"deposit","inputs":[],"outputs":[],"stateMutability":"payable"},{"type":"function","name":"getBalance","inputs":[],"outputs":[{"name":"","type":"uint256","internalType":"uint256"}],"stateMutability":"view"},{"type":"function","name":"withdraw","inputs":[],"outputs":[],"stateMutability":"nonpayable"}],"bytecode":{"object":"0x60798060095f395ff35f3560e01c8063b69ef8a8146030578063d0e30db014604457806312065fe01460515780633ccfd60b146065576075565b503415603a575f5ffd5b5b5f545f5260205ff35b505b5f5434810190505f55005b503415605b575f5ffd5b5b5f545f5260205ff35b503415606f575f5ffd5b5b5f5f55005b5f5ffd","linkReferences":{}},"methodIdentifiers":{},"id":3}