{"abi":[{"type":"function","name":"divideChecked","inputs":[{"name":"a","type":"uint256","internalType":"uint256"},{"name":"b","type":"uint256","internalType":"uint256"}],"outputs":[{"name":"","type":"uint256","internalType":"uint256"}],"stateMutability":"pure"},{"type":"function","name":"requireTrue","inputs":[{"name":"cond","type":"bool","internalType":"bool"}],"outputs":[],"stateMutability":"pure"},{"type":"function","name":"requireWithMessage","inputs":[{"name":"cond","type":"bool","internalType":"bool"}],"outputs":[],"stateMutability":"pure"},{"type":"function","name":"revertAlways","inputs":[],"outputs":[],"stateMutability":"pure"},{"type":"function","name":"revertWithMessage","inputs":[],"outputs":[],"stateMutability":"pure"}],"bytecode":{"object":"0x6080604052348015600e575f5ffd5b506104928061001c5f395ff3fe608060405234801561000f575f5ffd5b5060043610610055575f3560e01c8063185c38a414610059578063201b8bd21461006357806367ebb3ef14610093578063975af67a146100af578063c19972f1146100b9575b5f5ffd5b6100616100d5565b005b61007d600480360381019061007891906101f1565b610110565b60405161008a919061023e565b60405180910390f35b6100ad60048036038101906100a8919061028c565b610167565b005b6100b7610173565b005b6100d360048036038101906100ce919061028c565b610177565b005b6040517f08c379a000000000000000000000000000000000000000000000000000000000815260040161010790610311565b60405180910390fd5b5f5f8203610153576040517f08c379a000000000000000000000000000000000000000000000000000000000815260040161014a90610379565b60405180910390fd5b818361015f91906103c4565b905092915050565b80610170575f5ffd5b50565b5f5ffd5b806101b7576040517f08c379a00000000000000000000000000000000000000000000000000000000081526004016101ae9061043e565b60405180910390fd5b50565b5f5ffd5b5f819050919050565b6101d0816101be565b81146101da575f5ffd5b50565b5f813590506101eb816101c7565b92915050565b5f5f60408385031215610207576102066101ba565b5b5f610214858286016101dd565b9250506020610225858286016101dd565b9150509250929050565b610238816101be565b82525050565b5f6020820190506102515f83018461022f565b92915050565b5f8115159050919050565b61026b81610257565b8114610275575f5ffd5b50565b5f8135905061028681610262565b92915050565b5f602082840312156102a1576102a06101ba565b5b5f6102ae84828501610278565b91505092915050565b5f82825260208201905092915050565b7f616c7761797320726576657274730000000000000000000000000000000000005f82015250565b5f6102fb600e836102b7565b9150610306826102c7565b602082019050919050565b5f6020820190508181035f830152610328816102ef565b9050919050565b7f6469766973696f6e206279207a65726f000000000000000000000000000000005f82015250565b5f6103636010836102b7565b915061036e8261032f565b602082019050919050565b5f6020820190508181035f83015261039081610357565b9050919050565b7f4e487b71000000000000000000000000000000000000000000000000000000005f52601260045260245ffd5b5f6103ce826101be565b91506103d9836101be565b9250826103e9576103e8610397565b5b828204905092915050565b7f636f6e646974696f6e206661696c6564000000000000000000000000000000005f82015250565b5f6104286010836102b7565b9150610433826103f4565b602082019050919050565b5f6020820190508181035f8301526104558161041c565b905091905056fea2646970667358221220b31c12c1068ca0293508baab68f2c608e49ef57604fb901ac280df5d8aa8d26864736f6c634300081c0033","linkReferences":{}},"methodIdentifiers":{"divideChecked(uint256,uint256)":"201b8bd2","requireTrue(bool)":"67ebb3ef","requireWithMessage(bool)":"c19972f1","revertAlways()":"975af67a","revertWithMessage()":"185c38a4"},"id":2}