{"abi":[{"type":"function","name":"allowances","inputs":[{"name":"","type":"address","internalType":"address"},{"name":"","type":"address","internalType":"address"}],"outputs":[{"name":"","type":"uint256","internalType":"uint256"}],"stateMutability":"view"},{"type":"function","name":"getAllowance","inputs":[{"name":"owner","type":"address","internalType":"address"},{"name":"spender","type":"address","internalType":"address"}],"outputs":[{"name":"","type":"uint256","internalType":"uint256"}],"stateMutability":"view"},{"type":"function","name":"getMatrix","inputs":[{"name":"row","type":"uint256","internalType":"uint256"},{"name":"col","type":"uint256","internalType":"uint256"}],"outputs":[{"name":"","type":"uint256","internalType":"uint256"}],"stateMutability":"view"},{"type":"function","name":"hasPermission","inputs":[{"name":"user","type":"address","internalType":"address"},{"name":"resource","type":"address","internalType":"address"},{"name":"action","type":"uint256","internalType":"uint256"}],"outputs":[{"name":"","type":"bool","internalType":"bool"}],"stateMutability":"view"},{"type":"function","name":"increaseAllowance","inputs":[{"name":"owner","type":"address","internalType":"address"},{"name":"spender","type":"address","internalType":"address"},{"name":"addedValue","type":"uint256","internalType":"uint256"}],"outputs":[],"stateMutability":"nonpayable"},{"type":"function","name":"matrix","inputs":[{"name":"","type":"uint256","internalType":"uint256"},{"name":"","type":"uint256","internalType":"uint256"}],"outputs":[{"name":"","type":"uint256","internalType":"uint256"}],"stateMutability":"view"},{"type":"function","name":"permissions","inputs":[{"name":"","type":"address","internalType":"address"},{"name":"","type":"address","internalType":"address"},{"name":"","type":"uint256","internalType":"uint256"}],"outputs":[{"name":"","type":"bool","internalType":"bool"}],"stateMutability":"view"},{"type":"function","name":"setAllowance","inputs":[{"name":"owner","type":"address","internalType":"address"},{"name":"spender","type":"address","internalType":"address"},{"name":"amount","type":"uint256","internalType":"uint256"}],"outputs":[],"stateMutability":"nonpayable"},{"type":"function","name":"setMatrix","inputs":[{"name":"row","type":"uint256","internalType":"uint256"},{"name":"col","type":"uint256","internalType":"uint256"},{"name":"value","type":"uint256","internalType":"uint256"}],"outputs":[],"stateMutability":"nonpayable"},{"type":"function","name":"setPermission","inputs":[{"name":"user","type":"address","internalType":"address"},{"name":"resource","type":"address","internalType":"address"},{"name":"action","type":"uint256","internalType":"uint256"},{"name":"allowed","type":"bool","internalType":"bool"}],"outputs":[],"stateMutability":"nonpayable"}],"bytecode":{"object":"0x6102a880600a5f395ff361400060405236600e576102a4565b5f3560e01c806355b6ed5c146083578063a5f030741460b3578063d9a38d641460f0578063da46098c146101215780630af4187d1461014e5780636c43a2ca1461017f57806369230e4b146101cc57806332b880d9146101fa578063f551f0421461022c5780638b01813d14610266576102a4565b503415608d575f5ffd5b5b5f6080526004355f525f60205260405f206024355f5260205260405f20545f5260205ff35b50341560bd575f5ffd5b5b5f6080526004355f52600160205260405f206024355f5260205260405f206044355f5260205260405f20545f5260205ff35b50341560fa575f5ffd5b5b5f6080526004355f52600260205260405f206024355f5260205260405f20545f5260205ff35b50341561012c575f5ffd5b5b6004355f525f60205260405f206024355f5260205260405f20604435815550005b503415610159575f5ffd5b5b5f6080526004355f525f60205260405f206024355f5260205260405f20545f5260205ff35b50341561018a575f5ffd5b5b6004355f525f60205260405f206024355f5260205260405f2054604435810190506004355f525f60205260405f206024355f5260205260405f208181555050005b5034156101d7575f5ffd5b5b6004355f52600260205260405f206024355f5260205260405f20604435815550005b503415610205575f5ffd5b5b5f6080526004355f52600260205260405f206024355f5260205260405f20545f5260205ff35b503415610237575f5ffd5b5b6004355f52600160205260405f206024355f5260205260405f206044355f5260205260405f20606435815550005b503415610271575f5ffd5b5b5f6080526004355f52600160205260405f206024355f5260205260405f206044355f5260205260405f20545f5260205ff35b5f5ffd","linkReferences":{}},"methodIdentifiers":{"allowances(address,address)":"55b6ed5c","getAllowance(address,address)":"0af4187d","getMatrix(uint256,uint256)":"32b880d9","hasPermission(address,address,uint256)":"8b01813d","increaseAllowance(address,address,uint256)":"6c43a2ca","matrix(uint256,uint256)":"d9a38d64","permissions(address,address,uint256)":"a5f03074","setAllowance(address,address,uint256)":"da46098c","setMatrix(uint256,uint256,uint256)":"69230e4b","setPermission(address,address,uint256,bool)":"f551f042"},"id":2}