{"abi":[{"type":"function","name":"batchSum","inputs":[{"name":"a1","type":"uint256","internalType":"uint256"},{"name":"a2","type":"uint256","internalType":"uint256"},{"name":"a3","type":"uint256","internalType":"uint256"},{"name":"a4","type":"uint256","internalType":"uint256"},{"name":"a5","type":"uint256","internalType":"uint256"},{"name":"a6","type":"uint256","internalType":"uint256"},{"name":"a7","type":"uint256","internalType":"uint256"},{"name":"a8","type":"uint256","internalType":"uint256"},{"name":"a9","type":"uint256","internalType":"uint256"},{"name":"a10","type":"uint256","internalType":"uint256"}],"outputs":[{"name":"","type":"uint256","internalType":"uint256"}],"stateMutability":"pure"},{"type":"function","name":"calculateSwap","inputs":[{"name":"reserve0","type":"uint256","internalType":"uint256"},{"name":"reserve1","type":"uint256","internalType":"uint256"},{"name":"fee","type":"uint256","internalType":"uint256"},{"name":"amountIn","type":"uint256","internalType":"uint256"},{"name":"slippageTolerance","type":"uint256","internalType":"uint256"},{"name":"minOut","type":"uint256","internalType":"uint256"},{"name":"maxOut","type":"uint256","internalType":"uint256"},{"name":"priceLimit","type":"uint256","internalType":"uint256"}],"outputs":[{"name":"amountOut","type":"uint256","internalType":"uint256"},{"name":"priceImpact","type":"uint256","internalType":"uint256"},{"name":"effectiveFee","type":"uint256","internalType":"uint256"}],"stateMutability":"pure"},{"type":"function","name":"chainedArithmetic","inputs":[{"name":"x1","type":"uint256","internalType":"uint256"},{"name":"x2","type":"uint256","internalType":"uint256"},{"name":"x3","type":"uint256","internalType":"uint256"},{"name":"x4","type":"uint256","internalType":"uint256"},{"name":"x5","type":"uint256","internalType":"uint256"},{"name":"x6","type":"uint256","internalType":"uint256"},{"name":"x7","type":"uint256","internalType":"uint256"},{"name":"x8","type":"uint256","internalType":"uint256"}],"outputs":[{"name":"","type":"uint256","internalType":"uint256"}],"stateMutability":"pure"},{"type":"function","name":"simpleAdd","inputs":[{"name":"a","type":"uint256","internalType":"uint256"},{"name":"b","type":"uint256","internalType":"uint256"}],"outputs":[{"name":"","type":"uint256","internalType":"uint256"}],"stateMutability":"pure"},{"type":"function","name":"ultimateStressTest","inputs":[{"name":"a","type":"uint256","internalType":"uint256"},{"name":"b","type":"uint256","internalType":"uint256"},{"name":"c","type":"uint256","internalType":"uint256"},{"name":"d","type":"uint256","internalType":"uint256"},{"name":"e","type":"uint256","internalType":"uint256"},{"name":"f","type":"uint256","internalType":"uint256"},{"name":"g","type":"uint256","internalType":"uint256"},{"name":"h","type":"uint256","internalType":"uint256"},{"name":"i","type":"uint256","internalType":"uint256"},{"name":"j","type":"uint256","internalType":"uint256"},{"name":"k","type":"uint256","internalType":"uint256"},{"name":"l","type":"uint256","internalType":"uint256"},{"name":"m","type":"uint256","internalType":"uint256"},{"name":"n","type":"uint256","internalType":"uint256"},{"name":"o","type":"uint256","internalType":"uint256"},{"name":"p","type":"uint256","internalType":"uint256"}],"outputs":[{"name":"","type":"uint256","internalType":"uint256"}],"stateMutability":"pure"}],"bytecode":{"object":"0x61066380600a5f395ff361400060405236600e5761065f565b5f3560e01c8063bcba9f8014604e5780632e31aff8146102fd578063e572b6a1146104615780634b09322914610546578063b45fb327146106415761065f565b5034156058575f5ffd5b5b5f608052602435600435016044358101905060643581018061100052905060a4356084350160c4358101905060e4358101806110205290506101243561010435016101443581019050610164358101806110405290506101a43561018435016101c435810190506101e43581018061106052905060243560043502806110805260643560443502806110a05260a43560843502806110c05260e43560c43502806110e05261012435610104351188611000528761102052866110405285611060528461108052836110a052826110c052816110e0529050905090509050905090509050905061014757610157565b6101243561010435035f52610167565b6101043561012435035f52610167565b5f5180611100526101643561014435118161110052905061018757610197565b6101643561014435035f526101a7565b6101443561016435035f526101a7565b5f5180611120526101a4356101843511816111205290506101c7576101d7565b6101a43561018435035f526101e7565b610184356101a435035f526101e7565b5f5180611140526101e4356101c435118161114052905061020757610217565b6101e4356101c435035f52610227565b6101c4356101e435035f52610227565b5f5161108051611000510161110051810190506110a051611020510161112051810190506110c051611040510161114051810190506110e051611060510184810190509350818302915091508282029150915081019050600435810190506024358101905060443581019050606435810190506084358101905060a4358101905060c4358101905060e43581019050610104358101905061012435810190506101443581019050610164358101905061018435810190506101a435810190506101c435810190506101e435810190505f5260205ff35b503415610308575f5ffd5b5b5f6080525f60a0525f60c052604435612710036064350260243581806110405202612710600435028281019050915081810490509050608052670de0b6b3a764000060243502600435810480611000529050608051670de0b6b3a764000081029050606435810480611020529050816110005280611020528061102052818061100052118161100052905061039d576103c6565b611020518061102052611000518061100052036127108102905061100051810490505f526103ce565b5f5f526103ce565b5f5160a05260805160043581029050602435810490506064350360c05260805160a43581109050151561040057610403565b5ffd5b60805160c4358111905015156104185761041b565b5ffd5b60a05160843581119050151561043057610433565b5ffd5b60e4356110205111151561044657610449565b5ffd5b60805160a05160c051825f528160205260405260605ff35b50341561046c575f5ffd5b5b5f608052602435600435016064356044350160a4356084350160e43560c43501610124356101043501602435600435026064356044350260a4356084350260e43560c43502610124356101043502888a01985098508688019650965084860194509450828401925092508281019050915082820191509150828101905091508282019150915081019050600435810190506024358101905060443581019050606435810190506084358101905060a4358101905060c4358101905060e43581019050610104358101905061012435810190505f5260205ff35b503415610551575f5ffd5b5b5f608052602435600435016064356044350160a4356084350160e43560c435018280611000528480611020520281806110405283806110605202806110805281806110a0520161108051806110805282806110a0520260043582806110c0520160243581019050604435810190506064358101905060843582806110e0520160a4358101905060c4358101905060e435810190508061110052818061112052026111005182019150818101905090508781019050965085870195509550838501935093508183019150915081810190509050611080518101905081810190509050818101905090505f5260205ff35b50341561064c575f5ffd5b5b5f608052602435600435015f5260205ff35b5f5ffd","linkReferences":{}},"methodIdentifiers":{"batchSum(uint256,uint256,uint256,uint256,uint256,uint256,uint256,uint256,uint256,uint256)":"e572b6a1","calculateSwap(uint256,uint256,uint256,uint256,uint256,uint256,uint256,uint256)":"2e31aff8","chainedArithmetic(uint256,uint256,uint256,uint256,uint256,uint256,uint256,uint256)":"4b093229","simpleAdd(uint256,uint256)":"b45fb327","ultimateStressTest(uint256,uint256,uint256,uint256,uint256,uint256,uint256,uint256,uint256,uint256,uint256,uint256,uint256,uint256,uint256,uint256)":"bcba9f80"},"id":0}