{"abi":[{"type":"function","name":"emitSimple","inputs":[{"name":"val","type":"uint256","internalType":"uint256"}],"outputs":[],"stateMutability":"nonpayable"},{"type":"function","name":"emitTransfer","inputs":[{"name":"from","type":"address","internalType":"address"},{"name":"to","type":"address","internalType":"address"},{"name":"value","type":"uint256","internalType":"uint256"}],"outputs":[],"stateMutability":"nonpayable"},{"type":"event","name":"Approval","inputs":[{"name":"owner","type":"address","indexed":true,"internalType":"address"},{"name":"spender","type":"address","indexed":true,"internalType":"address"},{"name":"value","type":"uint256","indexed":false,"internalType":"uint256"}],"anonymous":false},{"type":"event","name":"SimpleEvent","inputs":[{"name":"value","type":"uint256","indexed":false,"internalType":"uint256"}],"anonymous":false},{"type":"event","name":"Transfer","inputs":[{"name":"from","type":"address","indexed":true,"internalType":"address"},{"name":"to","type":"address","indexed":true,"internalType":"address"},{"name":"value","type":"uint256","indexed":false,"internalType":"uint256"}],"anonymous":false}],"bytecode":{"object":"0x60a28060095f395ff361400060405236600d57609e565b5f3560e01c8063d0ee85c814602a57806323de665114606157609e565b5034156034575f5ffd5b5b6004355f527f12d199749b3f4c44df8d9386c63d725b7756ec47204f3aa0bf05ea832f89effb60205fa1005b503415606b575f5ffd5b5b6044355f526024356004357fddf252ad1be2c89b69c2b068fc378daa952ba7f163c4a11628f55a4df523b3ef60205fa3005b5f5ffd","linkReferences":{}},"methodIdentifiers":{"emitSimple(uint256)":"d0ee85c8","emitTransfer(address,address,uint256)":"23de6651"},"id":0}