{"abi":[{"type":"function","name":"addressMap","inputs":[{"name":"","type":"address","internalType":"address"}],"outputs":[{"name":"","type":"uint256","internalType":"uint256"}],"stateMutability":"view"},{"type":"function","name":"allowances","inputs":[{"name":"","type":"address","internalType":"address"},{"name":"","type":"address","internalType":"address"}],"outputs":[{"name":"","type":"uint256","internalType":"uint256"}],"stateMutability":"view"},{"type":"function","name":"bytes32Map","inputs":[{"name":"","type":"bytes32","internalType":"bytes32"}],"outputs":[{"name":"","type":"uint256","internalType":"uint256"}],"stateMutability":"view"},{"type":"function","name":"getAddressZero","inputs":[],"outputs":[{"name":"","type":"uint256","internalType":"uint256"}],"stateMutability":"view"},{"type":"function","name":"getAllowance","inputs":[{"name":"owner","type":"address","internalType":"address"},{"name":"spender","type":"address","internalType":"address"}],"outputs":[{"name":"","type":"uint256","internalType":"uint256"}],"stateMutability":"view"},{"type":"function","name":"getAllowanceZeroAddresses","inputs":[],"outputs":[{"name":"","type":"uint256","internalType":"uint256"}],"stateMutability":"view"},{"type":"function","name":"getBytes32Zero","inputs":[],"outputs":[{"name":"","type":"uint256","internalType":"uint256"}],"stateMutability":"view"},{"type":"function","name":"getKey","inputs":[{"name":"k","type":"uint256","internalType":"uint256"}],"outputs":[{"name":"","type":"uint256","internalType":"uint256"}],"stateMutability":"view"},{"type":"function","name":"getMatrixCell","inputs":[{"name":"row","type":"uint256","internalType":"uint256"},{"name":"col","type":"uint256","internalType":"uint256"}],"outputs":[{"name":"","type":"uint256","internalType":"uint256"}],"stateMutability":"view"},{"type":"function","name":"getMatrixCorner","inputs":[{"name":"corner","type":"uint256","internalType":"uint256"}],"outputs":[{"name":"","type":"uint256","internalType":"uint256"}],"stateMutability":"view"},{"type":"function","name":"getMaxKey","inputs":[],"outputs":[{"name":"","type":"uint256","internalType":"uint256"}],"stateMutability":"view"},{"type":"function","name":"getUnsetKey","inputs":[{"name":"k","type":"uint256","internalType":"uint256"}],"outputs":[{"name":"","type":"uint256","internalType":"uint256"}],"stateMutability":"view"},{"type":"function","name":"getUnsetNestedKey","inputs":[{"name":"a","type":"address","internalType":"address"},{"name":"b","type":"address","internalType":"address"}],"outputs":[{"name":"","type":"uint256","internalType":"uint256"}],"stateMutability":"view"},{"type":"function","name":"getZeroKey","inputs":[],"outputs":[{"name":"","type":"uint256","internalType":"uint256"}],"stateMutability":"view"},{"type":"function","name":"incrementKey","inputs":[{"name":"k","type":"uint256","internalType":"uint256"}],"outputs":[],"stateMutability":"nonpayable"},{"type":"function","name":"matrix","inputs":[{"name":"","type":"uint256","internalType":"uint256"},{"name":"","type":"uint256","internalType":"uint256"}],"outputs":[{"name":"","type":"uint256","internalType":"uint256"}],"stateMutability":"view"},{"type":"function","name":"overwriteKey","inputs":[{"name":"k","type":"uint256","internalType":"uint256"},{"name":"v1","type":"uint256","internalType":"uint256"},{"name":"v2","type":"uint256","internalType":"uint256"}],"outputs":[],"stateMutability":"nonpayable"},{"type":"function","name":"setAddressZero","inputs":[{"name":"value","type":"uint256","internalType":"uint256"}],"outputs":[],"stateMutability":"nonpayable"},{"type":"function","name":"setAllowance","inputs":[{"name":"owner","type":"address","internalType":"address"},{"name":"spender","type":"address","internalType":"address"},{"name":"amount","type":"uint256","internalType":"uint256"}],"outputs":[],"stateMutability":"nonpayable"},{"type":"function","name":"setAllowanceZeroAddresses","inputs":[{"name":"amount","type":"uint256","internalType":"uint256"}],"outputs":[],"stateMutability":"nonpayable"},{"type":"function","name":"setBytes32Zero","inputs":[{"name":"value","type":"uint256","internalType":"uint256"}],"outputs":[],"stateMutability":"nonpayable"},{"type":"function","name":"setMatrixCell","inputs":[{"name":"row","type":"uint256","internalType":"uint256"},{"name":"col","type":"uint256","internalType":"uint256"},{"name":"value","type":"uint256","internalType":"uint256"}],"outputs":[],"stateMutability":"nonpayable"},{"type":"function","name":"setMatrixCorners","inputs":[{"name":"value","type":"uint256","internalType":"uint256"}],"outputs":[],"stateMutability":"nonpayable"},{"type":"function","name":"setMaxKey","inputs":[{"name":"value","type":"uint256","internalType":"uint256"}],"outputs":[],"stateMutability":"nonpayable"},{"type":"function","name":"setMultipleKeys","inputs":[{"name":"k1","type":"uint256","internalType":"uint256"},{"name":"v1","type":"uint256","internalType":"uint256"},{"name":"k2","type":"uint256","internalType":"uint256"},{"name":"v2","type":"uint256","internalType":"uint256"}],"outputs":[],"stateMutability":"nonpayable"},{"type":"function","name":"setZeroKey","inputs":[{"name":"value","type":"uint256","internalType":"uint256"}],"outputs":[],"stateMutability":"nonpayable"},{"type":"function","name":"uintMap","inputs":[{"name":"","type":"uint256","internalType":"uint256"}],"outputs":[{"name":"","type":"uint256","internalType":"uint256"}],"stateMutability":"view"}],"bytecode":{"object":"0x6080604052348015600e575f5ffd5b506110f48061001c5f395ff3fe608060405234801561000f575f5ffd5b50600436106101a7575f3560e01c806365d5559e116100f7578063b3f40a4a11610095578063d9a38d641161006f578063d9a38d64146104eb578063da46098c1461051b578063da5633ef14610537578063fb37f3c214610567576101a7565b8063b3f40a4a14610481578063bb5b27e11461049d578063bc53a794146104cd576101a7565b806389395b7e116100d157806389395b7e146103d35780639a94947b14610403578063a255e9da14610433578063afa22fea14610463576101a7565b806365d5559e1461036b57806383213ee31461038757806387993e23146103a3576101a7565b80632ac3bb88116101645780634d420b8d1161013e5780634d420b8d146102e557806353176a211461030357806355b6ed5c1461031f5780636561f2801461034f576101a7565b80632ac3bb881461027d5780632b89b27f14610299578063474df6fa146102c9576101a7565b806301b48c78146101ab5780630440dd5a146101c95780630a1ea307146101e55780630af4187d146102015780631a5931d6146102315780632a92444214610261575b5f5ffd5b6101b3610585565b6040516101c09190610d89565b60405180910390f35b6101e360048036038101906101de9190610dd0565b610604565b005b6101ff60048036038101906101fa9190610e34565b610634565b005b61021b60048036038101906102169190610ede565b61065e565b6040516102289190610d89565b60405180910390f35b61024b60048036038101906102469190610f1c565b6106e0565b6040516102589190610d89565b60405180910390f35b61027b60048036038101906102769190610f1c565b6106f4565b005b61029760048036038101906102929190610f1c565b61072c565b005b6102b360048036038101906102ae9190610ede565b610744565b6040516102c09190610d89565b60405180910390f35b6102e360048036038101906102de9190610f1c565b6107c6565b005b6102ed6107e1565b6040516102fa9190610d89565b60405180910390f35b61031d60048036038101906103189190610f1c565b610818565b005b61033960048036038101906103349190610ede565b61084c565b6040516103469190610d89565b60405180910390f35b61036960048036038101906103649190610f1c565b61086c565b005b61038560048036038101906103809190610f1c565b6108b1565b005b6103a1600480360381019061039c9190610f1c565b6109ec565b005b6103bd60048036038101906103b89190610f47565b610a6c565b6040516103ca9190610d89565b60405180910390f35b6103ed60048036038101906103e89190610f1c565b610a96565b6040516103fa9190610d89565b60405180910390f35b61041d60048036038101906104189190610fb8565b610aaf565b60405161042a9190610d89565b60405180910390f35b61044d60048036038101906104489190610f1c565b610ac4565b60405161045a9190610d89565b60405180910390f35b61046b610bfd565b6040516104789190610d89565b60405180910390f35b61049b60048036038101906104969190610e34565b610c14565b005b6104b760048036038101906104b29190610f1c565b610c43565b6040516104c49190610d89565b60405180910390f35b6104d5610c5c565b6040516104e29190610d89565b60405180910390f35b61050560048036038101906105009190610f47565b610ca0565b6040516105129190610d89565b60405180910390f35b61053560048036038101906105309190610fe3565b610cc0565b005b610551600480360381019061054c9190611033565b610d42565b60405161055e9190610d89565b60405180910390f35b61056f610d57565b60405161057c9190610d89565b60405180910390f35b5f60035f5f73ffffffffffffffffffffffffffffffffffffffff1673ffffffffffffffffffffffffffffffffffffffff1681526020019081526020015f205f5f73ffffffffffffffffffffffffffffffffffffffff1673ffffffffffffffffffffffffffffffffffffffff1681526020019081526020015f2054905090565b825f5f8681526020019081526020015f2081905550805f5f8481526020019081526020015f208190555050505050565b8060045f8581526020019081526020015f205f8481526020019081526020015f2081905550505050565b5f60035f8473ffffffffffffffffffffffffffffffffffffffff1673ffffffffffffffffffffffffffffffffffffffff1681526020019081526020015f205f8373ffffffffffffffffffffffffffffffffffffffff1673ffffffffffffffffffffffffffffffffffffffff1681526020019081526020015f2054905092915050565b5f602052805f5260405f205f915090505481565b805f5f7fffffffffffffffffffffffffffffffffffffffffffffffffffffffffffffffff81526020019081526020015f208190555050565b805f5f5f81526020019081526020015f208190555050565b5f60035f8473ffffffffffffffffffffffffffffffffffffffff1673ffffffffffffffffffffffffffffffffffffffff1681526020019081526020015f205f8373ffffffffffffffffffffffffffffffffffffffff1673ffffffffffffffffffffffffffffffffffffffff1681526020019081526020015f2054905092915050565b8060025f5f5f1b81526020019081526020015f208190555050565b5f5f5f7fffffffffffffffffffffffffffffffffffffffffffffffffffffffffffffffff81526020019081526020015f2054905090565b60015f5f8381526020019081526020015f2054610835919061108b565b5f5f8381526020019081526020015f208190555050565b6003602052815f5260405f20602052805f5260405f205f91509150505481565b8060015f5f73ffffffffffffffffffffffffffffffffffffffff1673ffffffffffffffffffffffffffffffffffffffff1681526020019081526020015f208190555050565b8060045f5f81526020019081526020015f205f5f81526020019081526020015f20819055506001816108e3919061108b565b60045f5f81526020019081526020015f205f7fffffffffffffffffffffffffffffffffffffffffffffffffffffffffffffffff81526020019081526020015f2081905550600281610934919061108b565b60045f7fffffffffffffffffffffffffffffffffffffffffffffffffffffffffffffffff81526020019081526020015f205f5f81526020019081526020015f2081905550600381610985919061108b565b60045f7fffffffffffffffffffffffffffffffffffffffffffffffffffffffffffffffff81526020019081526020015f205f7fffffffffffffffffffffffffffffffffffffffffffffffffffffffffffffffff81526020019081526020015f208190555050565b8060035f5f73ffffffffffffffffffffffffffffffffffffffff1673ffffffffffffffffffffffffffffffffffffffff1681526020019081526020015f205f5f73ffffffffffffffffffffffffffffffffffffffff1673ffffffffffffffffffffffffffffffffffffffff1681526020019081526020015f208190555050565b5f60045f8481526020019081526020015f205f8381526020019081526020015f2054905092915050565b5f5f5f8381526020019081526020015f20549050919050565b6002602052805f5260405f205f915090505481565b5f5f8203610af45760045f5f81526020019081526020015f205f5f81526020019081526020015f20549050610bf8565b60018203610b445760045f5f81526020019081526020015f205f7fffffffffffffffffffffffffffffffffffffffffffffffffffffffffffffffff81526020019081526020015f20549050610bf8565b60028203610b945760045f7fffffffffffffffffffffffffffffffffffffffffffffffffffffffffffffffff81526020019081526020015f205f5f81526020019081526020015f20549050610bf8565b60045f7fffffffffffffffffffffffffffffffffffffffffffffffffffffffffffffffff81526020019081526020015f205f7fffffffffffffffffffffffffffffffffffffffffffffffffffffffffffffffff81526020019081526020015f205490505b919050565b5f5f5f5f81526020019081526020015f2054905090565b815f5f8581526020019081526020015f2081905550805f5f8581526020019081526020015f2081905550505050565b5f5f5f8381526020019081526020015f20549050919050565b5f60015f5f73ffffffffffffffffffffffffffffffffffffffff1673ffffffffffffffffffffffffffffffffffffffff1681526020019081526020015f2054905090565b6004602052815f5260405f20602052805f5260405f205f91509150505481565b8060035f8573ffffffffffffffffffffffffffffffffffffffff1673ffffffffffffffffffffffffffffffffffffffff1681526020019081526020015f205f8473ffffffffffffffffffffffffffffffffffffffff1673ffffffffffffffffffffffffffffffffffffffff1681526020019081526020015f2081905550505050565b6001602052805f5260405f205f915090505481565b5f60025f5f5f1b81526020019081526020015f2054905090565b5f819050919050565b610d8381610d71565b82525050565b5f602082019050610d9c5f830184610d7a565b92915050565b5f5ffd5b610daf81610d71565b8114610db9575f5ffd5b50565b5f81359050610dca81610da6565b92915050565b5f5f5f5f60808587031215610de857610de7610da2565b5b5f610df587828801610dbc565b9450506020610e0687828801610dbc565b9350506040610e1787828801610dbc565b9250506060610e2887828801610dbc565b91505092959194509250565b5f5f5f60608486031215610e4b57610e4a610da2565b5b5f610e5886828701610dbc565b9350506020610e6986828701610dbc565b9250506040610e7a86828701610dbc565b9150509250925092565b5f73ffffffffffffffffffffffffffffffffffffffff82169050919050565b5f610ead82610e84565b9050919050565b610ebd81610ea3565b8114610ec7575f5ffd5b50565b5f81359050610ed881610eb4565b92915050565b5f5f60408385031215610ef457610ef3610da2565b5b5f610f0185828601610eca565b9250506020610f1285828601610eca565b9150509250929050565b5f60208284031215610f3157610f30610da2565b5b5f610f3e84828501610dbc565b91505092915050565b5f5f60408385031215610f5d57610f5c610da2565b5b5f610f6a85828601610dbc565b9250506020610f7b85828601610dbc565b9150509250929050565b5f819050919050565b610f9781610f85565b8114610fa1575f5ffd5b50565b5f81359050610fb281610f8e565b92915050565b5f60208284031215610fcd57610fcc610da2565b5b5f610fda84828501610fa4565b91505092915050565b5f5f5f60608486031215610ffa57610ff9610da2565b5b5f61100786828701610eca565b935050602061101886828701610eca565b925050604061102986828701610dbc565b9150509250925092565b5f6020828403121561104857611047610da2565b5b5f61105584828501610eca565b91505092915050565b7f4e487b71000000000000000000000000000000000000000000000000000000005f52601160045260245ffd5b5f61109582610d71565b91506110a083610d71565b92508282019050808211156110b8576110b761105e565b5b9291505056fea26469706673582212204076eadbbeb0ac0af92d1aa583f5d12912f86af463b09b4c58a24360e81542c164736f6c634300081c0033","linkReferences":{}},"methodIdentifiers":{"addressMap(address)":"da5633ef","allowances(address,address)":"55b6ed5c","bytes32Map(bytes32)":"9a94947b","getAddressZero()":"bc53a794","getAllowance(address,address)":"0af4187d","getAllowanceZeroAddresses()":"01b48c78","getBytes32Zero()":"fb37f3c2","getKey(uint256)":"bb5b27e1","getMatrixCell(uint256,uint256)":"87993e23","getMatrixCorner(uint256)":"a255e9da","getMaxKey()":"4d420b8d","getUnsetKey(uint256)":"89395b7e","getUnsetNestedKey(address,address)":"2b89b27f","getZeroKey()":"afa22fea","incrementKey(uint256)":"53176a21","matrix(uint256,uint256)":"d9a38d64","overwriteKey(uint256,uint256,uint256)":"b3f40a4a","setAddressZero(uint256)":"6561f280","setAllowance(address,address,uint256)":"da46098c","setAllowanceZeroAddresses(uint256)":"83213ee3","setBytes32Zero(uint256)":"474df6fa","setMatrixCell(uint256,uint256,uint256)":"0a1ea307","setMatrixCorners(uint256)":"65d5559e","setMaxKey(uint256)":"2a924442","setMultipleKeys(uint256,uint256,uint256,uint256)":"0440dd5a","setZeroKey(uint256)":"2ac3bb88","uintMap(uint256)":"1a5931d6"},"id":1}