{"abi":[{"type":"function","name":"count","inputs":[],"outputs":[{"name":"","type":"uint256","internalType":"uint256"}],"stateMutability":"view"},{"type":"function","name":"getCount","inputs":[],"outputs":[{"name":"","type":"uint256","internalType":"uint256"}],"stateMutability":"view"},{"type":"function","name":"increment","inputs":[],"outputs":[],"stateMutability":"nonpayable"}],"bytecode":{"object":"0x60698060095f395ff35f3560e01c806306661abd146026578063d09de08a14603a578063a87d942c146051576065565b5034156030575f5ffd5b5b5f545f5260205ff35b5034156044575f5ffd5b5b5f546001810190505f55005b503415605b575f5ffd5b5b5f545f5260205ff35b5f5ffd","linkReferences":{}},"methodIdentifiers":{},"id":1}