{"abi":[{"type":"function","name":"callAdd","inputs":[{"name":"callee","type":"address","internalType":"address"},{"name":"a","type":"uint256","internalType":"uint256"},{"name":"b","type":"uint256","internalType":"uint256"}],"outputs":[{"name":"","type":"uint256","internalType":"uint256"}],"stateMutability":"view"},{"type":"function","name":"callMultiply","inputs":[{"name":"callee","type":"address","internalType":"address"},{"name":"a","type":"uint256","internalType":"uint256"},{"name":"b","type":"uint256","internalType":"uint256"}],"outputs":[{"name":"","type":"uint256","internalType":"uint256"}],"stateMutability":"view"},{"type":"function","name":"chainedCalls","inputs":[{"name":"callee","type":"address","internalType":"address"},{"name":"x","type":"uint256","internalType":"uint256"}],"outputs":[{"name":"","type":"uint256","internalType":"uint256"}],"stateMutability":"view"}],"bytecode":{"object":"0x61016880600a5f395ff35f3560e01c806380b0d62c14602757806374f6100914607957806372e2d8f11460cb57610164565b5034156031575f5ffd5b5b7f771602f7000000000000000000000000000000000000000000000000000000005f526024356004526044356024525a60205f60445f5f60043586f190505f515f5260205ff35b5034156083575f5ffd5b5b7f165c4a16000000000000000000000000000000000000000000000000000000005f526024356004526044356024525a60205f60445f5f60043586f190505f515f5260205ff35b50341560d5575f5ffd5b5b7f771602f7000000000000000000000000000000000000000000000000000000005f52602435600452600a6024525a60205f60445f5f60043586f190505f516080527f165c4a16000000000000000000000000000000000000000000000000000000005f5260805160045260026024525a60205f60445f5f60043586f190505f5160a05260a0515f5260205ff35b5f5ffd","linkReferences":{}},"methodIdentifiers":{},"id":0}