{"abi":[{"type":"function","name":"divideByLocal","inputs":[],"outputs":[{"name":"a","type":"uint256","internalType":"uint256"},{"name":"b","type":"uint256","internalType":"uint256"}],"stateMutability":"nonpayable"},{"type":"function","name":"localAsFirst","inputs":[],"outputs":[{"name":"a","type":"uint256","internalType":"uint256"},{"name":"b","type":"uint256","internalType":"uint256"}],"stateMutability":"nonpayable"},{"type":"function","name":"moduloByLocal","inputs":[],"outputs":[{"name":"a","type":"uint256","internalType":"uint256"},{"name":"b","type":"uint256","internalType":"uint256"}],"stateMutability":"nonpayable"},{"type":"function","name":"setX","inputs":[{"name":"val","type":"uint256","internalType":"uint256"}],"outputs":[],"stateMutability":"nonpayable"},{"type":"function","name":"subtractFromLocal","inputs":[],"outputs":[{"name":"a","type":"uint256","internalType":"uint256"},{"name":"b","type":"uint256","internalType":"uint256"}],"stateMutability":"nonpayable"},{"type":"function","name":"x","inputs":[],"outputs":[{"name":"","type":"uint256","internalType":"uint256"}],"stateMutability":"view"}],"bytecode":{"object":"0x61017880600a5f395ff361400060405236600e57610174565b5f3560e01c80630c55699c146056578063b668793e14606e5780636c9748f61460ab578063ea54118d1460e657806347191492146101235780634018d9aa1461016157610174565b5034156060575f5ffd5b5b5f6080525f545f5260205ff35b5034156078575f5ffd5b5b5f6080525f60a0525f5480611000526103e804608052611000516107d00460a05260805160a051815f5260205260405ff35b50341560b5575f5ffd5b5b5f6080525f60a0525f5460018180611000520160805260028101905060a05260805160a051815f5260205260405ff35b50341560f0575f5ffd5b5b5f6080525f60a0525f5480611000526103e803608052611000516101f40360a05260805160a051815f5260205260405ff35b50341561012e575f5ffd5b5b5f6080525f60a0525f5480611000526103e806608052611000516107d00660a05260805160a051815f5260205260405ff35b50341561016c575f5ffd5b5b6004355f55005b5f5ffd","linkReferences":{}},"methodIdentifiers":{"divideByLocal()":"b668793e","localAsFirst()":"6c9748f6","moduloByLocal()":"47191492","setX(uint256)":"4018d9aa","subtractFromLocal()":"ea54118d","x()":"0c55699c"},"id":2}