{"abi":[{"type":"function","name":"add","inputs":[{"name":"a","type":"uint256","internalType":"uint256"},{"name":"b","type":"uint256","internalType":"uint256"}],"outputs":[{"name":"","type":"uint256","internalType":"uint256"}],"stateMutability":"pure"},{"type":"function","name":"multiply","inputs":[{"name":"a","type":"uint256","internalType":"uint256"},{"name":"b","type":"uint256","internalType":"uint256"}],"outputs":[{"name":"","type":"uint256","internalType":"uint256"}],"stateMutability":"pure"}],"bytecode":{"object":"0x6080604052348015600e575f5ffd5b506102368061001c5f395ff3fe608060405234801561000f575f5ffd5b5060043610610034575f3560e01c8063165c4a1614610038578063771602f714610068575b5f5ffd5b610052600480360381019061004d91906100f9565b610098565b60405161005f9190610146565b60405180910390f35b610082600480360381019061007d91906100f9565b6100ad565b60405161008f9190610146565b60405180910390f35b5f81836100a5919061018c565b905092915050565b5f81836100ba91906101cd565b905092915050565b5f5ffd5b5f819050919050565b6100d8816100c6565b81146100e2575f5ffd5b50565b5f813590506100f3816100cf565b92915050565b5f5f6040838503121561010f5761010e6100c2565b5b5f61011c858286016100e5565b925050602061012d858286016100e5565b9150509250929050565b610140816100c6565b82525050565b5f6020820190506101595f830184610137565b92915050565b7f4e487b71000000000000000000000000000000000000000000000000000000005f52601160045260245ffd5b5f610196826100c6565b91506101a1836100c6565b92508282026101af816100c6565b915082820484148315176101c6576101c561015f565b5b5092915050565b5f6101d7826100c6565b91506101e2836100c6565b92508282019050808211156101fa576101f961015f565b5b9291505056fea264697066735822122094f8a29ab7d594c8a6a863c042fa5733bfc3bbf82d6d948b76ca283f3f1e135f64736f6c634300081c0033","linkReferences":{}},"methodIdentifiers":{"add(uint256,uint256)":"771602f7","multiply(uint256,uint256)":"165c4a16"},"id":0}