{"abi":[{"type":"function","name":"callAdd","inputs":[{"name":"callee","type":"address","internalType":"address"},{"name":"a","type":"uint256","internalType":"uint256"},{"name":"b","type":"uint256","internalType":"uint256"}],"outputs":[{"name":"","type":"uint256","internalType":"uint256"}],"stateMutability":"view"},{"type":"function","name":"callMultiply","inputs":[{"name":"callee","type":"address","internalType":"address"},{"name":"a","type":"uint256","internalType":"uint256"},{"name":"b","type":"uint256","internalType":"uint256"}],"outputs":[{"name":"","type":"uint256","internalType":"uint256"}],"stateMutability":"view"},{"type":"function","name":"chainedCalls","inputs":[{"name":"callee","type":"address","internalType":"address"},{"name":"x","type":"uint256","internalType":"uint256"}],"outputs":[{"name":"","type":"uint256","internalType":"uint256"}],"stateMutability":"view"},{"type":"function","name":"multipleCallsWithAssert","inputs":[{"name":"callee","type":"address","internalType":"address"},{"name":"x","type":"uint256","internalType":"uint256"}],"outputs":[{"name":"","type":"uint256","internalType":"uint256"}],"stateMutability":"view"},{"type":"function","name":"threeCallsWithAssert","inputs":[{"name":"callee","type":"address","internalType":"address"},{"name":"x","type":"uint256","internalType":"uint256"}],"outputs":[{"name":"","type":"uint256","internalType":"uint256"}],"stateMutability":"view"}],"bytecode":{"object":"0x6080604052348015600e575f5ffd5b50610a2f8061001c5f395ff3fe608060405234801561000f575f5ffd5b5060043610610055575f3560e01c806372e2d8f11461005957806374f61009146100895780637e7fc8bb146100b957806380b0d62c146100e9578063c414064714610119575b5f5ffd5b610073600480360381019061006e91906106c7565b610149565b6040516100809190610714565b60405180910390f35b6100a3600480360381019061009e919061072d565b610251565b6040516100b09190610714565b60405180910390f35b6100d360048036038101906100ce91906106c7565b6102d5565b6040516100e09190610714565b60405180910390f35b61010360048036038101906100fe919061072d565b61048f565b6040516101109190610714565b60405180910390f35b610133600480360381019061012e91906106c7565b610513565b6040516101409190610714565b60405180910390f35b5f5f8373ffffffffffffffffffffffffffffffffffffffff1663771602f784600a6040518363ffffffff1660e01b81526004016101879291906107bf565b602060405180830381865afa1580156101a2573d5f5f3e3d5ffd5b505050506040513d601f19601f820116820180604052508101906101c691906107fa565b90505f8473ffffffffffffffffffffffffffffffffffffffff1663165c4a168360026040518363ffffffff1660e01b815260040161020592919061085e565b602060405180830381865afa158015610220573d5f5f3e3d5ffd5b505050506040513d601f19601f8201168201806040525081019061024491906107fa565b9050809250505092915050565b5f8373ffffffffffffffffffffffffffffffffffffffff1663165c4a1684846040518363ffffffff1660e01b815260040161028d929190610885565b602060405180830381865afa1580156102a8573d5f5f3e3d5ffd5b505050506040513d601f19601f820116820180604052508101906102cc91906107fa565b90509392505050565b5f5f8373ffffffffffffffffffffffffffffffffffffffff1663771602f7845f6040518363ffffffff1660e01b81526004016103129291906108e5565b602060405180830381865afa15801561032d573d5f5f3e3d5ffd5b505050506040513d601f19601f8201168201806040525081019061035191906107fa565b90505f8473ffffffffffffffffffffffffffffffffffffffff1663771602f7855f6040518363ffffffff1660e01b815260040161038f9291906108e5565b602060405180830381865afa1580156103aa573d5f5f3e3d5ffd5b505050506040513d601f19601f820116820180604052508101906103ce91906107fa565b90505f8573ffffffffffffffffffffffffffffffffffffffff1663771602f7865f6040518363ffffffff1660e01b815260040161040c9291906108e5565b602060405180830381865afa158015610427573d5f5f3e3d5ffd5b505050506040513d601f19601f8201168201806040525081019061044b91906107fa565b905081831461045d5761045c61090c565b5b80821461046d5761046c61090c565b5b80828461047a9190610966565b6104849190610966565b935050505092915050565b5f8373ffffffffffffffffffffffffffffffffffffffff1663771602f784846040518363ffffffff1660e01b81526004016104cb929190610885565b602060405180830381865afa1580156104e6573d5f5f3e3d5ffd5b505050506040513d601f19601f8201168201806040525081019061050a91906107fa565b90509392505050565b5f5f8373ffffffffffffffffffffffffffffffffffffffff1663771602f78460016040518363ffffffff1660e01b81526004016105519291906109d2565b602060405180830381865afa15801561056c573d5f5f3e3d5ffd5b505050506040513d601f19601f8201168201806040525081019061059091906107fa565b90505f8473ffffffffffffffffffffffffffffffffffffffff1663771602f78560016040518363ffffffff1660e01b81526004016105cf9291906109d2565b602060405180830381865afa1580156105ea573d5f5f3e3d5ffd5b505050506040513d601f19601f8201168201806040525081019061060e91906107fa565b90508082146106205761061f61090c565b5b808261062c9190610966565b9250505092915050565b5f5ffd5b5f73ffffffffffffffffffffffffffffffffffffffff82169050919050565b5f6106638261063a565b9050919050565b61067381610659565b811461067d575f5ffd5b50565b5f8135905061068e8161066a565b92915050565b5f819050919050565b6106a681610694565b81146106b0575f5ffd5b50565b5f813590506106c18161069d565b92915050565b5f5f604083850312156106dd576106dc610636565b5b5f6106ea85828601610680565b92505060206106fb858286016106b3565b9150509250929050565b61070e81610694565b82525050565b5f6020820190506107275f830184610705565b92915050565b5f5f5f6060848603121561074457610743610636565b5b5f61075186828701610680565b9350506020610762868287016106b3565b9250506040610773868287016106b3565b9150509250925092565b5f819050919050565b5f819050919050565b5f6107a96107a461079f8461077d565b610786565b610694565b9050919050565b6107b98161078f565b82525050565b5f6040820190506107d25f830185610705565b6107df60208301846107b0565b9392505050565b5f815190506107f48161069d565b92915050565b5f6020828403121561080f5761080e610636565b5b5f61081c848285016107e6565b91505092915050565b5f819050919050565b5f61084861084361083e84610825565b610786565b610694565b9050919050565b6108588161082e565b82525050565b5f6040820190506108715f830185610705565b61087e602083018461084f565b9392505050565b5f6040820190506108985f830185610705565b6108a56020830184610705565b9392505050565b5f819050919050565b5f6108cf6108ca6108c5846108ac565b610786565b610694565b9050919050565b6108df816108b5565b82525050565b5f6040820190506108f85f830185610705565b61090560208301846108d6565b9392505050565b7f4e487b71000000000000000000000000000000000000000000000000000000005f52600160045260245ffd5b7f4e487b71000000000000000000000000000000000000000000000000000000005f52601160045260245ffd5b5f61097082610694565b915061097b83610694565b925082820190508082111561099357610992610939565b5b92915050565b5f819050919050565b5f6109bc6109b76109b284610999565b610786565b610694565b9050919050565b6109cc816109a2565b82525050565b5f6040820190506109e55f830185610705565b6109f260208301846109c3565b939250505056fea26469706673582212200a6bd800e56e48a90508cb63aa3ffe6ac65efe76ddc58c3caeef6bb8ac7d3ad864736f6c634300081c0033","linkReferences":{}},"methodIdentifiers":{"callAdd(address,uint256,uint256)":"80b0d62c","callMultiply(address,uint256,uint256)":"74f61009","chainedCalls(address,uint256)":"72e2d8f1","multipleCallsWithAssert(address,uint256)":"c4140647","threeCallsWithAssert(address,uint256)":"7e7fc8bb"},"id":0}