{"abi":[{"type":"function","name":"flag1","inputs":[],"outputs":[{"name":"","type":"bool","internalType":"bool"}],"stateMutability":"view"},{"type":"function","name":"flag2","inputs":[],"outputs":[{"name":"","type":"bool","internalType":"bool"}],"stateMutability":"view"},{"type":"function","name":"pureAnd","inputs":[{"name":"a","type":"bool","internalType":"bool"},{"name":"b","type":"bool","internalType":"bool"}],"outputs":[{"name":"","type":"bool","internalType":"bool"}],"stateMutability":"pure"},{"type":"function","name":"pureOr","inputs":[{"name":"a","type":"bool","internalType":"bool"},{"name":"b","type":"bool","internalType":"bool"}],"outputs":[{"name":"","type":"bool","internalType":"bool"}],"stateMutability":"pure"},{"type":"function","name":"setFlags","inputs":[{"name":"_f1","type":"bool","internalType":"bool"},{"name":"_f2","type":"bool","internalType":"bool"}],"outputs":[],"stateMutability":"nonpayable"},{"type":"function","name":"testAnd","inputs":[],"outputs":[{"name":"","type":"bool","internalType":"bool"}],"stateMutability":"view"},{"type":"function","name":"testOr","inputs":[],"outputs":[{"name":"","type":"bool","internalType":"bool"}],"stateMutability":"view"}],"bytecode":{"object":"0x61012580600a5f395ff361400060405236600e57610121565b5f3560e01c806349ed739414605f5780633004511f146077578063c1194e7e146090578063a37bb5141460a857806317a91fe81460c7578063e7f992931460e6578063e39d10df1461010357610121565b5034156069575f5ffd5b5b5f6080525f545f5260205ff35b5034156081575f5ffd5b5b5f6080526001545f5260205ff35b503415609a575f5ffd5b5b6004355f55602435600155005b50341560b2575f5ffd5b5b5f6080525f54600154811690505f5260205ff35b50341560d1575f5ffd5b5b5f6080525f54600154811790505f5260205ff35b50341560f0575f5ffd5b5b5f608052602435600435165f5260205ff35b50341561010e575f5ffd5b5b5f608052602435600435175f5260205ff35b5f5ffd","linkReferences":{}},"methodIdentifiers":{"flag1()":"49ed7394","flag2()":"3004511f","pureAnd(bool,bool)":"e7f99293","pureOr(bool,bool)":"e39d10df","setFlags(bool,bool)":"c1194e7e","testAnd()":"a37bb514","testOr()":"17a91fe8"},"id":0}