{"abi":[{"type":"function","name":"callVia","inputs":[{"name":"callee","type":"address","internalType":"address"}],"outputs":[{"name":"","type":"uint256","internalType":"uint256"},{"name":"","type":"uint256","internalType":"uint256"}],"stateMutability":"view"},{"type":"function","name":"getThree","inputs":[],"outputs":[{"name":"","type":"uint256","internalType":"uint256"},{"name":"","type":"uint256","internalType":"uint256"},{"name":"","type":"uint256","internalType":"uint256"}],"stateMutability":"pure"},{"type":"function","name":"getTwo","inputs":[],"outputs":[{"name":"","type":"uint256","internalType":"uint256"},{"name":"","type":"uint256","internalType":"uint256"}],"stateMutability":"pure"},{"type":"function","name":"simpleReturn","inputs":[],"outputs":[{"name":"","type":"uint256","internalType":"uint256"},{"name":"","type":"uint256","internalType":"uint256"}],"stateMutability":"pure"},{"type":"function","name":"testPartialCapture","inputs":[],"outputs":[{"name":"","type":"uint256","internalType":"uint256"}],"stateMutability":"view"},{"type":"function","name":"testSimpleReturn","inputs":[],"outputs":[{"name":"","type":"uint256","internalType":"uint256"},{"name":"","type":"uint256","internalType":"uint256"}],"stateMutability":"view"},{"type":"function","name":"testThree","inputs":[],"outputs":[{"name":"","type":"uint256","internalType":"uint256"},{"name":"","type":"uint256","internalType":"uint256"},{"name":"","type":"uint256","internalType":"uint256"}],"stateMutability":"view"},{"type":"function","name":"testTwo","inputs":[],"outputs":[{"name":"","type":"uint256","internalType":"uint256"},{"name":"","type":"uint256","internalType":"uint256"}],"stateMutability":"view"}],"bytecode":{"object":"0x61034b80600a5f395ff361400060405236600e57610347565b5f3560e01c8063ee78412314606d5780630e2f5fb314608e578063bda07e9d1460b85780639bbe804414610132578063e54e66ba146101c2578063ed1cf0e21461022d578063474612571461024f5780635f7845ba146102ca57610347565b5034156077575f5ffd5b5b5f6080525f60a05260015f52600260205260405ff35b5034156098575f5ffd5b5b5f6080525f60a0525f60c052600a5f526014602052601e60405260605ff35b50341560c2575f5ffd5b5b5f6080525f60a052305f5260405180611000526020527fee7841230000000000000000000000000000000000000000000000000000000061100051525f515a60205160405f60046020515f5f515af1505050505f5160c05260205160e05260c05160e051815f5260205260405ff35b50341561013d575f5ffd5b5b5f6080525f60a0525f60c052305f5260405180611000526020527f0e2f5fb30000000000000000000000000000000000000000000000000000000061100051525f515a60205160605f60046020515f5f515af1505050505f5160e052602051610100526040516101205260e0516101005161012051825f528160205260405260605ff35b5034156101cd575f5ffd5b5b5f608052305f5260405180611000526020527fee7841230000000000000000000000000000000000000000000000000000000061100051525f515a60205160405f60046020515f5f515af15050505060205160a05260a0515f5260205ff35b503415610238575f5ffd5b5b5f6080525f60a052606f5f5260de60205260405ff35b50341561025a575f5ffd5b5b5f6080525f60a052305f5260405180611000526020527fed1cf0e20000000000000000000000000000000000000000000000000000000061100051525f515a60205160405f60046020515f5f515af1505050505f5160c05260205160e05260c05160e051815f5260205260405ff35b5034156102d5575f5ffd5b5b5f6080525f60a0526004355f5260405180611000526020527fee7841230000000000000000000000000000000000000000000000000000000061100051525f515a60205160405f60046020515f5f515af1505050505f5160c05260205160e05260c05160e051815f5260205260405ff35b5f5ffd","linkReferences":{}},"methodIdentifiers":{"callVia(address)":"5f7845ba","getThree()":"0e2f5fb3","getTwo()":"ee784123","simpleReturn()":"ed1cf0e2","testPartialCapture()":"e54e66ba","testSimpleReturn()":"47461257","testThree()":"9bbe8044","testTwo()":"bda07e9d"},"id":0}