{"abi":[{"type":"function","name":"flag1","inputs":[],"outputs":[{"name":"","type":"bool","internalType":"bool"}],"stateMutability":"view"},{"type":"function","name":"flag2","inputs":[],"outputs":[{"name":"","type":"bool","internalType":"bool"}],"stateMutability":"view"},{"type":"function","name":"pureAnd","inputs":[{"name":"a","type":"bool","internalType":"bool"},{"name":"b","type":"bool","internalType":"bool"}],"outputs":[{"name":"","type":"bool","internalType":"bool"}],"stateMutability":"pure"},{"type":"function","name":"pureOr","inputs":[{"name":"a","type":"bool","internalType":"bool"},{"name":"b","type":"bool","internalType":"bool"}],"outputs":[{"name":"","type":"bool","internalType":"bool"}],"stateMutability":"pure"},{"type":"function","name":"setFlags","inputs":[{"name":"_f1","type":"bool","internalType":"bool"},{"name":"_f2","type":"bool","internalType":"bool"}],"outputs":[],"stateMutability":"nonpayable"},{"type":"function","name":"testAnd","inputs":[],"outputs":[{"name":"","type":"bool","internalType":"bool"}],"stateMutability":"view"},{"type":"function","name":"testOr","inputs":[],"outputs":[{"name":"","type":"bool","internalType":"bool"}],"stateMutability":"view"}],"bytecode":{"object":"0x6080604052348015600e575f5ffd5b5061031a8061001c5f395ff3fe608060405234801561000f575f5ffd5b506004361061007b575f3560e01c8063a37bb51411610059578063a37bb514146100d9578063c1194e7e146100f7578063e39d10df14610113578063e7f99293146101435761007b565b806317a91fe81461007f5780633004511f1461009d57806349ed7394146100bb575b5f5ffd5b610087610173565b604051610094919061025f565b60405180910390f35b6100a561019d565b6040516100b2919061025f565b60405180910390f35b6100c36101af565b6040516100d0919061025f565b60405180910390f35b6100e16101c0565b6040516100ee919061025f565b60405180910390f35b610111600480360381019061010c91906102a6565b6101eb565b005b61012d600480360381019061012891906102a6565b610220565b60405161013a919061025f565b60405180910390f35b61015d600480360381019061015891906102a6565b610232565b60405161016a919061025f565b60405180910390f35b5f5f5f9054906101000a900460ff168061019857505f60019054906101000a900460ff165b905090565b5f60019054906101000a900460ff1681565b5f5f9054906101000a900460ff1681565b5f5f5f9054906101000a900460ff1680156101e657505f60019054906101000a900460ff165b905090565b815f5f6101000a81548160ff021916908315150217905550805f60016101000a81548160ff0219169083151502179055505050565b5f828061022a5750815b905092915050565b5f82801561023d5750815b905092915050565b5f8115159050919050565b61025981610245565b82525050565b5f6020820190506102725f830184610250565b92915050565b5f5ffd5b61028581610245565b811461028f575f5ffd5b50565b5f813590506102a08161027c565b92915050565b5f5f604083850312156102bc576102bb610278565b5b5f6102c985828601610292565b92505060206102da85828601610292565b915050925092905056fea26469706673582212208a6385067adc8c49f8fac3d3e60d474035f590858286e739be768af3f269961464736f6c634300081c0033","linkReferences":{}},"methodIdentifiers":{"flag1()":"49ed7394","flag2()":"3004511f","pureAnd(bool,bool)":"e7f99293","pureOr(bool,bool)":"e39d10df","setFlags(bool,bool)":"c1194e7e","testAnd()":"a37bb514","testOr()":"17a91fe8"},"id":0}