{"abi":[{"type":"function","name":"earlyReturn","inputs":[{"name":"x","type":"uint256","internalType":"uint256"}],"outputs":[{"name":"","type":"uint256","internalType":"uint256"}],"stateMutability":"pure"},{"type":"function","name":"forLoopProduct","inputs":[{"name":"n","type":"uint256","internalType":"uint256"}],"outputs":[{"name":"","type":"uint256","internalType":"uint256"}],"stateMutability":"pure"},{"type":"function","name":"forLoopSum","inputs":[{"name":"n","type":"uint256","internalType":"uint256"}],"outputs":[{"name":"","type":"uint256","internalType":"uint256"}],"stateMutability":"pure"},{"type":"function","name":"forWithBreak","inputs":[{"name":"n","type":"uint256","internalType":"uint256"}],"outputs":[{"name":"","type":"uint256","internalType":"uint256"}],"stateMutability":"pure"},{"type":"function","name":"forWithContinue","inputs":[{"name":"n","type":"uint256","internalType":"uint256"}],"outputs":[{"name":"","type":"uint256","internalType":"uint256"}],"stateMutability":"pure"},{"type":"function","name":"ifElse","inputs":[{"name":"x","type":"uint256","internalType":"uint256"}],"outputs":[{"name":"","type":"uint256","internalType":"uint256"}],"stateMutability":"pure"},{"type":"function","name":"ifElseIf","inputs":[{"name":"x","type":"uint256","internalType":"uint256"}],"outputs":[{"name":"","type":"uint256","internalType":"uint256"}],"stateMutability":"pure"},{"type":"function","name":"nestedForLoop","inputs":[{"name":"rows","type":"uint256","internalType":"uint256"},{"name":"cols","type":"uint256","internalType":"uint256"}],"outputs":[{"name":"","type":"uint256","internalType":"uint256"}],"stateMutability":"pure"},{"type":"function","name":"nestedIf","inputs":[{"name":"x","type":"uint256","internalType":"uint256"},{"name":"y","type":"uint256","internalType":"uint256"}],"outputs":[{"name":"","type":"uint256","internalType":"uint256"}],"stateMutability":"pure"},{"type":"function","name":"nestedLoopBreak","inputs":[{"name":"limit","type":"uint256","internalType":"uint256"}],"outputs":[{"name":"","type":"uint256","internalType":"uint256"}],"stateMutability":"pure"},{"type":"function","name":"nestedTernary","inputs":[{"name":"x","type":"uint256","internalType":"uint256"}],"outputs":[{"name":"","type":"uint256","internalType":"uint256"}],"stateMutability":"pure"},{"type":"function","name":"simpleIf","inputs":[{"name":"x","type":"uint256","internalType":"uint256"}],"outputs":[{"name":"","type":"uint256","internalType":"uint256"}],"stateMutability":"pure"},{"type":"function","name":"singleIteration","inputs":[],"outputs":[{"name":"","type":"uint256","internalType":"uint256"}],"stateMutability":"pure"},{"type":"function","name":"ternary","inputs":[{"name":"x","type":"uint256","internalType":"uint256"}],"outputs":[{"name":"","type":"uint256","internalType":"uint256"}],"stateMutability":"pure"},{"type":"function","name":"whileLoopCountdown","inputs":[{"name":"n","type":"uint256","internalType":"uint256"}],"outputs":[{"name":"","type":"uint256","internalType":"uint256"}],"stateMutability":"pure"},{"type":"function","name":"whileLoopSum","inputs":[{"name":"n","type":"uint256","internalType":"uint256"}],"outputs":[{"name":"","type":"uint256","internalType":"uint256"}],"stateMutability":"pure"},{"type":"function","name":"whileWithBreak","inputs":[{"name":"target","type":"uint256","internalType":"uint256"}],"outputs":[{"name":"","type":"uint256","internalType":"uint256"}],"stateMutability":"pure"},{"type":"function","name":"zeroIterations","inputs":[],"outputs":[{"name":"","type":"uint256","internalType":"uint256"}],"stateMutability":"pure"}],"bytecode":{"object":"0x61074080600a5f395ff35f3560e01c806370602e8a1460cd578063950b99541460f6578063e84571261461012b578063a462fd3d1461017d57806355278c5b146101ec578063403ae60f1461020b578063b77fd46e14610233578063d410da271461028a578063afa8b07e146102fa5780630718e2f114610384578063c4e97d1b146103db57806338b85e0b14610427578063635adfb314610494578063d58eea7a146105045780639a2d8f181461055e57806305aabe6714610614578063e92fb14b14610669578063b055da2f146106bf5761073c565b50341560d7575f5ffd5b5b600a6004351160e55760ee565b60015f5260205ff35b5f5f5260205ff35b503415610101575f5ffd5b5b600a6004351161011157610122565b60025f5260205ff35b5f5f5260205ff35b60015f5260205ff35b503415610136575f5ffd5b5b60646004351161014657610157565b60035f5260205ff35b5f5f5260205ff35b600a6004351161016657610174565b60025f5260205ff35b61014f565b60015f5260205ff35b503415610188575f5ffd5b5b600a60043511610198576101af565b600a602435116101be576101cc565b5f5f5260205ff35b600a602435116101d5576101e3565b60045f5260205ff35b6101a7565b60035f5260205ff35b60025f5260205ff35b6101a7565b60015f5260205ff35b5034156101f7575f5ffd5b5b600a600435116032606450505f5260205ff35b503415610216575f5ffd5b5b606460043511600a600435116001600250506003505f5260205ff35b50341561023e575f5ffd5b5b5f6080525f60a05261024c565b60a051600435901061026757610285565b6080515f5260205ff35b60805160a0510160805260a0516001900160a052610280565b61024c565b61025d565b503415610295575f5ffd5b5b5f600435146102a4576102ac565b5f5f5260205ff35b6001608052600160a0526102bb565b60a0516004359011156102d7576102f5565b6080515f5260205ff35b60805160a0510260805260a0516001900160a0526102f0565b6102bb565b6102cd565b503415610305575f5ffd5b5b5f6080525f60a052610313565b60a051600435901061032e5761033c565b6080515f5260205ff35b5f60c052610341565b610313565b610324565b60c05160243590106103615761037f565b60a0516001900160a052610337565b6080516001900160805260c0516001900160c05261037a565b610341565b610352565b50341561038f575f5ffd5b5b5f6080525f60a05261039d565b60a05160043590106103b8576103d6565b6080515f5260205ff35b60805160a0510160805260a0516001900160a0526103d1565b61039d565b6103ae565b5034156103e6575f5ffd5b5b5f6080526103f0565b5f6004351161040857610422565b6080515f5260205ff35b6080516001900160805260016004350361041d565b6103f0565b6103fe565b503415610432575f5ffd5b5b5f6080525f60a052610440565b60a0516064901061045a57610471565b6080515f5260205ff35b60a0516004359010156104765761047b565b610440565b610450565b610450565b60805160a0510160805260a0516001900160a05261046c565b50341561049f575f5ffd5b5b5f6080525f60a0526104ad565b60a05160043590106104c8576104e1565b6080515f5260205ff35b60a051600290065f8114506104e6576104eb565b6104ad565b6104be565b6104ad565b60805160a0510160805260a0516001900160a0526104dc565b50341561050f575f5ffd5b5b5f608052610519565b600161052e57610545565b6080515f5260205ff35b60805160043590101561054a5761054f565b610519565b610524565b610524565b60805160019001608052610540565b503415610569575f5ffd5b5b5f6080525f60a052610577565b60a051600a90106105915761059f565b6080515f5260205ff35b5f60c0526105a4565b610577565b610587565b60c051600a90106105c6576105dd565b60805160043590101561060057610605565b6080516004359010156105e2576105e7565b6105a4565b6105b4565b6105b4565b6080516001900160805260c0516001900160c0526105d8565b610587565b60a0516001900160a05261059a565b50341561061f575f5ffd5b5b5f6080525f60a05261062d565b60a0515f901061064657610664565b6080515f5260205ff35b6080516001900160805260a0516001900160a05261065f565b61062d565b61063c565b503415610674575f5ffd5b5b5f6080525f60a052610682565b60a0516001901061069c576106ba565b6080515f5260205ff35b608051600a900160805260a0516001900160a0526106b5565b610682565b610692565b5034156106ca575f5ffd5b5b5f600435146106d9576106e3565b6103e75f5260205ff35b5f6080526106ec565b608051600a90106107045761071a565b5f5f5260205ff35b608051600435901461071f5761072d565b6106ec565b6106fc565b608051606490025f5260205ff35b60805160019001608052610715565b5f5ffd","linkReferences":{}},"methodIdentifiers":{},"id":0}