{"abi":[{"type":"function","name":"data","inputs":[{"name":"","type":"uint256","internalType":"uint256"},{"name":"","type":"uint256","internalType":"uint256"},{"name":"","type":"uint256","internalType":"uint256"}],"outputs":[{"name":"","type":"uint256","internalType":"uint256"}],"stateMutability":"view"},{"type":"function","name":"get","inputs":[{"name":"a","type":"uint256","internalType":"uint256"},{"name":"b","type":"uint256","internalType":"uint256"},{"name":"c","type":"uint256","internalType":"uint256"}],"outputs":[{"name":"","type":"uint256","internalType":"uint256"}],"stateMutability":"view"},{"type":"function","name":"set","inputs":[{"name":"a","type":"uint256","internalType":"uint256"},{"name":"b","type":"uint256","internalType":"uint256"},{"name":"c","type":"uint256","internalType":"uint256"},{"name":"val","type":"uint256","internalType":"uint256"}],"outputs":[],"stateMutability":"nonpayable"}],"bytecode":{"object":"0x6080604052348015600e575f5ffd5b506102a48061001c5f395ff3fe608060405234801561000f575f5ffd5b506004361061003f575f3560e01c80630541c70714610043578063606ce3bf14610073578063d5374c251461008f575b5f5ffd5b61005d60048036038101906100589190610192565b6100bf565b60405161006a91906101f1565b60405180910390f35b61008d6004803603810190610088919061020a565b6100f8565b005b6100a960048036038101906100a49190610192565b610131565b6040516100b691906101f1565b60405180910390f35b5f5f5f8581526020019081526020015f205f8481526020019081526020015f205f8381526020019081526020015f205490509392505050565b805f5f8681526020019081526020015f205f8581526020019081526020015f205f8481526020019081526020015f208190555050505050565b5f602052825f5260405f20602052815f5260405f20602052805f5260405f205f9250925050505481565b5f5ffd5b5f819050919050565b6101718161015f565b811461017b575f5ffd5b50565b5f8135905061018c81610168565b92915050565b5f5f5f606084860312156101a9576101a861015b565b5b5f6101b68682870161017e565b93505060206101c78682870161017e565b92505060406101d88682870161017e565b9150509250925092565b6101eb8161015f565b82525050565b5f6020820190506102045f8301846101e2565b92915050565b5f5f5f5f608085870312156102225761022161015b565b5b5f61022f8782880161017e565b94505060206102408782880161017e565b93505060406102518782880161017e565b92505060606102628782880161017e565b9150509295919450925056fea2646970667358221220c9a0215395d03eb73f88ef86bcb22631a444705009670a87c295a9a7219e2bdd64736f6c634300081c0033","linkReferences":{}},"methodIdentifiers":{"data(uint256,uint256,uint256)":"d5374c25","get(uint256,uint256,uint256)":"0541c707","set(uint256,uint256,uint256,uint256)":"606ce3bf"},"id":5}