{"abi":[{"type":"function","name":"callIncrement","inputs":[{"name":"counter","type":"address","internalType":"address"}],"outputs":[],"stateMutability":"nonpayable"},{"type":"function","name":"getCount","inputs":[{"name":"counter","type":"address","internalType":"address"}],"outputs":[{"name":"","type":"uint256","internalType":"uint256"}],"stateMutability":"view"}],"bytecode":{"object":"0x60ed8060095f395ff361400060405236600d5760e9565b5f3560e01c806329e5b41714602a5780634f0cd27b1460845760e9565b5034156034575f5ffd5b5b6004355f5260405180611000526020527fd09de08a0000000000000000000000000000000000000000000000000000000061100051525f515a60205160205f60046020515f5f515af150505050005b503415608e575f5ffd5b5b5f6080526004355f5260405180611000526020527f06661abd0000000000000000000000000000000000000000000000000000000061100051525f515a60205160205f60046020515f5f515af1505050505f515f5260205ff35b5f5ffd","linkReferences":{}},"methodIdentifiers":{"callIncrement(address)":"29e5b417","getCount(address)":"4f0cd27b"},"id":0}